{
  "contractName": "CoinFlip",
  "abi": [
    {
      "anonymous": false,
      "inputs": [
        {
          "indexed": false,
          "internalType": "string",
          "name": "description",
          "type": "string"
        }
      ],
      "name": "LogNewProvableQuery",
      "type": "event"
    },
    {
      "anonymous": false,
      "inputs": [
        {
          "indexed": false,
          "internalType": "uint256",
          "name": "randomNumber",
          "type": "uint256"
        }
      ],
      "name": "generatedRandomNumber",
      "type": "event"
    },
    {
      "anonymous": false,
      "inputs": [
        {
          "indexed": false,
          "internalType": "string",
          "name": "",
          "type": "string"
        },
        {
          "indexed": false,
          "internalType": "uint256",
          "name": "",
          "type": "uint256"
        }
      ],
      "name": "youLose",
      "type": "event"
    },
    {
      "anonymous": false,
      "inputs": [
        {
          "indexed": false,
          "internalType": "string",
          "name": "",
          "type": "string"
        },
        {
          "indexed": false,
          "internalType": "uint256",
          "name": "",
          "type": "uint256"
        }
      ],
      "name": "youWin",
      "type": "event"
    },
    {
      "constant": false,
      "inputs": [
        {
          "internalType": "bytes32",
          "name": "_myid",
          "type": "bytes32"
        },
        {
          "internalType": "string",
          "name": "_result",
          "type": "string"
        }
      ],
      "name": "__callback",
      "outputs": [],
      "payable": false,
      "stateMutability": "nonpayable",
      "type": "function"
    },
    {
      "constant": false,
      "inputs": [
        {
          "internalType": "bytes32",
          "name": "_queryId",
          "type": "bytes32"
        },
        {
          "internalType": "string",
          "name": "_result",
          "type": "string"
        },
        {
          "internalType": "bytes",
          "name": "_proof",
          "type": "bytes"
        }
      ],
      "name": "__callback",
      "outputs": [],
      "payable": false,
      "stateMutability": "nonpayable",
      "type": "function"
    },
    {
      "constant": true,
      "inputs": [],
      "name": "latestNumber",
      "outputs": [
        {
          "internalType": "uint256",
          "name": "",
          "type": "uint256"
        }
      ],
      "payable": false,
      "stateMutability": "view",
      "type": "function"
    },
    {
      "constant": true,
      "inputs": [],
      "name": "owner",
      "outputs": [
        {
          "internalType": "address",
          "name": "",
          "type": "address"
        }
      ],
      "payable": false,
      "stateMutability": "view",
      "type": "function"
    },
    {
      "constant": false,
      "inputs": [],
      "name": "update",
      "outputs": [],
      "payable": true,
      "stateMutability": "payable",
      "type": "function"
    },
    {
      "constant": false,
      "inputs": [],
      "name": "play",
      "outputs": [],
      "payable": true,
      "stateMutability": "payable",
      "type": "function"
    },
    {
      "constant": true,
      "inputs": [],
      "name": "valueInput",
      "outputs": [
        {
          "internalType": "uint256",
          "name": "",
          "type": "uint256"
        }
      ],
      "payable": false,
      "stateMutability": "view",
      "type": "function"
    },
    {
      "constant": true,
      "inputs": [],
      "name": "getBalance",
      "outputs": [
        {
          "internalType": "uint256",
          "name": "",
          "type": "uint256"
        }
      ],
      "payable": false,
      "stateMutability": "view",
      "type": "function"
    },
    {
      "constant": true,
      "inputs": [],
      "name": "getReward",
      "outputs": [
        {
          "internalType": "uint256",
          "name": "",
          "type": "uint256"
        }
      ],
      "payable": false,
      "stateMutability": "view",
      "type": "function"
    },
    {
      "constant": false,
      "inputs": [],
      "name": "depositFunds",
      "outputs": [
        {
          "internalType": "uint256",
          "name": "",
          "type": "uint256"
        }
      ],
      "payable": true,
      "stateMutability": "payable",
      "type": "function"
    }
  ],
  "bytecode": "0x6080604052336000806101000a81548173ffffffffffffffffffffffffffffffffffffffff021916908373ffffffffffffffffffffffffffffffffffffffff160217905550620000546200005a60201b60201c565b62001f83565b6000809050600062030d4090506200007b82600183620000cc60201b60201c565b507fc4dc360d0a9c0677a3379ae0a3d81e887f761e65fdf3d7e00859d1bcd3c47389604051808060200182810382526034815260200180620048596034913960400191505060405180910390a15050565b60008083118015620000df575060208311155b620000e957600080fd5b600a84029350606060016040519080825280601f01601f191660200182016040528015620001265781602001600182028038833980820191505090505b5090508360f81b816000815181106200013b57fe5b60200101907effffffffffffffffffffffffffffffffffffffffffffffffffffffffffffff1916908160001a905350606060206040519080825280601f01601f191660200182016040528015620001a15781602001600182028038833980820191505090505b509050606060206040519080825280601f01601f191660200182016040528015620001db5781602001600182028038833980820191505090505b5090506000620001f06200069f60201b60201c565b905060208352424118600143034018602084015260208252806020830152606060206040519080825280601f01601f191660200182016040528015620002455781602001600182028038833980820191505090505b509050886020820152606060086040519080825280601f01601f191660200182016040528015620002855781602001600182028038833980820191505090505b509050620002a08260186008846000620009db60201b60201c565b50620002ab62001e92565b60405180608001604052808781526020018881526020018681526020018481525090506000620003186040518060400160405280600681526020017f72616e646f6d0000000000000000000000000000000000000000000000000000815250838c62000a3d60201b60201c565b9050606060086040519080825280601f01601f191660200182016040528015620003515781602001600182028038833980820191505090505b50905060208401517f0100000000000000000000000000000000000000000000000000000000000000810460278301537e01000000000000000000000000000000000000000000000000000000000000810460268301537d010000000000000000000000000000000000000000000000000000000000810460258301537c0100000000000000000000000000000000000000000000000000000000810460248301537b01000000000000000000000000000000000000000000000000000000810460238301537a0100000000000000000000000000000000000000000000000000008104602283015379010000000000000000000000000000000000000000000000000081046021830153780100000000000000000000000000000000000000000000000081046020830153506200068c8282856001600481106200049257fe5b6020020151600287600060048110620004a757fe5b60200201516040518082805190602001908083835b60208310620004e15780518252602082019150602081019050602083039250620004bc565b6001836020036101000a038019825116818451168082178552505050505050905001915050602060405180830381855afa15801562000524573d6000803e3d6000fd5b5050506040513d60208110156200053a57600080fd5b8101908080519060200190929190505050876002600481106200055957fe5b60200201516040516020018085805190602001908083835b6020831062000596578051825260208201915060208101905060208303925062000571565b6001836020036101000a03801982511681845116808217855250505050505090500184805190602001908083835b60208310620005e95780518252602082019150602081019050602083039250620005c4565b6001836020036101000a03801982511681845116808217855250505050505090500183815260200182805190602001908083835b602083106200064257805182526020820191506020810190506020830392506200061d565b6001836020036101000a0380198251168184511680821785525050505050509050019450505050506040516020818303038152906040528051906020012062000dd760201b60201c565b8199505050505050505050509392505050565b60008073ffffffffffffffffffffffffffffffffffffffff16600260009054906101000a900473ffffffffffffffffffffffffffffffffffffffff1673ffffffffffffffffffffffffffffffffffffffff16148062000730575060006200072e600260009054906101000a900473ffffffffffffffffffffffffffffffffffffffff1662000df360201b60201c565b145b156200074a5762000748600062000dfe60201b60201c565b505b600260009054906101000a900473ffffffffffffffffffffffffffffffffffffffff1673ffffffffffffffffffffffffffffffffffffffff166338cc48316040518163ffffffff1660e01b8152600401602060405180830381600087803b158015620007b557600080fd5b505af1158015620007ca573d6000803e3d6000fd5b505050506040513d6020811015620007e157600080fd5b810190808051906020019092919050505073ffffffffffffffffffffffffffffffffffffffff16600160009054906101000a900473ffffffffffffffffffffffffffffffffffffffff1673ffffffffffffffffffffffffffffffffffffffff16146200093057600260009054906101000a900473ffffffffffffffffffffffffffffffffffffffff1673ffffffffffffffffffffffffffffffffffffffff166338cc48316040518163ffffffff1660e01b8152600401602060405180830381600087803b158015620008b257600080fd5b505af1158015620008c7573d6000803e3d6000fd5b505050506040513d6020811015620008de57600080fd5b8101908080519060200190929190505050600160006101000a81548173ffffffffffffffffffffffffffffffffffffffff021916908373ffffffffffffffffffffffffffffffffffffffff1602179055505b600160009054906101000a900473ffffffffffffffffffffffffffffffffffffffff1673ffffffffffffffffffffffffffffffffffffffff1663abaa5f3e6040518163ffffffff1660e01b815260040160206040518083038186803b1580156200099957600080fd5b505afa158015620009ae573d6000803e3d6000fd5b505050506040513d6020811015620009c557600080fd5b8101908080519060200190929190505050905090565b6060600082850190508084511015620009f357600080fd5b600086602001905060008460200190505b86886020010182101562000a2e578189015180828801525060208201915060208101905062000a04565b85935050505095945050505050565b60008073ffffffffffffffffffffffffffffffffffffffff16600260009054906101000a900473ffffffffffffffffffffffffffffffffffffffff1673ffffffffffffffffffffffffffffffffffffffff16148062000ace5750600062000acc600260009054906101000a900473ffffffffffffffffffffffffffffffffffffffff1662000df360201b60201c565b145b1562000ae85762000ae6600062000dfe60201b60201c565b505b600260009054906101000a900473ffffffffffffffffffffffffffffffffffffffff1673ffffffffffffffffffffffffffffffffffffffff166338cc48316040518163ffffffff1660e01b8152600401602060405180830381600087803b15801562000b5357600080fd5b505af115801562000b68573d6000803e3d6000fd5b505050506040513d602081101562000b7f57600080fd5b810190808051906020019092919050505073ffffffffffffffffffffffffffffffffffffffff16600160009054906101000a900473ffffffffffffffffffffffffffffffffffffffff1673ffffffffffffffffffffffffffffffffffffffff161462000cce57600260009054906101000a900473ffffffffffffffffffffffffffffffffffffffff1673ffffffffffffffffffffffffffffffffffffffff166338cc48316040518163ffffffff1660e01b8152600401602060405180830381600087803b15801562000c5057600080fd5b505af115801562000c65573d6000803e3d6000fd5b505050506040513d602081101562000c7c57600080fd5b8101908080519060200190929190505050600160006101000a81548173ffffffffffffffffffffffffffffffffffffffff021916908373ffffffffffffffffffffffffffffffffffffffff1602179055505b6060600460405190808252806020026020018201604052801562000d0757816020015b606081526020019060019003908162000cf15790505b5090508360006004811062000d1857fe5b60200201518160008151811062000d2b57fe5b60200260200101819052508360016004811062000d4457fe5b60200201518160018151811062000d5757fe5b60200260200101819052508360026004811062000d7057fe5b60200201518160028151811062000d8357fe5b60200260200101819052508360036004811062000d9c57fe5b60200201518160038151811062000daf57fe5b602002602001018190525062000dcd85828562000e1760201b60201c565b9150509392505050565b8060046000848152602001908152602001600020819055505050565b6000813b9050919050565b600062000e10620013af60201b60201c565b9050919050565b60008073ffffffffffffffffffffffffffffffffffffffff16600260009054906101000a900473ffffffffffffffffffffffffffffffffffffffff1673ffffffffffffffffffffffffffffffffffffffff16148062000ea85750600062000ea6600260009054906101000a900473ffffffffffffffffffffffffffffffffffffffff1662000df360201b60201c565b145b1562000ec25762000ec0600062000dfe60201b60201c565b505b600260009054906101000a900473ffffffffffffffffffffffffffffffffffffffff1673ffffffffffffffffffffffffffffffffffffffff166338cc48316040518163ffffffff1660e01b8152600401602060405180830381600087803b15801562000f2d57600080fd5b505af115801562000f42573d6000803e3d6000fd5b505050506040513d602081101562000f5957600080fd5b810190808051906020019092919050505073ffffffffffffffffffffffffffffffffffffffff16600160009054906101000a900473ffffffffffffffffffffffffffffffffffffffff1673ffffffffffffffffffffffffffffffffffffffff1614620010a857600260009054906101000a900473ffffffffffffffffffffffffffffffffffffffff1673ffffffffffffffffffffffffffffffffffffffff166338cc48316040518163ffffffff1660e01b8152600401602060405180830381600087803b1580156200102a57600080fd5b505af11580156200103f573d6000803e3d6000fd5b505050506040513d60208110156200105657600080fd5b8101908080519060200190929190505050600160006101000a81548173ffffffffffffffffffffffffffffffffffffffff021916908373ffffffffffffffffffffffffffffffffffffffff1602179055505b6000600160009054906101000a900473ffffffffffffffffffffffffffffffffffffffff1673ffffffffffffffffffffffffffffffffffffffff16632ef3accc86856040518363ffffffff1660e01b81526004018080602001838152602001828103825284818151815260200191508051906020019080838360005b838110156200114157808201518184015260208101905062001124565b50505050905090810190601f1680156200116f5780820380516001836020036101000a031916815260200191505b509350505050602060405180830381600087803b1580156200119057600080fd5b505af1158015620011a5573d6000803e3d6000fd5b505050506040513d6020811015620011bc57600080fd5b81019080805190602001909291905050509050823a02670de0b6b3a764000001811115620011f1576000801b915050620013a8565b606062001204856200197e60201b60201c565b9050600160009054906101000a900473ffffffffffffffffffffffffffffffffffffffff1673ffffffffffffffffffffffffffffffffffffffff1663c55c1cb68360008985896040518663ffffffff1660e01b8152600401808581526020018060200180602001848152602001838103835286818151815260200191508051906020019080838360005b83811015620012ab5780820151818401526020810190506200128e565b50505050905090810190601f168015620012d95780820380516001836020036101000a031916815260200191505b50838103825285818151815260200191508051906020019080838360005b8381101562001314578082015181840152602081019050620012f7565b50505050905090810190601f168015620013425780820380516001836020036101000a031916815260200191505b5096505050505050506020604051808303818588803b1580156200136557600080fd5b505af11580156200137a573d6000803e3d6000fd5b50505050506040513d60208110156200139257600080fd5b8101908080519060200190929190505050925050505b9392505050565b600080620013d7731d3b2638a7cc9f2cb3d298a3da7a90b67e5506ed62000df360201b60201c565b11156200148357731d3b2638a7cc9f2cb3d298a3da7a90b67e5506ed600260006101000a81548173ffffffffffffffffffffffffffffffffffffffff021916908373ffffffffffffffffffffffffffffffffffffffff160217905550620014796040518060400160405280600b81526020017f6574685f6d61696e6e657400000000000000000000000000000000000000000081525062001a3960201b60201c565b600190506200197b565b6000620014aa73c03a2615d5efaf5f49f60b7bb6583eaec212fdf162000df360201b60201c565b1115620015565773c03a2615d5efaf5f49f60b7bb6583eaec212fdf1600260006101000a81548173ffffffffffffffffffffffffffffffffffffffff021916908373ffffffffffffffffffffffffffffffffffffffff1602179055506200154c6040518060400160405280600c81526020017f6574685f726f707374656e33000000000000000000000000000000000000000081525062001a3960201b60201c565b600190506200197b565b60006200157d73b7a07bcf2ba2f2703b24c0691b5278999c59ac7e62000df360201b60201c565b1115620016295773b7a07bcf2ba2f2703b24c0691b5278999c59ac7e600260006101000a81548173ffffffffffffffffffffffffffffffffffffffff021916908373ffffffffffffffffffffffffffffffffffffffff1602179055506200161f6040518060400160405280600981526020017f6574685f6b6f76616e000000000000000000000000000000000000000000000081525062001a3960201b60201c565b600190506200197b565b60006200165073146500cfd35b22e4a392fe0adc06de1a1368ed4862000df360201b60201c565b1115620016fc5773146500cfd35b22e4a392fe0adc06de1a1368ed48600260006101000a81548173ffffffffffffffffffffffffffffffffffffffff021916908373ffffffffffffffffffffffffffffffffffffffff160217905550620016f26040518060400160405280600b81526020017f6574685f72696e6b65627900000000000000000000000000000000000000000081525062001a3960201b60201c565b600190506200197b565b60006200172373a2998efd205fb9d4b4963afb70778d6354ad3a4162000df360201b60201c565b1115620017cf5773a2998efd205fb9d4b4963afb70778d6354ad3a41600260006101000a81548173ffffffffffffffffffffffffffffffffffffffff021916908373ffffffffffffffffffffffffffffffffffffffff160217905550620017c56040518060400160405280600a81526020017f6574685f676f65726c690000000000000000000000000000000000000000000081525062001a3960201b60201c565b600190506200197b565b6000620017f6736f485c8bf6fc43ea212e93bbf8ce046c7f1cb47562000df360201b60201c565b11156200185c57736f485c8bf6fc43ea212e93bbf8ce046c7f1cb475600260006101000a81548173ffffffffffffffffffffffffffffffffffffffff021916908373ffffffffffffffffffffffffffffffffffffffff160217905550600190506200197b565b6000620018837320e12a1f859b3feae5fb2a0a32c18f5a65555bbf62000df360201b60201c565b1115620018e9577320e12a1f859b3feae5fb2a0a32c18f5a65555bbf600260006101000a81548173ffffffffffffffffffffffffffffffffffffffff021916908373ffffffffffffffffffffffffffffffffffffffff160217905550600190506200197b565b6000620019107351efaf4c8b3c9afbd5ab9f4bbc82784ab6ef8faa62000df360201b60201c565b111562001976577351efaf4c8b3c9afbd5ab9f4bbc82784ab6ef8faa600260006101000a81548173ffffffffffffffffffffffffffffffffffffffff021916908373ffffffffffffffffffffffffffffffffffffffff160217905550600190506200197b565b600090505b90565b60606200199062001a5560201b60201c565b6200199a62001eba565b620019b38161040062001a6160201b620023fa1760201c565b620019c98162001aae60201b620024441760201c565b60008090505b835181101562001a155762001a07848281518110620019ea57fe5b60200260200101518362001ac460201b620024521790919060201c565b8080600101915050620019cf565b5062001a2c8162001af860201b620024771760201c565b8060000151915050919050565b806003908051906020019062001a5192919062001ed4565b5050565b60405180590338823950565b600081905060006020828162001a7357fe5b061462001a8e576020818162001a8557fe5b06602003810190505b808360200181815250506040518084526000815281810160405250505050565b62001ac181600462001b0e60201b60201c565b50565b62001ad9826002835162001b3660201b60201c565b62001af3818362001cbe60201b620025e61790919060201c565b505050565b62001b0b81600762001b0e60201b60201c565b50565b62001b32601f60058360ff16901b178362001d7e60201b620026911790919060201c565b5050565b6017811162001b6b5762001b658160058460ff16901b60ff16178462001d7e60201b620026911790919060201c565b62001cb9565b60ff811162001bbc5762001b98601860058460ff16901b178462001d7e60201b620026911790919060201c565b62001bb58160018562001dc760201b620026d1179092919060201c565b5062001cb8565b61ffff811162001c0e5762001bea601960058460ff16901b178462001d7e60201b620026911790919060201c565b62001c078160028562001dc760201b620026d1179092919060201c565b5062001cb7565b63ffffffff811162001c625762001c3e601a60058460ff16901b178462001d7e60201b620026911790919060201c565b62001c5b8160048562001dc760201b620026d1179092919060201c565b5062001cb6565b67ffffffffffffffff811162001cb55762001c96601b60058460ff16901b178462001d7e60201b620026911790919060201c565b62001cb38160088562001dc760201b620026d1179092919060201c565b505b5b5b5b5b505050565b62001cc862001eba565b8260200151836000015151835101111562001d095762001d0883600262001cfb8660200151865162001e4160201b60201c565b0262001e5f60201b60201c565b5b60008060008451905085518051602081830101945086518101825260208701935050505b6020811062001d52578151835260208301925060208201915060208103905062001d2d565b60006001826020036101000a039050801983511681855116818117865250508694505050505092915050565b8160200151600183600001515101111562001dad5762001dac82600284602001510262001e5f60201b60201c565b5b815180516020818301018381536001820183525050505050565b62001dd162001eba565b83602001518460000151518301111562001e105762001e0f84600262001e0287602001518662001e4160201b60201c565b0262001e5f60201b60201c565b5b60006001836101000a0390508451805184818301018684198251161781528582018352505050849150509392505050565b60008183111562001e555782905062001e59565b8190505b92915050565b60608260000151905062001e7a838362001a6160201b60201c565b62001e8c838262001cbe60201b60201c565b50505050565b60405180608001604052806004905b606081526020019060019003908162001ea15790505090565b604051806040016040528060608152602001600081525090565b828054600181600116156101000203166002900490600052602060002090601f016020900481019282601f1062001f1757805160ff191683800117855562001f48565b8280016001018555821562001f48579182015b8281111562001f4757825182559160200191906001019062001f2a565b5b50905062001f57919062001f5b565b5090565b62001f8091905b8082111562001f7c57600081600090555060010162001f62565b5090565b90565b6128c68062001f936000396000f3fe6080604052600436106100915760003560e01c80638da5cb5b116100595780638da5cb5b1461035257806393e84cd9146103a9578063a2e62045146103b3578063dc34b0aa146103bd578063e2c41dbc146103e857610091565b806312065fe01461009657806327dc297e146100c157806338bbfa50146101935780633d18b912146102fc578063574ef12314610327575b600080fd5b3480156100a257600080fd5b506100ab610406565b6040518082815260200191505060405180910390f35b3480156100cd57600080fd5b50610191600480360360408110156100e457600080fd5b81019080803590602001909291908035906020019064010000000081111561010b57600080fd5b82018360208201111561011d57600080fd5b8035906020019184600183028401116401000000008311171561013f57600080fd5b91908080601f016020809104026020016040519081016040528093929190818152602001838380828437600081840152601f19601f820116905080830192505050505050509192919290505050610410565b005b34801561019f57600080fd5b506102fa600480360360608110156101b657600080fd5b8101908080359060200190929190803590602001906401000000008111156101dd57600080fd5b8201836020820111156101ef57600080fd5b8035906020019184600183028401116401000000008311171561021157600080fd5b91908080601f016020809104026020016040519081016040528093929190818152602001838380828437600081840152601f19601f8201169050808301925050505050505091929192908035906020019064010000000081111561027457600080fd5b82018360208201111561028657600080fd5b803590602001918460018302840111640100000000831117156102a857600080fd5b91908080601f016020809104026020016040519081016040528093929190818152602001838380828437600081840152601f19601f820116905080830192505050505050509192919290505050610453565b005b34801561030857600080fd5b50610311610559565b6040518082815260200191505060405180910390f35b34801561033357600080fd5b5061033c610563565b6040518082815260200191505060405180910390f35b34801561035e57600080fd5b5061036761056d565b604051808273ffffffffffffffffffffffffffffffffffffffff1673ffffffffffffffffffffffffffffffffffffffff16815260200191505060405180910390f35b6103b1610592565b005b6103bb610636565b005b3480156103c957600080fd5b506103d261069f565b6040518082815260200191505060405180910390f35b6103f06106a5565b6040518082815260200191505060405180910390f35b6000600754905090565b61044f828260006040519080825280601f01601f1916602001820160405280156104495781602001600182028038833980820191505090505b50610453565b5050565b61045b610718565b73ffffffffffffffffffffffffffffffffffffffff163373ffffffffffffffffffffffffffffffffffffffff161461049257600080fd5b60006064836040516020018082805190602001908083835b602083106104cd57805182526020820191506020810190506020830392506104aa565b6001836020036101000a0380198251168184511680821785525050505050509050019150506040516020818303038152906040528051906020012060001c8161051257fe5b069050806006819055507fc13d60fe9dffdb6908d2d446cd18134373a51db0738ee04f296eeb9128121cbc816040518082815260200191505060405180910390a150505050565b6000600a54905090565b6000600854905090565b6000809054906101000a900473ffffffffffffffffffffffffffffffffffffffff1681565b670de0b6b3a764000080341015610611576040517f08c379a00000000000000000000000000000000000000000000000000000000081526004018080602001828103825260158152602001807f4e656564206174206c656173742031303020576569000000000000000000000081525060200191505060405180910390fd5b34600860008282540192505081905550610629610a38565b50610632610a53565b5050565b6000809050600062030d40905061064f82600183610bd6565b507fc4dc360d0a9c0677a3379ae0a3d81e887f761e65fdf3d7e00859d1bcd3c4738960405180806020018281038252603481526020018061285e6034913960400191505060405180910390a15050565b60065481565b60008060009054906101000a900473ffffffffffffffffffffffffffffffffffffffff1673ffffffffffffffffffffffffffffffffffffffff163373ffffffffffffffffffffffffffffffffffffffff161461070057600080fd5b34600760008282540192505081905550600754905090565b60008073ffffffffffffffffffffffffffffffffffffffff16600260009054906101000a900473ffffffffffffffffffffffffffffffffffffffff1673ffffffffffffffffffffffffffffffffffffffff1614806107a05750600061079e600260009054906101000a900473ffffffffffffffffffffffffffffffffffffffff16611171565b145b156107b1576107af600061117c565b505b600260009054906101000a900473ffffffffffffffffffffffffffffffffffffffff1673ffffffffffffffffffffffffffffffffffffffff166338cc48316040518163ffffffff1660e01b8152600401602060405180830381600087803b15801561081b57600080fd5b505af115801561082f573d6000803e3d6000fd5b505050506040513d602081101561084557600080fd5b810190808051906020019092919050505073ffffffffffffffffffffffffffffffffffffffff16600160009054906101000a900473ffffffffffffffffffffffffffffffffffffffff1673ffffffffffffffffffffffffffffffffffffffff161461099057600260009054906101000a900473ffffffffffffffffffffffffffffffffffffffff1673ffffffffffffffffffffffffffffffffffffffff166338cc48316040518163ffffffff1660e01b8152600401602060405180830381600087803b15801561091457600080fd5b505af1158015610928573d6000803e3d6000fd5b505050506040513d602081101561093e57600080fd5b8101908080519060200190929190505050600160006101000a81548173ffffffffffffffffffffffffffffffffffffffff021916908373ffffffffffffffffffffffffffffffffffffffff1602179055505b600160009054906101000a900473ffffffffffffffffffffffffffffffffffffffff1673ffffffffffffffffffffffffffffffffffffffff1663c281d19e6040518163ffffffff1660e01b815260040160206040518083038186803b1580156109f857600080fd5b505afa158015610a0c573d6000803e3d6000fd5b505050506040513d6020811015610a2257600080fd5b8101908080519060200190929190505050905090565b600060024281610a4457fe5b06600981905550600954905090565b600060016009541415610b3d57600060026008540290503373ffffffffffffffffffffffffffffffffffffffff166108fc829081150290604051600060405180830381858888f19350505050158015610ab0573d6000803e3d6000fd5b506008546007600082825403925050819055507f7e7d5e50adfbb4e81427323125a4d6250cf27f8b49ff7305f48c9fcb4d2525ea816040518080602001838152602001828103825260088152602001807f596f7520776f6e200000000000000000000000000000000000000000000000008152506020019250505060405180910390a16000905050610bc2565b6008546007600082825401925050819055507fdbc743cebacba388691ee70a334a0faaee0490d78d1e3be2ba9081622471cdad6008546040518080602001838152602001828103825260098152602001807f596f75206c6f73742000000000000000000000000000000000000000000000008152506020019250505060405180910390a15b600854600a81905550600060088190555090565b60008083118015610be8575060208311155b610bf157600080fd5b600a84029350606060016040519080825280601f01601f191660200182016040528015610c2d5781602001600182028038833980820191505090505b5090508360f81b81600081518110610c4157fe5b60200101907effffffffffffffffffffffffffffffffffffffffffffffffffffffffffffff1916908160001a905350606060206040519080825280601f01601f191660200182016040528015610ca65781602001600182028038833980820191505090505b509050606060206040519080825280601f01601f191660200182016040528015610cdf5781602001600182028038833980820191505090505b5090506000610cec61118d565b905060208352424118600143034018602084015260208252806020830152606060206040519080825280601f01601f191660200182016040528015610d405781602001600182028038833980820191505090505b509050886020820152606060086040519080825280601f01601f191660200182016040528015610d7f5781602001600182028038833980820191505090505b509050610d9282601860088460006114ad565b50610d9b612777565b60405180608001604052808781526020018881526020018681526020018481525090506000610e006040518060400160405280600681526020017f72616e646f6d0000000000000000000000000000000000000000000000000000815250838c61150c565b9050606060086040519080825280601f01601f191660200182016040528015610e385781602001600182028038833980820191505090505b50905060208401517f0100000000000000000000000000000000000000000000000000000000000000810460278301537e01000000000000000000000000000000000000000000000000000000000000810460268301537d010000000000000000000000000000000000000000000000000000000000810460258301537c0100000000000000000000000000000000000000000000000000000000810460248301537b01000000000000000000000000000000000000000000000000000000810460238301537a01000000000000000000000000000000000000000000000000000081046022830153790100000000000000000000000000000000000000000000000000810460218301537801000000000000000000000000000000000000000000000000810460208301535061115e828285600160048110610f7757fe5b6020020151600287600060048110610f8b57fe5b60200201516040518082805190602001908083835b60208310610fc35780518252602082019150602081019050602083039250610fa0565b6001836020036101000a038019825116818451168082178552505050505050905001915050602060405180830381855afa158015611005573d6000803e3d6000fd5b5050506040513d602081101561101a57600080fd5b81019080805190602001909291905050508760026004811061103857fe5b60200201516040516020018085805190602001908083835b602083106110735780518252602082019150602081019050602083039250611050565b6001836020036101000a03801982511681845116808217855250505050505090500184805190602001908083835b602083106110c457805182526020820191506020810190506020830392506110a1565b6001836020036101000a03801982511681845116808217855250505050505090500183815260200182805190602001908083835b6020831061111b57805182526020820191506020810190506020830392506110f8565b6001836020036101000a0380198251168184511680821785525050505050509050019450505050506040516020818303038152906040528051906020012061187b565b8199505050505050505050509392505050565b6000813b9050919050565b6000611186611897565b9050919050565b60008073ffffffffffffffffffffffffffffffffffffffff16600260009054906101000a900473ffffffffffffffffffffffffffffffffffffffff1673ffffffffffffffffffffffffffffffffffffffff16148061121557506000611213600260009054906101000a900473ffffffffffffffffffffffffffffffffffffffff16611171565b145b1561122657611224600061117c565b505b600260009054906101000a900473ffffffffffffffffffffffffffffffffffffffff1673ffffffffffffffffffffffffffffffffffffffff166338cc48316040518163ffffffff1660e01b8152600401602060405180830381600087803b15801561129057600080fd5b505af11580156112a4573d6000803e3d6000fd5b505050506040513d60208110156112ba57600080fd5b810190808051906020019092919050505073ffffffffffffffffffffffffffffffffffffffff16600160009054906101000a900473ffffffffffffffffffffffffffffffffffffffff1673ffffffffffffffffffffffffffffffffffffffff161461140557600260009054906101000a900473ffffffffffffffffffffffffffffffffffffffff1673ffffffffffffffffffffffffffffffffffffffff166338cc48316040518163ffffffff1660e01b8152600401602060405180830381600087803b15801561138957600080fd5b505af115801561139d573d6000803e3d6000fd5b505050506040513d60208110156113b357600080fd5b8101908080519060200190929190505050600160006101000a81548173ffffffffffffffffffffffffffffffffffffffff021916908373ffffffffffffffffffffffffffffffffffffffff1602179055505b600160009054906101000a900473ffffffffffffffffffffffffffffffffffffffff1673ffffffffffffffffffffffffffffffffffffffff1663abaa5f3e6040518163ffffffff1660e01b815260040160206040518083038186803b15801561146d57600080fd5b505afa158015611481573d6000803e3d6000fd5b505050506040513d602081101561149757600080fd5b8101908080519060200190929190505050905090565b60606000828501905080845110156114c457600080fd5b600086602001905060008460200190505b8688602001018210156114fd57818901518082880152506020820191506020810190506114d5565b85935050505095945050505050565b60008073ffffffffffffffffffffffffffffffffffffffff16600260009054906101000a900473ffffffffffffffffffffffffffffffffffffffff1673ffffffffffffffffffffffffffffffffffffffff16148061159457506000611592600260009054906101000a900473ffffffffffffffffffffffffffffffffffffffff16611171565b145b156115a5576115a3600061117c565b505b600260009054906101000a900473ffffffffffffffffffffffffffffffffffffffff1673ffffffffffffffffffffffffffffffffffffffff166338cc48316040518163ffffffff1660e01b8152600401602060405180830381600087803b15801561160f57600080fd5b505af1158015611623573d6000803e3d6000fd5b505050506040513d602081101561163957600080fd5b810190808051906020019092919050505073ffffffffffffffffffffffffffffffffffffffff16600160009054906101000a900473ffffffffffffffffffffffffffffffffffffffff1673ffffffffffffffffffffffffffffffffffffffff161461178457600260009054906101000a900473ffffffffffffffffffffffffffffffffffffffff1673ffffffffffffffffffffffffffffffffffffffff166338cc48316040518163ffffffff1660e01b8152600401602060405180830381600087803b15801561170857600080fd5b505af115801561171c573d6000803e3d6000fd5b505050506040513d602081101561173257600080fd5b8101908080519060200190929190505050600160006101000a81548173ffffffffffffffffffffffffffffffffffffffff021916908373ffffffffffffffffffffffffffffffffffffffff1602179055505b606060046040519080825280602002602001820160405280156117bb57816020015b60608152602001906001900390816117a65790505b509050836000600481106117cb57fe5b6020020151816000815181106117dd57fe5b6020026020010181905250836001600481106117f557fe5b60200201518160018151811061180757fe5b60200260200101819052508360026004811061181f57fe5b60200201518160028151811061183157fe5b60200260200101819052508360036004811061184957fe5b60200201518160038151811061185b57fe5b6020026020010181905250611871858285611dee565b9150509392505050565b8060046000848152602001908152602001600020819055505050565b6000806118b7731d3b2638a7cc9f2cb3d298a3da7a90b67e5506ed611171565b111561195957731d3b2638a7cc9f2cb3d298a3da7a90b67e5506ed600260006101000a81548173ffffffffffffffffffffffffffffffffffffffff021916908373ffffffffffffffffffffffffffffffffffffffff1602179055506119506040518060400160405280600b81526020017f6574685f6d61696e6e6574000000000000000000000000000000000000000000815250612354565b60019050611deb565b600061197873c03a2615d5efaf5f49f60b7bb6583eaec212fdf1611171565b1115611a1a5773c03a2615d5efaf5f49f60b7bb6583eaec212fdf1600260006101000a81548173ffffffffffffffffffffffffffffffffffffffff021916908373ffffffffffffffffffffffffffffffffffffffff160217905550611a116040518060400160405280600c81526020017f6574685f726f707374656e330000000000000000000000000000000000000000815250612354565b60019050611deb565b6000611a3973b7a07bcf2ba2f2703b24c0691b5278999c59ac7e611171565b1115611adb5773b7a07bcf2ba2f2703b24c0691b5278999c59ac7e600260006101000a81548173ffffffffffffffffffffffffffffffffffffffff021916908373ffffffffffffffffffffffffffffffffffffffff160217905550611ad26040518060400160405280600981526020017f6574685f6b6f76616e0000000000000000000000000000000000000000000000815250612354565b60019050611deb565b6000611afa73146500cfd35b22e4a392fe0adc06de1a1368ed48611171565b1115611b9c5773146500cfd35b22e4a392fe0adc06de1a1368ed48600260006101000a81548173ffffffffffffffffffffffffffffffffffffffff021916908373ffffffffffffffffffffffffffffffffffffffff160217905550611b936040518060400160405280600b81526020017f6574685f72696e6b656279000000000000000000000000000000000000000000815250612354565b60019050611deb565b6000611bbb73a2998efd205fb9d4b4963afb70778d6354ad3a41611171565b1115611c5d5773a2998efd205fb9d4b4963afb70778d6354ad3a41600260006101000a81548173ffffffffffffffffffffffffffffffffffffffff021916908373ffffffffffffffffffffffffffffffffffffffff160217905550611c546040518060400160405280600a81526020017f6574685f676f65726c6900000000000000000000000000000000000000000000815250612354565b60019050611deb565b6000611c7c736f485c8bf6fc43ea212e93bbf8ce046c7f1cb475611171565b1115611ce057736f485c8bf6fc43ea212e93bbf8ce046c7f1cb475600260006101000a81548173ffffffffffffffffffffffffffffffffffffffff021916908373ffffffffffffffffffffffffffffffffffffffff16021790555060019050611deb565b6000611cff7320e12a1f859b3feae5fb2a0a32c18f5a65555bbf611171565b1115611d63577320e12a1f859b3feae5fb2a0a32c18f5a65555bbf600260006101000a81548173ffffffffffffffffffffffffffffffffffffffff021916908373ffffffffffffffffffffffffffffffffffffffff16021790555060019050611deb565b6000611d827351efaf4c8b3c9afbd5ab9f4bbc82784ab6ef8faa611171565b1115611de6577351efaf4c8b3c9afbd5ab9f4bbc82784ab6ef8faa600260006101000a81548173ffffffffffffffffffffffffffffffffffffffff021916908373ffffffffffffffffffffffffffffffffffffffff16021790555060019050611deb565b600090505b90565b60008073ffffffffffffffffffffffffffffffffffffffff16600260009054906101000a900473ffffffffffffffffffffffffffffffffffffffff1673ffffffffffffffffffffffffffffffffffffffff161480611e7657506000611e74600260009054906101000a900473ffffffffffffffffffffffffffffffffffffffff16611171565b145b15611e8757611e85600061117c565b505b600260009054906101000a900473ffffffffffffffffffffffffffffffffffffffff1673ffffffffffffffffffffffffffffffffffffffff166338cc48316040518163ffffffff1660e01b8152600401602060405180830381600087803b158015611ef157600080fd5b505af1158015611f05573d6000803e3d6000fd5b505050506040513d6020811015611f1b57600080fd5b810190808051906020019092919050505073ffffffffffffffffffffffffffffffffffffffff16600160009054906101000a900473ffffffffffffffffffffffffffffffffffffffff1673ffffffffffffffffffffffffffffffffffffffff161461206657600260009054906101000a900473ffffffffffffffffffffffffffffffffffffffff1673ffffffffffffffffffffffffffffffffffffffff166338cc48316040518163ffffffff1660e01b8152600401602060405180830381600087803b158015611fea57600080fd5b505af1158015611ffe573d6000803e3d6000fd5b505050506040513d602081101561201457600080fd5b8101908080519060200190929190505050600160006101000a81548173ffffffffffffffffffffffffffffffffffffffff021916908373ffffffffffffffffffffffffffffffffffffffff1602179055505b6000600160009054906101000a900473ffffffffffffffffffffffffffffffffffffffff1673ffffffffffffffffffffffffffffffffffffffff16632ef3accc86856040518363ffffffff1660e01b81526004018080602001838152602001828103825284818151815260200191508051906020019080838360005b838110156120fd5780820151818401526020810190506120e2565b50505050905090810190601f16801561212a5780820380516001836020036101000a031916815260200191505b509350505050602060405180830381600087803b15801561214a57600080fd5b505af115801561215e573d6000803e3d6000fd5b505050506040513d602081101561217457600080fd5b81019080805190602001909291905050509050823a02670de0b6b3a7640000018111156121a7576000801b91505061234d565b60606121b28561236e565b9050600160009054906101000a900473ffffffffffffffffffffffffffffffffffffffff1673ffffffffffffffffffffffffffffffffffffffff1663c55c1cb68360008985896040518663ffffffff1660e01b8152600401808581526020018060200180602001848152602001838103835286818151815260200191508051906020019080838360005b8381101561225757808201518184015260208101905061223c565b50505050905090810190601f1680156122845780820380516001836020036101000a031916815260200191505b50838103825285818151815260200191508051906020019080838360005b838110156122bd5780820151818401526020810190506122a2565b50505050905090810190601f1680156122ea5780820380516001836020036101000a031916815260200191505b5096505050505050506020604051808303818588803b15801561230c57600080fd5b505af1158015612320573d6000803e3d6000fd5b50505050506040513d602081101561233757600080fd5b8101908080519060200190929190505050925050505b9392505050565b806003908051906020019061236a92919061279e565b5050565b60606123786123ee565b61238061281e565b61238c816104006123fa565b61239581612444565b60008090505b83518110156123d7576123ca8482815181106123b357fe5b60200260200101518361245290919063ffffffff16565b808060010191505061239b565b506123e181612477565b8060000151915050919050565b60405180590338823950565b600081905060006020828161240b57fe5b0614612424576020818161241b57fe5b06602003810190505b808360200181815250506040518084526000815281810160405250505050565b61244f816004612485565b50565b61245f82600283516124a6565b61247281836125e690919063ffffffff16565b505050565b612482816007612485565b50565b6124a2601f60058360ff16901b178361269190919063ffffffff16565b5050565b601781116124d2576124cd8160058460ff16901b60ff16178461269190919063ffffffff16565b6125e1565b60ff8111612513576124f7601860058460ff16901b178461269190919063ffffffff16565b61250d816001856126d19092919063ffffffff16565b506125e0565b61ffff811161255557612539601960058460ff16901b178461269190919063ffffffff16565b61254f816002856126d19092919063ffffffff16565b506125df565b63ffffffff81116125995761257d601a60058460ff16901b178461269190919063ffffffff16565b612593816004856126d19092919063ffffffff16565b506125de565b67ffffffffffffffff81116125dd576125c5601b60058460ff16901b178461269190919063ffffffff16565b6125db816008856126d19092919063ffffffff16565b505b5b5b5b5b505050565b6125ee61281e565b8260200151836000015151835101111561261e5761261d83600261261786602001518651612738565b02612754565b5b60008060008451905085518051602081830101945086518101825260208701935050505b602081106126655781518352602083019250602082019150602081039050612642565b60006001826020036101000a039050801983511681855116818117865250508694505050505092915050565b816020015160018360000151510111156126b7576126b6826002846020015102612754565b5b815180516020818301018381536001820183525050505050565b6126d961281e565b83602001518460000151518301111561270757612706846002612700876020015186612738565b02612754565b5b60006001836101000a0390508451805184818301018684198251161781528582018352505050849150509392505050565b60008183111561274a5782905061274e565b8190505b92915050565b60608260000151905061276783836123fa565b61277183826125e6565b50505050565b60405180608001604052806004905b60608152602001906001900390816127865790505090565b828054600181600116156101000203166002900490600052602060002090601f016020900481019282601f106127df57805160ff191683800117855561280d565b8280016001018555821561280d579182015b8281111561280c5782518255916020019190600101906127f1565b5b50905061281a9190612838565b5090565b604051806040016040528060608152602001600081525090565b61285a91905b8082111561285657600081600090555060010161283e565b5090565b9056fe50726f7661626c65207175657279207761732073656e742c207374616e64696e6720627920666f722074686520616e737765722ea265627a7a7231582024a642112902e3825c58fcee5af97e055a69466fd64497ac69deb987c6b01eb464736f6c634300050c003250726f7661626c65207175657279207761732073656e742c207374616e64696e6720627920666f722074686520616e737765722e",
  "source": "pragma solidity >=0.5.12 < 0.6.0;\r\nimport \"./Owner.sol\";\r\nimport \"./provableAPI.sol\";\r\nimport \"./oracle.sol\";\r\n\r\n\r\ncontract CoinFlip is Ownable, usingProvable, oracle{\r\n\r\n\r\n    uint internal balance;\r\n    uint internal betAmount;\r\n    uint internal result;\r\n    uint internal reward;\r\n\r\n\r\n    event youWin (string, uint);\r\n    event youLose(string, uint);\r\n\r\n  //  address player;\r\n\r\n\r\n\r\n     modifier costs(uint cost){\r\n        require(msg.value >= cost, \"Need at least 100 Wei\");\r\n        _;\r\n\r\n\r\n    }\r\n\r\n\r\n    function play()public payable costs(1 ether){\r\n        betAmount += msg.value;\r\n       // reward += msg.value;\r\n\r\n\r\n        random();\r\n        winOrLose();\r\n\r\n\r\n\r\n    }\r\n\r\n    function valueInput()public view returns(uint){\r\n\r\n        return betAmount;\r\n\r\n    }\r\n\r\n  /*  function initialBalance() public payable{\r\n      balance = msg.value;\r\n     */\r\n\r\n    //random function()\r\n    function random() internal returns(uint){\r\n\r\n            result = now % 2;\r\n        return result;\r\n\r\n    }\r\n\r\n    function winOrLose() internal returns (uint){\r\n        if (result == 1){\r\n            //pay player\r\n            uint toReward = betAmount*2;\r\n\r\n            msg.sender.transfer(toReward);\r\n            balance -= betAmount;\r\n\r\n            emit youWin(\"You won \", toReward);\r\n            toReward  =0;\r\n        }\r\n\r\n        else {\r\n            //keep money\r\n            balance += betAmount;\r\n            emit youLose(\"You lost \", betAmount);\r\n        }\r\n\r\n        reward = betAmount;\r\n        betAmount =0;\r\n    }\r\n\r\n    function getBalance() public view returns(uint){\r\n        return balance;\r\n\r\n    }\r\n\r\n    function getReward() public view returns(uint){\r\n        return reward;\r\n    }\r\n\r\n    function depositFunds() public onlyOwner payable returns(uint){\r\n      balance += msg.value;\r\n      return balance;\r\n\r\n    }\r\n\r\n\r\n\r\n\r\n}\r\n",
  "sourcePath": "D:\\Users\\victo\\Desktop\\Crypto Programming\\Ethereum\\Coinflip\\contracts\\CoinFlip.sol",
  "compiler": {
    "name": "solc",
    "version": "0.5.12+commit.7709ece9.Emscripten.clang"
  },
  "schemaVersion": "3.0.23",
  "updatedAt": "2020-10-24T08:39:12.754Z",
  "devdoc": {
    "methods": {
      "__callback(bytes32,string)": {
        "details": "The following `__callback` functions are just placeholders ideally     meant to be defined in child contract when proofs are used.     The function bodies simply silence compiler warnings."
      }
    }
  },
  "userdoc": {
    "methods": {}
  }
}