{
  "contractName": "CoinFlip",
  "abi": [
    {
      "anonymous": false,
      "inputs": [
        {
          "indexed": false,
          "internalType": "string",
          "name": "description",
          "type": "string"
        }
      ],
      "name": "LogNewProvableQuery",
      "type": "event"
    },
    {
      "anonymous": false,
      "inputs": [
        {
          "indexed": false,
          "internalType": "uint256",
          "name": "",
          "type": "uint256"
        }
      ],
      "name": "checkBalance",
      "type": "event"
    },
    {
      "anonymous": false,
      "inputs": [
        {
          "indexed": false,
          "internalType": "uint256",
          "name": "",
          "type": "uint256"
        },
        {
          "indexed": false,
          "internalType": "uint256",
          "name": "",
          "type": "uint256"
        }
      ],
      "name": "checkBalance",
      "type": "event"
    },
    {
      "anonymous": false,
      "inputs": [
        {
          "indexed": false,
          "internalType": "string",
          "name": "",
          "type": "string"
        },
        {
          "indexed": false,
          "internalType": "uint256",
          "name": "",
          "type": "uint256"
        }
      ],
      "name": "checkIfBetIsCorrect",
      "type": "event"
    },
    {
      "anonymous": false,
      "inputs": [
        {
          "indexed": false,
          "internalType": "string",
          "name": "whatHappened",
          "type": "string"
        },
        {
          "indexed": false,
          "internalType": "uint256",
          "name": "funds",
          "type": "uint256"
        }
      ],
      "name": "depositedFunds",
      "type": "event"
    },
    {
      "anonymous": false,
      "inputs": [
        {
          "indexed": false,
          "internalType": "uint256",
          "name": "randomNumber",
          "type": "uint256"
        }
      ],
      "name": "generatedRandomNumber",
      "type": "event"
    },
    {
      "anonymous": false,
      "inputs": [
        {
          "indexed": false,
          "internalType": "string",
          "name": "a",
          "type": "string"
        },
        {
          "indexed": false,
          "internalType": "bytes32",
          "name": "q_id",
          "type": "bytes32"
        }
      ],
      "name": "idCheck",
      "type": "event"
    },
    {
      "anonymous": false,
      "inputs": [
        {
          "indexed": false,
          "internalType": "string",
          "name": "whatHappened",
          "type": "string"
        },
        {
          "indexed": false,
          "internalType": "uint256",
          "name": "funds",
          "type": "uint256"
        }
      ],
      "name": "withDrewFunds",
      "type": "event"
    },
    {
      "anonymous": false,
      "inputs": [
        {
          "indexed": false,
          "internalType": "string",
          "name": "",
          "type": "string"
        },
        {
          "indexed": false,
          "internalType": "uint256",
          "name": "",
          "type": "uint256"
        }
      ],
      "name": "youLose",
      "type": "event"
    },
    {
      "anonymous": false,
      "inputs": [
        {
          "indexed": false,
          "internalType": "string",
          "name": "",
          "type": "string"
        },
        {
          "indexed": false,
          "internalType": "uint256",
          "name": "",
          "type": "uint256"
        }
      ],
      "name": "youWin",
      "type": "event"
    },
    {
      "constant": false,
      "inputs": [
        {
          "internalType": "bytes32",
          "name": "_myid",
          "type": "bytes32"
        },
        {
          "internalType": "string",
          "name": "_result",
          "type": "string"
        }
      ],
      "name": "__callback",
      "outputs": [],
      "payable": false,
      "stateMutability": "nonpayable",
      "type": "function"
    },
    {
      "constant": false,
      "inputs": [
        {
          "internalType": "bytes32",
          "name": "_queryId",
          "type": "bytes32"
        },
        {
          "internalType": "string",
          "name": "_result",
          "type": "string"
        },
        {
          "internalType": "bytes",
          "name": "_proof",
          "type": "bytes"
        }
      ],
      "name": "__callback",
      "outputs": [],
      "payable": false,
      "stateMutability": "nonpayable",
      "type": "function"
    },
    {
      "constant": true,
      "inputs": [],
      "name": "balance",
      "outputs": [
        {
          "internalType": "uint256",
          "name": "",
          "type": "uint256"
        }
      ],
      "payable": false,
      "stateMutability": "view",
      "type": "function"
    },
    {
      "constant": false,
      "inputs": [],
      "name": "createPlayer",
      "outputs": [],
      "payable": true,
      "stateMutability": "payable",
      "type": "function"
    },
    {
      "constant": false,
      "inputs": [
        {
          "internalType": "address payable",
          "name": "n_punter",
          "type": "address"
        },
        {
          "internalType": "uint256",
          "name": "_betAmount",
          "type": "uint256"
        },
        {
          "internalType": "bytes32",
          "name": "q_id",
          "type": "bytes32"
        }
      ],
      "name": "fillPlayerInfo",
      "outputs": [],
      "payable": true,
      "stateMutability": "payable",
      "type": "function"
    },
    {
      "constant": false,
      "inputs": [],
      "name": "getPunterBalance",
      "outputs": [
        {
          "internalType": "uint256",
          "name": "",
          "type": "uint256"
        }
      ],
      "payable": false,
      "stateMutability": "nonpayable",
      "type": "function"
    },
    {
      "constant": true,
      "inputs": [],
      "name": "latestNumber",
      "outputs": [
        {
          "internalType": "uint256",
          "name": "",
          "type": "uint256"
        }
      ],
      "payable": false,
      "stateMutability": "view",
      "type": "function"
    },
    {
      "constant": true,
      "inputs": [],
      "name": "owner",
      "outputs": [
        {
          "internalType": "address",
          "name": "",
          "type": "address"
        }
      ],
      "payable": false,
      "stateMutability": "view",
      "type": "function"
    },
    {
      "constant": false,
      "inputs": [
        {
          "internalType": "address payable",
          "name": "n_punter",
          "type": "address"
        },
        {
          "internalType": "uint256",
          "name": "_betAmount",
          "type": "uint256"
        }
      ],
      "name": "payPunter",
      "outputs": [],
      "payable": true,
      "stateMutability": "payable",
      "type": "function"
    },
    {
      "constant": false,
      "inputs": [
        {
          "internalType": "address",
          "name": "punter",
          "type": "address"
        },
        {
          "internalType": "uint256",
          "name": "_betAmount",
          "type": "uint256"
        }
      ],
      "name": "random",
      "outputs": [],
      "payable": true,
      "stateMutability": "payable",
      "type": "function"
    },
    {
      "constant": false,
      "inputs": [
        {
          "internalType": "uint256",
          "name": "numberCalled",
          "type": "uint256"
        },
        {
          "internalType": "bytes32",
          "name": "q_id",
          "type": "bytes32"
        }
      ],
      "name": "saveResults",
      "outputs": [],
      "payable": false,
      "stateMutability": "nonpayable",
      "type": "function"
    },
    {
      "constant": false,
      "inputs": [],
      "name": "withdrawContractBalance",
      "outputs": [
        {
          "internalType": "uint256",
          "name": "",
          "type": "uint256"
        }
      ],
      "payable": false,
      "stateMutability": "nonpayable",
      "type": "function"
    },
    {
      "constant": false,
      "inputs": [],
      "name": "withdrawPunterBalance",
      "outputs": [
        {
          "internalType": "uint256",
          "name": "",
          "type": "uint256"
        }
      ],
      "payable": false,
      "stateMutability": "nonpayable",
      "type": "function"
    },
    {
      "constant": false,
      "inputs": [],
      "name": "depositFunds",
      "outputs": [
        {
          "internalType": "uint256",
          "name": "",
          "type": "uint256"
        }
      ],
      "payable": true,
      "stateMutability": "payable",
      "type": "function"
    },
    {
      "constant": false,
      "inputs": [
        {
          "internalType": "uint256",
          "name": "betAmount",
          "type": "uint256"
        }
      ],
      "name": "placeBet",
      "outputs": [],
      "payable": true,
      "stateMutability": "payable",
      "type": "function"
    }
  ],
  "bytecode": "0x608060405233600560006101000a81548173ffffffffffffffffffffffffffffffffffffffff021916908373ffffffffffffffffffffffffffffffffffffffff1602179055506136ac806100546000396000f3fe6080604052600436106100e85760003560e01c80637be8af901161008a578063bfab3db911610059578063bfab3db91461052c578063d79f5ec514610557578063dc34b0aa1461059c578063e2c41dbc146105c7576100e8565b80637be8af901461040e5780638da5cb5b1461045c578063a35bfd21146104b3578063b69ef8a814610501576100e8565b806338bbfa50116100c657806338bbfa50146102185780633fa9fcf8146103815780634ff540d41461038b5780635aa81139146103b6576100e8565b806310fe7c48146100ed57806327dc297e1461011b57806332a1b764146101ed575b600080fd5b6101196004803603602081101561010357600080fd5b81019080803590602001909291905050506105e5565b005b34801561012757600080fd5b506101eb6004803603604081101561013e57600080fd5b81019080803590602001909291908035906020019064010000000081111561016557600080fd5b82018360208201111561017757600080fd5b8035906020019184600183028401116401000000008311171561019957600080fd5b91908080601f016020809104026020016040519081016040528093929190818152602001838380828437600081840152601f19601f820116905080830192505050505050509192919290505050610880565b005b3480156101f957600080fd5b506102026108c3565b6040518082815260200191505060405180910390f35b34801561022457600080fd5b5061037f6004803603606081101561023b57600080fd5b81019080803590602001909291908035906020019064010000000081111561026257600080fd5b82018360208201111561027457600080fd5b8035906020019184600183028401116401000000008311171561029657600080fd5b91908080601f016020809104026020016040519081016040528093929190818152602001838380828437600081840152601f19601f820116905080830192505050505050509192919290803590602001906401000000008111156102f957600080fd5b82018360208201111561030b57600080fd5b8035906020019184600183028401116401000000008311171561032d57600080fd5b91908080601f016020809104026020016040519081016040528093929190818152602001838380828437600081840152601f19601f820116905080830192505050505050509192919290505050610a50565b005b610389610bdb565b005b34801561039757600080fd5b506103a0610ce7565b6040518082815260200191505060405180910390f35b61040c600480360360608110156103cc57600080fd5b81019080803573ffffffffffffffffffffffffffffffffffffffff1690602001909291908035906020019092919080359060200190929190505050610df4565b005b61045a6004803603604081101561042457600080fd5b81019080803573ffffffffffffffffffffffffffffffffffffffff16906020019092919080359060200190929190505050610f93565b005b34801561046857600080fd5b50610471610fe7565b604051808273ffffffffffffffffffffffffffffffffffffffff1673ffffffffffffffffffffffffffffffffffffffff16815260200191505060405180910390f35b6104ff600480360360408110156104c957600080fd5b81019080803573ffffffffffffffffffffffffffffffffffffffff1690602001909291908035906020019092919050505061100d565b005b34801561050d57600080fd5b506105166110fa565b6040518082815260200191505060405180910390f35b34801561053857600080fd5b50610541611100565b6040518082815260200191505060405180910390f35b34801561056357600080fd5b5061059a6004803603604081101561057a57600080fd5b8101908080359060200190929190803590602001909291905050506111b9565b005b3480156105a857600080fd5b506105b1611256565b6040518082815260200191505060405180910390f35b6105cf61125c565b6040518082815260200191505060405180910390f35b6127108034101561065e576040517f08c379a00000000000000000000000000000000000000000000000000000000081526004018080602001828103825260178152602001807f4e656564206174206c6561737420302e3120737a61626f00000000000000000081525060200191505060405180910390fd5b66038d7ea4c6800082029150600960003373ffffffffffffffffffffffffffffffffffffffff1673ffffffffffffffffffffffffffffffffffffffff16815260200190815260200160002060010154600c819055506000600960003373ffffffffffffffffffffffffffffffffffffffff1673ffffffffffffffffffffffffffffffffffffffff168152602001908152602001600020600101541180156107475750600960003373ffffffffffffffffffffffffffffffffffffffff1673ffffffffffffffffffffffffffffffffffffffff168152602001908152602001600020600101548210155b1561076457600c548203600d819055506000600c8190555061081b565b6000600960003373ffffffffffffffffffffffffffffffffffffffff1673ffffffffffffffffffffffffffffffffffffffff168152602001908152602001600020600101541180156107f75750600960003373ffffffffffffffffffffffffffffffffffffffff1673ffffffffffffffffffffffffffffffffffffffff1681526020019081526020016000206001015482105b1561081a5781600c5403600d81905550600d54600c600082825403925050819055505b5b61082733600d5461100d565b7f23f0e69628915e8fb8a89f2a6a2ec30e1ce0bdf0425ba6047a868902718b9f38600c54604051808060200183815260200182810382526023815260200180613621602391396040019250505060405180910390a15050565b6108bf828260006040519080825280601f01601f1916602001820160405280156108b95781602001600182028038833980820191505090505b50610a50565b5050565b600080600960003373ffffffffffffffffffffffffffffffffffffffff1673ffffffffffffffffffffffffffffffffffffffff1681526020019081526020016000206001015490507fb471f40a10881404b70a4f7819c075d0ae5fec92ae9454b1ccdad5c0fe9a6ab28182604051808381526020018281526020019250505060405180910390a16000600960003373ffffffffffffffffffffffffffffffffffffffff1673ffffffffffffffffffffffffffffffffffffffff168152602001908152602001600020600101819055503373ffffffffffffffffffffffffffffffffffffffff166108fc829081150290604051600060405180830381858888f193505050501580156109d8573d6000803e3d6000fd5b507f888f4fb33f1429a5c0e82c8ca8b08617833224470b7efbaf5cb4d0b00e695e658160405180806020018381526020018281038252600d8152602001807f596f7520776974686472657720000000000000000000000000000000000000008152506020019250505060405180910390a18091505090565b610a586112d0565b73ffffffffffffffffffffffffffffffffffffffff163373ffffffffffffffffffffffffffffffffffffffff1614610a8f57600080fd5b6000600760008581526020019081526020016000206002015490506000600a600086815260200190815260200160002060009054906101000a900473ffffffffffffffffffffffffffffffffffffffff16905060006002856040516020018082805190602001908083835b60208310610b1d5780518252602082019150602081019050602083039250610afa565b6001836020036101000a0380198251168184511680821785525050505050509050019150506040516020818303038152906040528051906020012060001c81610b6257fe5b06905080600b819055507fc13d60fe9dffdb6908d2d446cd18134373a51db0738ee04f296eeb9128121cbc816040518082815260200191505060405180910390a1610baf600b54876111b9565b610bb8866115ed565b506007600087815260200190815260200160002060020160009055505050505050565b610be3613497565b33816000019073ffffffffffffffffffffffffffffffffffffffff16908173ffffffffffffffffffffffffffffffffffffffff1681525050600081602001818152505080600960003373ffffffffffffffffffffffffffffffffffffffff1673ffffffffffffffffffffffffffffffffffffffff16815260200190815260200160002060008201518160000160006101000a81548173ffffffffffffffffffffffffffffffffffffffff021916908373ffffffffffffffffffffffffffffffffffffffff160217905550602082015181600101556040820151816002015560608201518160030160006101000a81548160ff02191690831515021790555090505050565b60007fb471f40a10881404b70a4f7819c075d0ae5fec92ae9454b1ccdad5c0fe9a6ab2600960003373ffffffffffffffffffffffffffffffffffffffff1673ffffffffffffffffffffffffffffffffffffffff16815260200190815260200160002060010154600960003373ffffffffffffffffffffffffffffffffffffffff1673ffffffffffffffffffffffffffffffffffffffff16815260200190815260200160002060010154604051808381526020018281526020019250505060405180910390a1600960003373ffffffffffffffffffffffffffffffffffffffff1673ffffffffffffffffffffffffffffffffffffffff16815260200190815260200160002060010154905090565b33600a600083815260200190815260200160002060006101000a81548173ffffffffffffffffffffffffffffffffffffffff021916908373ffffffffffffffffffffffffffffffffffffffff16021790555082600960008573ffffffffffffffffffffffffffffffffffffffff1673ffffffffffffffffffffffffffffffffffffffff16815260200190815260200160002060000160006101000a81548173ffffffffffffffffffffffffffffffffffffffff021916908373ffffffffffffffffffffffffffffffffffffffff160217905550610ecf6134da565b83816000019073ffffffffffffffffffffffffffffffffffffffff16908173ffffffffffffffffffffffffffffffffffffffff16815250508281602001818152505081816040018181525050806007600084815260200190815260200160002060008201518160000160006101000a81548173ffffffffffffffffffffffffffffffffffffffff021916908373ffffffffffffffffffffffffffffffffffffffff160217905550602082015181600101556040820151816002015590505050505050565b80600960008473ffffffffffffffffffffffffffffffffffffffff1673ffffffffffffffffffffffffffffffffffffffff168152602001908152602001600020600101600082825401925050819055505050565b600560009054906101000a900473ffffffffffffffffffffffffffffffffffffffff1681565b6000809050600062030d4090506000611028836001846118ff565b9050349350611038338583610df4565b7f5e35a070670d9d1b09ecfeeae77ca75380c3bf10808c2cc6ae99b217977e09bd816040518080602001838152602001828103825260178152602001807f546865204944206f6620746869732063616c6c206973200000000000000000008152506020019250505060405180910390a17fc4dc360d0a9c0677a3379ae0a3d81e887f761e65fdf3d7e00859d1bcd3c473896040518080602001828103825260348152602001806136446034913960400191505060405180910390a15050505050565b60065481565b6000600560009054906101000a900473ffffffffffffffffffffffffffffffffffffffff1673ffffffffffffffffffffffffffffffffffffffff163373ffffffffffffffffffffffffffffffffffffffff161461115c57600080fd5b6000600654905060006006819055503373ffffffffffffffffffffffffffffffffffffffff166108fc829081150290604051600060405180830381858888f193505050501580156111b1573d6000803e3d6000fd5b508091505090565b6111c1613514565b828160000181815250508181604001818152505060018314156111f4576001816020019015159081151581525050611206565b60008160200190151590811515815250505b80600860008481526020019081526020016000206000820151816000015560208201518160010160006101000a81548160ff02191690831515021790555060408201518160020155905050505050565b600b5481565b6000600560009054906101000a900473ffffffffffffffffffffffffffffffffffffffff1673ffffffffffffffffffffffffffffffffffffffff163373ffffffffffffffffffffffffffffffffffffffff16146112b857600080fd5b34600660008282540192505081905550600654905090565b60008073ffffffffffffffffffffffffffffffffffffffff16600160009054906101000a900473ffffffffffffffffffffffffffffffffffffffff1673ffffffffffffffffffffffffffffffffffffffff16148061135857506000611356600160009054906101000a900473ffffffffffffffffffffffffffffffffffffffff16611e9a565b145b15611369576113676000611ea5565b505b600160009054906101000a900473ffffffffffffffffffffffffffffffffffffffff1673ffffffffffffffffffffffffffffffffffffffff166338cc48316040518163ffffffff1660e01b8152600401602060405180830381600087803b1580156113d357600080fd5b505af11580156113e7573d6000803e3d6000fd5b505050506040513d60208110156113fd57600080fd5b810190808051906020019092919050505073ffffffffffffffffffffffffffffffffffffffff166000809054906101000a900473ffffffffffffffffffffffffffffffffffffffff1673ffffffffffffffffffffffffffffffffffffffff161461154657600160009054906101000a900473ffffffffffffffffffffffffffffffffffffffff1673ffffffffffffffffffffffffffffffffffffffff166338cc48316040518163ffffffff1660e01b8152600401602060405180830381600087803b1580156114cb57600080fd5b505af11580156114df573d6000803e3d6000fd5b505050506040513d60208110156114f557600080fd5b81019080805190602001909291905050506000806101000a81548173ffffffffffffffffffffffffffffffffffffffff021916908373ffffffffffffffffffffffffffffffffffffffff1602179055505b6000809054906101000a900473ffffffffffffffffffffffffffffffffffffffff1673ffffffffffffffffffffffffffffffffffffffff1663c281d19e6040518163ffffffff1660e01b815260040160206040518083038186803b1580156115ad57600080fd5b505afa1580156115c1573d6000803e3d6000fd5b505050506040513d60208110156115d757600080fd5b8101908080519060200190929190505050905090565b6000806008600084815260200190815260200160002060010160009054906101000a900460ff1690506000600760008581526020019081526020016000206001015490506000600a600086815260200190815260200160002060009054906101000a900473ffffffffffffffffffffffffffffffffffffffff169050611671613497565b600960008373ffffffffffffffffffffffffffffffffffffffff1673ffffffffffffffffffffffffffffffffffffffff1681526020019081526020016000206040518060800160405290816000820160009054906101000a900473ffffffffffffffffffffffffffffffffffffffff1673ffffffffffffffffffffffffffffffffffffffff1673ffffffffffffffffffffffffffffffffffffffff16815260200160018201548152602001600282015481526020016003820160009054906101000a900460ff1615151515815250509050600115158415151480611759575060001515841515145b1561187157600060028402905080600960008573ffffffffffffffffffffffffffffffffffffffff1673ffffffffffffffffffffffffffffffffffffffff168152602001908152602001600020600101819055507f7f286286ddac21458cfcd9160c74a2bb53f361388c342a089321237fb3e21a24816040518082815260200191505060405180910390a1836006600082825403925050819055507f7e7d5e50adfbb4e81427323125a4d6250cf27f8b49ff7305f48c9fcb4d2525ea600285026040518080602001838152602001828103825260088152602001807f596f7520776f6e200000000000000000000000000000000000000000000000008152506020019250505060405180910390a160009050506118f2565b826006600082825401925050819055507fdbc743cebacba388691ee70a334a0faaee0490d78d1e3be2ba9081622471cdad836040518080602001838152602001828103825260098152602001807f596f75206c6f73742000000000000000000000000000000000000000000000008152506020019250505060405180910390a15b6000925050505050919050565b60008083118015611911575060208311155b61191a57600080fd5b600a84029350606060016040519080825280601f01601f1916602001820160405280156119565781602001600182028038833980820191505090505b5090508360f81b8160008151811061196a57fe5b60200101907effffffffffffffffffffffffffffffffffffffffffffffffffffffffffffff1916908160001a905350606060206040519080825280601f01601f1916602001820160405280156119cf5781602001600182028038833980820191505090505b509050606060206040519080825280601f01601f191660200182016040528015611a085781602001600182028038833980820191505090505b5090506000611a15611eb6565b905060208352424118600143034018602084015260208252806020830152606060206040519080825280601f01601f191660200182016040528015611a695781602001600182028038833980820191505090505b509050886020820152606060086040519080825280601f01601f191660200182016040528015611aa85781602001600182028038833980820191505090505b509050611abb82601860088460006121d3565b50611ac461353a565b60405180608001604052808781526020018881526020018681526020018481525090506000611b296040518060400160405280600681526020017f72616e646f6d0000000000000000000000000000000000000000000000000000815250838c612232565b9050606060086040519080825280601f01601f191660200182016040528015611b615781602001600182028038833980820191505090505b50905060208401517f0100000000000000000000000000000000000000000000000000000000000000810460278301537e01000000000000000000000000000000000000000000000000000000000000810460268301537d010000000000000000000000000000000000000000000000000000000000810460258301537c0100000000000000000000000000000000000000000000000000000000810460248301537b01000000000000000000000000000000000000000000000000000000810460238301537a010000000000000000000000000000000000000000000000000000810460228301537901000000000000000000000000000000000000000000000000008104602183015378010000000000000000000000000000000000000000000000008104602083015350611e87828285600160048110611ca057fe5b6020020151600287600060048110611cb457fe5b60200201516040518082805190602001908083835b60208310611cec5780518252602082019150602081019050602083039250611cc9565b6001836020036101000a038019825116818451168082178552505050505050905001915050602060405180830381855afa158015611d2e573d6000803e3d6000fd5b5050506040513d6020811015611d4357600080fd5b810190808051906020019092919050505087600260048110611d6157fe5b60200201516040516020018085805190602001908083835b60208310611d9c5780518252602082019150602081019050602083039250611d79565b6001836020036101000a03801982511681845116808217855250505050505090500184805190602001908083835b60208310611ded5780518252602082019150602081019050602083039250611dca565b6001836020036101000a03801982511681845116808217855250505050505090500183815260200182805190602001908083835b60208310611e445780518252602082019150602081019050602083039250611e21565b6001836020036101000a0380198251168184511680821785525050505050509050019450505050506040516020818303038152906040528051906020012061259f565b8199505050505050505050509392505050565b6000813b9050919050565b6000611eaf6125bb565b9050919050565b60008073ffffffffffffffffffffffffffffffffffffffff16600160009054906101000a900473ffffffffffffffffffffffffffffffffffffffff1673ffffffffffffffffffffffffffffffffffffffff161480611f3e57506000611f3c600160009054906101000a900473ffffffffffffffffffffffffffffffffffffffff16611e9a565b145b15611f4f57611f4d6000611ea5565b505b600160009054906101000a900473ffffffffffffffffffffffffffffffffffffffff1673ffffffffffffffffffffffffffffffffffffffff166338cc48316040518163ffffffff1660e01b8152600401602060405180830381600087803b158015611fb957600080fd5b505af1158015611fcd573d6000803e3d6000fd5b505050506040513d6020811015611fe357600080fd5b810190808051906020019092919050505073ffffffffffffffffffffffffffffffffffffffff166000809054906101000a900473ffffffffffffffffffffffffffffffffffffffff1673ffffffffffffffffffffffffffffffffffffffff161461212c57600160009054906101000a900473ffffffffffffffffffffffffffffffffffffffff1673ffffffffffffffffffffffffffffffffffffffff166338cc48316040518163ffffffff1660e01b8152600401602060405180830381600087803b1580156120b157600080fd5b505af11580156120c5573d6000803e3d6000fd5b505050506040513d60208110156120db57600080fd5b81019080805190602001909291905050506000806101000a81548173ffffffffffffffffffffffffffffffffffffffff021916908373ffffffffffffffffffffffffffffffffffffffff1602179055505b6000809054906101000a900473ffffffffffffffffffffffffffffffffffffffff1673ffffffffffffffffffffffffffffffffffffffff1663abaa5f3e6040518163ffffffff1660e01b815260040160206040518083038186803b15801561219357600080fd5b505afa1580156121a7573d6000803e3d6000fd5b505050506040513d60208110156121bd57600080fd5b8101908080519060200190929190505050905090565b60606000828501905080845110156121ea57600080fd5b600086602001905060008460200190505b86886020010182101561222357818901518082880152506020820191506020810190506121fb565b85935050505095945050505050565b60008073ffffffffffffffffffffffffffffffffffffffff16600160009054906101000a900473ffffffffffffffffffffffffffffffffffffffff1673ffffffffffffffffffffffffffffffffffffffff1614806122ba575060006122b8600160009054906101000a900473ffffffffffffffffffffffffffffffffffffffff16611e9a565b145b156122cb576122c96000611ea5565b505b600160009054906101000a900473ffffffffffffffffffffffffffffffffffffffff1673ffffffffffffffffffffffffffffffffffffffff166338cc48316040518163ffffffff1660e01b8152600401602060405180830381600087803b15801561233557600080fd5b505af1158015612349573d6000803e3d6000fd5b505050506040513d602081101561235f57600080fd5b810190808051906020019092919050505073ffffffffffffffffffffffffffffffffffffffff166000809054906101000a900473ffffffffffffffffffffffffffffffffffffffff1673ffffffffffffffffffffffffffffffffffffffff16146124a857600160009054906101000a900473ffffffffffffffffffffffffffffffffffffffff1673ffffffffffffffffffffffffffffffffffffffff166338cc48316040518163ffffffff1660e01b8152600401602060405180830381600087803b15801561242d57600080fd5b505af1158015612441573d6000803e3d6000fd5b505050506040513d602081101561245757600080fd5b81019080805190602001909291905050506000806101000a81548173ffffffffffffffffffffffffffffffffffffffff021916908373ffffffffffffffffffffffffffffffffffffffff1602179055505b606060046040519080825280602002602001820160405280156124df57816020015b60608152602001906001900390816124ca5790505b509050836000600481106124ef57fe5b60200201518160008151811061250157fe5b60200260200101819052508360016004811061251957fe5b60200201518160018151811061252b57fe5b60200260200101819052508360026004811061254357fe5b60200201518160028151811061255557fe5b60200260200101819052508360036004811061256d57fe5b60200201518160038151811061257f57fe5b6020026020010181905250612595858285612b12565b9150509392505050565b8060036000848152602001908152602001600020819055505050565b6000806125db731d3b2638a7cc9f2cb3d298a3da7a90b67e5506ed611e9a565b111561267d57731d3b2638a7cc9f2cb3d298a3da7a90b67e5506ed600160006101000a81548173ffffffffffffffffffffffffffffffffffffffff021916908373ffffffffffffffffffffffffffffffffffffffff1602179055506126746040518060400160405280600b81526020017f6574685f6d61696e6e6574000000000000000000000000000000000000000000815250613074565b60019050612b0f565b600061269c73c03a2615d5efaf5f49f60b7bb6583eaec212fdf1611e9a565b111561273e5773c03a2615d5efaf5f49f60b7bb6583eaec212fdf1600160006101000a81548173ffffffffffffffffffffffffffffffffffffffff021916908373ffffffffffffffffffffffffffffffffffffffff1602179055506127356040518060400160405280600c81526020017f6574685f726f707374656e330000000000000000000000000000000000000000815250613074565b60019050612b0f565b600061275d73b7a07bcf2ba2f2703b24c0691b5278999c59ac7e611e9a565b11156127ff5773b7a07bcf2ba2f2703b24c0691b5278999c59ac7e600160006101000a81548173ffffffffffffffffffffffffffffffffffffffff021916908373ffffffffffffffffffffffffffffffffffffffff1602179055506127f66040518060400160405280600981526020017f6574685f6b6f76616e0000000000000000000000000000000000000000000000815250613074565b60019050612b0f565b600061281e73146500cfd35b22e4a392fe0adc06de1a1368ed48611e9a565b11156128c05773146500cfd35b22e4a392fe0adc06de1a1368ed48600160006101000a81548173ffffffffffffffffffffffffffffffffffffffff021916908373ffffffffffffffffffffffffffffffffffffffff1602179055506128b76040518060400160405280600b81526020017f6574685f72696e6b656279000000000000000000000000000000000000000000815250613074565b60019050612b0f565b60006128df73a2998efd205fb9d4b4963afb70778d6354ad3a41611e9a565b11156129815773a2998efd205fb9d4b4963afb70778d6354ad3a41600160006101000a81548173ffffffffffffffffffffffffffffffffffffffff021916908373ffffffffffffffffffffffffffffffffffffffff1602179055506129786040518060400160405280600a81526020017f6574685f676f65726c6900000000000000000000000000000000000000000000815250613074565b60019050612b0f565b60006129a0736f485c8bf6fc43ea212e93bbf8ce046c7f1cb475611e9a565b1115612a0457736f485c8bf6fc43ea212e93bbf8ce046c7f1cb475600160006101000a81548173ffffffffffffffffffffffffffffffffffffffff021916908373ffffffffffffffffffffffffffffffffffffffff16021790555060019050612b0f565b6000612a237320e12a1f859b3feae5fb2a0a32c18f5a65555bbf611e9a565b1115612a87577320e12a1f859b3feae5fb2a0a32c18f5a65555bbf600160006101000a81548173ffffffffffffffffffffffffffffffffffffffff021916908373ffffffffffffffffffffffffffffffffffffffff16021790555060019050612b0f565b6000612aa67351efaf4c8b3c9afbd5ab9f4bbc82784ab6ef8faa611e9a565b1115612b0a577351efaf4c8b3c9afbd5ab9f4bbc82784ab6ef8faa600160006101000a81548173ffffffffffffffffffffffffffffffffffffffff021916908373ffffffffffffffffffffffffffffffffffffffff16021790555060019050612b0f565b600090505b90565b60008073ffffffffffffffffffffffffffffffffffffffff16600160009054906101000a900473ffffffffffffffffffffffffffffffffffffffff1673ffffffffffffffffffffffffffffffffffffffff161480612b9a57506000612b98600160009054906101000a900473ffffffffffffffffffffffffffffffffffffffff16611e9a565b145b15612bab57612ba96000611ea5565b505b600160009054906101000a900473ffffffffffffffffffffffffffffffffffffffff1673ffffffffffffffffffffffffffffffffffffffff166338cc48316040518163ffffffff1660e01b8152600401602060405180830381600087803b158015612c1557600080fd5b505af1158015612c29573d6000803e3d6000fd5b505050506040513d6020811015612c3f57600080fd5b810190808051906020019092919050505073ffffffffffffffffffffffffffffffffffffffff166000809054906101000a900473ffffffffffffffffffffffffffffffffffffffff1673ffffffffffffffffffffffffffffffffffffffff1614612d8857600160009054906101000a900473ffffffffffffffffffffffffffffffffffffffff1673ffffffffffffffffffffffffffffffffffffffff166338cc48316040518163ffffffff1660e01b8152600401602060405180830381600087803b158015612d0d57600080fd5b505af1158015612d21573d6000803e3d6000fd5b505050506040513d6020811015612d3757600080fd5b81019080805190602001909291905050506000806101000a81548173ffffffffffffffffffffffffffffffffffffffff021916908373ffffffffffffffffffffffffffffffffffffffff1602179055505b60008060009054906101000a900473ffffffffffffffffffffffffffffffffffffffff1673ffffffffffffffffffffffffffffffffffffffff16632ef3accc86856040518363ffffffff1660e01b81526004018080602001838152602001828103825284818151815260200191508051906020019080838360005b83811015612e1e578082015181840152602081019050612e03565b50505050905090810190601f168015612e4b5780820380516001836020036101000a031916815260200191505b509350505050602060405180830381600087803b158015612e6b57600080fd5b505af1158015612e7f573d6000803e3d6000fd5b505050506040513d6020811015612e9557600080fd5b81019080805190602001909291905050509050823a02670de0b6b3a764000001811115612ec8576000801b91505061306d565b6060612ed38561308e565b90506000809054906101000a900473ffffffffffffffffffffffffffffffffffffffff1673ffffffffffffffffffffffffffffffffffffffff1663c55c1cb68360008985896040518663ffffffff1660e01b8152600401808581526020018060200180602001848152602001838103835286818151815260200191508051906020019080838360005b83811015612f77578082015181840152602081019050612f5c565b50505050905090810190601f168015612fa45780820380516001836020036101000a031916815260200191505b50838103825285818151815260200191508051906020019080838360005b83811015612fdd578082015181840152602081019050612fc2565b50505050905090810190601f16801561300a5780820380516001836020036101000a031916815260200191505b5096505050505050506020604051808303818588803b15801561302c57600080fd5b505af1158015613040573d6000803e3d6000fd5b50505050506040513d602081101561305757600080fd5b8101908080519060200190929190505050925050505b9392505050565b806002908051906020019061308a929190613561565b5050565b606061309861310e565b6130a06135e1565b6130ac8161040061311a565b6130b581613164565b60008090505b83518110156130f7576130ea8482815181106130d357fe5b60200260200101518361317290919063ffffffff16565b80806001019150506130bb565b5061310181613197565b8060000151915050919050565b60405180590338823950565b600081905060006020828161312b57fe5b0614613144576020818161313b57fe5b06602003810190505b808360200181815250506040518084526000815281810160405250505050565b61316f8160046131a5565b50565b61317f82600283516131c6565b613192818361330690919063ffffffff16565b505050565b6131a28160076131a5565b50565b6131c2601f60058360ff16901b17836133b190919063ffffffff16565b5050565b601781116131f2576131ed8160058460ff16901b60ff1617846133b190919063ffffffff16565b613301565b60ff811161323357613217601860058460ff16901b17846133b190919063ffffffff16565b61322d816001856133f19092919063ffffffff16565b50613300565b61ffff811161327557613259601960058460ff16901b17846133b190919063ffffffff16565b61326f816002856133f19092919063ffffffff16565b506132ff565b63ffffffff81116132b95761329d601a60058460ff16901b17846133b190919063ffffffff16565b6132b3816004856133f19092919063ffffffff16565b506132fe565b67ffffffffffffffff81116132fd576132e5601b60058460ff16901b17846133b190919063ffffffff16565b6132fb816008856133f19092919063ffffffff16565b505b5b5b5b5b505050565b61330e6135e1565b8260200151836000015151835101111561333e5761333d83600261333786602001518651613458565b02613474565b5b60008060008451905085518051602081830101945086518101825260208701935050505b602081106133855781518352602083019250602082019150602081039050613362565b60006001826020036101000a039050801983511681855116818117865250508694505050505092915050565b816020015160018360000151510111156133d7576133d6826002846020015102613474565b5b815180516020818301018381536001820183525050505050565b6133f96135e1565b83602001518460000151518301111561342757613426846002613420876020015186613458565b02613474565b5b60006001836101000a0390508451805184818301018684198251161781528582018352505050849150509392505050565b60008183111561346a5782905061346e565b8190505b92915050565b606082600001519050613487838361311a565b6134918382613306565b50505050565b6040518060800160405280600073ffffffffffffffffffffffffffffffffffffffff16815260200160008152602001600080191681526020016000151581525090565b6040518060600160405280600073ffffffffffffffffffffffffffffffffffffffff16815260200160008152602001600080191681525090565b604051806060016040528060008152602001600015158152602001600080191681525090565b60405180608001604052806004905b60608152602001906001900390816135495790505090565b828054600181600116156101000203166002900490600052602060002090601f016020900481019282601f106135a257805160ff19168380011785556135d0565b828001600101855582156135d0579182015b828111156135cf5782518255916020019190600101906135b4565b5b5090506135dd91906135fb565b5090565b604051806040016040528060608152602001600081525090565b61361d91905b80821115613619576000816000905550600101613601565b5090565b9056fe5468652050756e7465722042616c616e6365207768656e2062657474696e672069732050726f7661626c65207175657279207761732073656e742c207374616e64696e6720627920666f722074686520616e737765722ea265627a7a72315820289551d05db23febe015136d0662705106910a7d04da19e916c0f3f369f2b84e64736f6c634300050c0032",
  "source": "pragma solidity >=0.5.12 < 0.6.0;\r\nimport \"./Ownable.sol\";\r\nimport \"./Storagable.sol\";\r\nimport \"./Winnable.sol\";\r\nimport \"./oracle.sol\";\r\n\r\n\r\n\r\ncontract CoinFlip is Ownable, Storagable, Winnable, oracle{\r\n\r\n\r\n    modifier costs(uint cost){\r\n        require(msg.value >= cost, \"Need at least 0.1 szabo\");\r\n        _;\r\n\r\n\r\n    }\r\n\r\n    uint playerWantingToBet;\r\n    uint additionalFundsNeeded;\r\n    event checkIfBetIsCorrect (string, uint);\r\n\r\n    function depositFunds() public onlyOwner payable returns(uint){\r\n      balance += msg.value;\r\n      return balance;\r\n\r\n    }\r\n\r\n    function placeBet(uint betAmount) public payable costs (10000 wei){\r\n         betAmount = betAmount * 1e15;\r\n\r\n         playerWantingToBet = punters[msg.sender].punterBalance;\r\n\r\n         if (punters[msg.sender].punterBalance > 0 && betAmount >= punters[msg.sender].punterBalance) {\r\n           // playerWantingToBet = punters[msg.sender].punterBalance;\r\n            additionalFundsNeeded = betAmount - playerWantingToBet;\r\n            playerWantingToBet = 0;\r\n\r\n        }\r\n\r\n        else if (punters[msg.sender].punterBalance > 0 && betAmount < punters[msg.sender].punterBalance){\r\n           // playerWantingToBet = punters[msg.sender].punterBalance;\r\n             additionalFundsNeeded = playerWantingToBet - betAmount;\r\n             playerWantingToBet -= additionalFundsNeeded;\r\n        }\r\n\r\n        random(msg.sender,additionalFundsNeeded);\r\n        emit checkIfBetIsCorrect(\"The Punter Balance when betting is \", playerWantingToBet);\r\n\r\n\r\n    }\r\n\r\n\r\n\r\n\r\n\r\n\r\n\r\n\r\n\r\n\r\n\r\n}\r\n",
  "sourcePath": "D:/Users/victo/Desktop/Crypto Programming/Ethereum/Coinflip/contracts/CoinFlip.sol",
  "compiler": {
    "name": "solc",
    "version": "0.5.12+commit.7709ece9.Emscripten.clang"
  },
  "schemaVersion": "3.0.16",
  "updatedAt": "2020-10-31T05:16:05.838Z",
  "devdoc": {
    "methods": {
      "__callback(bytes32,string)": {
        "details": "The following `__callback` functions are just placeholders ideally     meant to be defined in child contract when proofs are used.     The function bodies simply silence compiler warnings."
      }
    }
  },
  "userdoc": {
    "methods": {}
  }
}