{
  "contractName": "CoinFlip",
  "abi": [
    {
      "anonymous": false,
      "inputs": [
        {
          "indexed": false,
          "internalType": "string",
          "name": "",
          "type": "string"
        },
        {
          "indexed": false,
          "internalType": "uint256",
          "name": "",
          "type": "uint256"
        }
      ],
      "name": "youLose",
      "type": "event"
    },
    {
      "anonymous": false,
      "inputs": [
        {
          "indexed": false,
          "internalType": "string",
          "name": "",
          "type": "string"
        },
        {
          "indexed": false,
          "internalType": "uint256",
          "name": "",
          "type": "uint256"
        }
      ],
      "name": "youWin",
      "type": "event"
    },
    {
      "constant": true,
      "inputs": [],
      "name": "owner",
      "outputs": [
        {
          "internalType": "address",
          "name": "",
          "type": "address"
        }
      ],
      "payable": false,
      "stateMutability": "view",
      "type": "function"
    },
    {
      "constant": false,
      "inputs": [],
      "name": "play",
      "outputs": [],
      "payable": true,
      "stateMutability": "payable",
      "type": "function"
    },
    {
      "constant": true,
      "inputs": [],
      "name": "valueInput",
      "outputs": [
        {
          "internalType": "uint256",
          "name": "",
          "type": "uint256"
        }
      ],
      "payable": false,
      "stateMutability": "view",
      "type": "function"
    },
    {
      "constant": true,
      "inputs": [],
      "name": "getBalance",
      "outputs": [
        {
          "internalType": "uint256",
          "name": "",
          "type": "uint256"
        }
      ],
      "payable": false,
      "stateMutability": "view",
      "type": "function"
    },
    {
      "constant": true,
      "inputs": [],
      "name": "getReward",
      "outputs": [
        {
          "internalType": "uint256",
          "name": "",
          "type": "uint256"
        }
      ],
      "payable": false,
      "stateMutability": "view",
      "type": "function"
    },
    {
      "constant": false,
      "inputs": [],
      "name": "depositFunds",
      "outputs": [
        {
          "internalType": "uint256",
          "name": "",
          "type": "uint256"
        }
      ],
      "payable": true,
      "stateMutability": "payable",
      "type": "function"
    }
  ],
  "bytecode": "0x6080604052336000806101000a81548173ffffffffffffffffffffffffffffffffffffffff021916908373ffffffffffffffffffffffffffffffffffffffff160217905550610486806100536000396000f3fe6080604052600436106100555760003560e01c806312065fe01461005a5780633d18b91214610085578063574ef123146100b05780638da5cb5b146100db57806393e84cd914610132578063e2c41dbc1461013c575b600080fd5b34801561006657600080fd5b5061006f61015a565b6040518082815260200191505060405180910390f35b34801561009157600080fd5b5061009a610164565b6040518082815260200191505060405180910390f35b3480156100bc57600080fd5b506100c561016e565b6040518082815260200191505060405180910390f35b3480156100e757600080fd5b506100f0610178565b604051808273ffffffffffffffffffffffffffffffffffffffff1673ffffffffffffffffffffffffffffffffffffffff16815260200191505060405180910390f35b61013a61019d565b005b610144610241565b6040518082815260200191505060405180910390f35b6000600154905090565b6000600454905090565b6000600254905090565b6000809054906101000a900473ffffffffffffffffffffffffffffffffffffffff1681565b670de0b6b3a76400008034101561021c576040517f08c379a00000000000000000000000000000000000000000000000000000000081526004018080602001828103825260158152602001807f4e656564206174206c656173742031303020576569000000000000000000000081525060200191505060405180910390fd5b346002600082825401925050819055506102346102b4565b5061023d6102cf565b5050565b60008060009054906101000a900473ffffffffffffffffffffffffffffffffffffffff1673ffffffffffffffffffffffffffffffffffffffff163373ffffffffffffffffffffffffffffffffffffffff161461029c57600080fd5b34600160008282540192505081905550600154905090565b6000600242816102c057fe5b06600381905550600354905090565b6000600160035414156103b8576000600280540290503373ffffffffffffffffffffffffffffffffffffffff166108fc829081150290604051600060405180830381858888f1935050505015801561032b573d6000803e3d6000fd5b506002546001600082825403925050819055507f7e7d5e50adfbb4e81427323125a4d6250cf27f8b49ff7305f48c9fcb4d2525ea816040518080602001838152602001828103825260088152602001807f596f7520776f6e200000000000000000000000000000000000000000000000008152506020019250505060405180910390a1600090505061043d565b6002546001600082825401925050819055507fdbc743cebacba388691ee70a334a0faaee0490d78d1e3be2ba9081622471cdad6002546040518080602001838152602001828103825260098152602001807f596f75206c6f73742000000000000000000000000000000000000000000000008152506020019250505060405180910390a15b60025460048190555060006002819055509056fea265627a7a723158203e15d8316eb86bb92e9838847c613235f2e1f9227a4db7ec2cdd150fec3eaba164736f6c634300050c0032",
  "source": "pragma solidity 0.5.12;\r\nimport \"./Owner.sol\";\r\n\r\n\r\ncontract CoinFlip is Ownable{\r\n\r\n\r\n    uint internal balance;\r\n    uint internal betAmount;\r\n    uint internal result;\r\n    uint internal reward;\r\n    event youWin (string, uint);\r\n    event youLose(string, uint);\r\n  //  address player;\r\n\r\n\r\n     modifier costs(uint cost){\r\n        require(msg.value >= cost, \"Need at least 100 Wei\");\r\n        _;\r\n\r\n\r\n    }\r\n\r\n\r\n    function play()public payable costs(1 ether){\r\n        betAmount += msg.value;\r\n       // reward += msg.value;\r\n\r\n\r\n        random();\r\n        winOrLose();\r\n\r\n\r\n\r\n    }\r\n\r\n    function valueInput()public view returns(uint){\r\n\r\n        return betAmount;\r\n\r\n    }\r\n\r\n  /*  function initialBalance() public payable{\r\n      balance = msg.value;\r\n     */\r\n\r\n    //random function()\r\n    function random() internal returns(uint){\r\n\r\n            result = now % 2;\r\n        return result;\r\n\r\n    }\r\n\r\n    function winOrLose() internal returns (uint){\r\n        if (result == 1){\r\n            //pay player\r\n            uint toReward = betAmount*2;\r\n\r\n            msg.sender.transfer(toReward);\r\n            balance -= betAmount;\r\n\r\n            emit youWin(\"You won \", toReward);\r\n            toReward  =0;\r\n        }\r\n\r\n        else {\r\n            //keep money\r\n            balance += betAmount;\r\n            emit youLose(\"You lost \", betAmount);\r\n        }\r\n\r\n        reward = betAmount;\r\n        betAmount =0;\r\n    }\r\n\r\n    function getBalance() public view returns(uint){\r\n        return balance;\r\n\r\n    }\r\n\r\n    function getReward() public view returns(uint){\r\n        return reward;\r\n    }\r\n\r\n    function depositFunds() public onlyOwner payable returns(uint){\r\n      balance += msg.value;\r\n      return balance;\r\n\r\n    }\r\n\r\n\r\n\r\n\r\n}\r\n",
  "sourcePath": "D:\\Users\\victo\\Desktop\\Crypto Programming\\Ethereum\\Coinflip\\contracts\\CoinFlip.sol",
  "compiler": {
    "name": "solc",
    "version": "0.5.12+commit.7709ece9.Emscripten.clang"
  },
  "schemaVersion": "3.0.23",
  "updatedAt": "2020-10-24T05:19:41.435Z",
  "networkType": "ethereum",
  "devdoc": {
    "methods": {}
  },
  "userdoc": {
    "methods": {}
  }
}