{
  "contractName": "CoinFlip",
  "abi": [
    {
      "anonymous": false,
      "inputs": [
        {
          "indexed": false,
          "internalType": "string",
          "name": "",
          "type": "string"
        },
        {
          "indexed": false,
          "internalType": "uint256",
          "name": "",
          "type": "uint256"
        }
      ],
      "name": "youLose",
      "type": "event"
    },
    {
      "anonymous": false,
      "inputs": [
        {
          "indexed": false,
          "internalType": "string",
          "name": "",
          "type": "string"
        },
        {
          "indexed": false,
          "internalType": "uint256",
          "name": "",
          "type": "uint256"
        }
      ],
      "name": "youWin",
      "type": "event"
    },
    {
      "constant": false,
      "inputs": [],
      "name": "play",
      "outputs": [],
      "payable": true,
      "stateMutability": "payable",
      "type": "function"
    },
    {
      "constant": true,
      "inputs": [],
      "name": "valueInput",
      "outputs": [
        {
          "internalType": "uint256",
          "name": "",
          "type": "uint256"
        }
      ],
      "payable": false,
      "stateMutability": "view",
      "type": "function"
    },
    {
      "constant": true,
      "inputs": [],
      "name": "getBalance",
      "outputs": [
        {
          "internalType": "uint256",
          "name": "",
          "type": "uint256"
        }
      ],
      "payable": false,
      "stateMutability": "view",
      "type": "function"
    },
    {
      "constant": true,
      "inputs": [],
      "name": "getReward",
      "outputs": [
        {
          "internalType": "uint256",
          "name": "",
          "type": "uint256"
        }
      ],
      "payable": false,
      "stateMutability": "view",
      "type": "function"
    }
  ],
  "bytecode": "0x608060405234801561001057600080fd5b50610361806100206000396000f3fe60806040526004361061003f5760003560e01c806312065fe0146100445780633d18b9121461006f578063574ef1231461009a57806393e84cd9146100c5575b600080fd5b34801561005057600080fd5b506100596100cf565b6040518082815260200191505060405180910390f35b34801561007b57600080fd5b506100846100d8565b6040518082815260200191505060405180910390f35b3480156100a657600080fd5b506100af6100e2565b6040518082815260200191505060405180910390f35b6100cd6100ec565b005b60008054905090565b6000600354905090565b6000600154905090565b670de0b6b3a76400008034101561016b576040517f08c379a00000000000000000000000000000000000000000000000000000000081526004018080602001828103825260158152602001807f4e656564206174206c656173742031303020576569000000000000000000000081525060200191505060405180910390fd5b34600160008282540192505081905550610183610190565b5061018c6101ab565b5050565b60006002428161019c57fe5b06600281905550600254905090565b60006001600254141561029457600060026001540290503373ffffffffffffffffffffffffffffffffffffffff166108fc829081150290604051600060405180830381858888f19350505050158015610208573d6000803e3d6000fd5b5060015460008082825403925050819055507f7e7d5e50adfbb4e81427323125a4d6250cf27f8b49ff7305f48c9fcb4d2525ea816040518080602001838152602001828103825260088152602001807f596f7520776f6e200000000000000000000000000000000000000000000000008152506020019250505060405180910390a16000905050610318565b60015460008082825401925050819055507fdbc743cebacba388691ee70a334a0faaee0490d78d1e3be2ba9081622471cdad6001546040518080602001838152602001828103825260098152602001807f596f75206c6f73742000000000000000000000000000000000000000000000008152506020019250505060405180910390a15b60015460038190555060006001819055509056fea265627a7a7231582060c770b61acb8c9daeccca31c34edf6b0353297dce7c3d2a0dbff26ac62a3f2564736f6c634300050c0032",
  "source": "pragma solidity 0.5.12;\r\n\r\n\r\ncontract CoinFlip{\r\n\r\n\r\n    uint internal balance;\r\n    uint internal betAmount;\r\n    uint internal result;\r\n    uint internal reward;\r\n    event youWin (string, uint);\r\n    event youLose(string, uint);\r\n  //  address player;\r\n\r\n\r\n     modifier costs(uint cost){\r\n        require(msg.value >= cost, \"Need at least 100 Wei\");\r\n        _;\r\n\r\n\r\n    }\r\n\r\n\r\n    function play()public payable costs(1 ether){\r\n        betAmount += msg.value;\r\n       // reward += msg.value;\r\n\r\n\r\n        random();\r\n        winOrLose();\r\n\r\n\r\n\r\n    }\r\n\r\n    function valueInput()public view returns(uint){\r\n\r\n        return betAmount;\r\n\r\n    }\r\n\r\n  /*  function initialBalance() public payable{\r\n      balance = msg.value;\r\n     */\r\n\r\n    //random function()\r\n    function random() internal returns(uint){\r\n\r\n            result = now % 2;\r\n        return result;\r\n\r\n    }\r\n\r\n    function winOrLose() internal returns (uint){\r\n        if (result == 1){\r\n            //pay player\r\n            uint toReward = betAmount*2;\r\n\r\n            msg.sender.transfer(toReward);\r\n            balance -= betAmount;\r\n\r\n            emit youWin(\"You won \", toReward);\r\n            toReward  =0;\r\n        }\r\n\r\n        else {\r\n            //keep money\r\n            balance += betAmount;\r\n            emit youLose(\"You lost \", betAmount);\r\n        }\r\n\r\n        reward = betAmount;\r\n        betAmount =0;\r\n    }\r\n\r\n    function getBalance() public view returns(uint){\r\n        return balance;\r\n\r\n    }\r\n\r\n    function getReward() public view returns(uint){\r\n        return reward;\r\n    }\r\n\r\n    //send back to player function()\r\n\r\n\r\n  /*  function getSender()public view returns(address) {\r\n         return player;\r\n    }*/\r\n\r\n\r\n\r\n\r\n}\r\n",
  "sourcePath": "D:\\Users\\victo\\Desktop\\Crypto Programming\\Ethereum\\Coinflip\\contracts\\CoinFlip.sol",
  "compiler": {
    "name": "solc",
    "version": "0.5.12+commit.7709ece9.Emscripten.clang"
  },
  "schemaVersion": "3.0.23",
  "updatedAt": "2020-10-23T13:16:19.435Z",
  "networkType": "ethereum",
  "devdoc": {
    "methods": {}
  },
  "userdoc": {
    "methods": {}
  }
}