{
  "contractName": "CoinFlip",
  "abi": [
    {
      "anonymous": false,
      "inputs": [
        {
          "indexed": false,
          "internalType": "string",
          "name": "description",
          "type": "string"
        }
      ],
      "name": "LogNewProvableQuery",
      "type": "event"
    },
    {
      "anonymous": false,
      "inputs": [
        {
          "indexed": false,
          "internalType": "uint256",
          "name": "randomNumber",
          "type": "uint256"
        }
      ],
      "name": "generatedRandomNumber",
      "type": "event"
    },
    {
      "anonymous": false,
      "inputs": [
        {
          "indexed": false,
          "internalType": "string",
          "name": "a",
          "type": "string"
        },
        {
          "indexed": false,
          "internalType": "bytes32",
          "name": "q_id",
          "type": "bytes32"
        }
      ],
      "name": "idCheck",
      "type": "event"
    },
    {
      "anonymous": false,
      "inputs": [
        {
          "indexed": false,
          "internalType": "string",
          "name": "",
          "type": "string"
        },
        {
          "indexed": false,
          "internalType": "uint256",
          "name": "theBetAmount",
          "type": "uint256"
        }
      ],
      "name": "youLose",
      "type": "event"
    },
    {
      "anonymous": false,
      "inputs": [
        {
          "indexed": false,
          "internalType": "string",
          "name": "",
          "type": "string"
        },
        {
          "indexed": false,
          "internalType": "uint256",
          "name": "theBetAmount",
          "type": "uint256"
        }
      ],
      "name": "youWin",
      "type": "event"
    },
    {
      "constant": true,
      "inputs": [],
      "name": "balance",
      "outputs": [
        {
          "internalType": "uint256",
          "name": "",
          "type": "uint256"
        }
      ],
      "payable": false,
      "stateMutability": "view",
      "type": "function"
    },
    {
      "constant": true,
      "inputs": [],
      "name": "latestNumber",
      "outputs": [
        {
          "internalType": "uint256",
          "name": "",
          "type": "uint256"
        }
      ],
      "payable": false,
      "stateMutability": "view",
      "type": "function"
    },
    {
      "constant": true,
      "inputs": [],
      "name": "owner",
      "outputs": [
        {
          "internalType": "address",
          "name": "",
          "type": "address"
        }
      ],
      "payable": false,
      "stateMutability": "view",
      "type": "function"
    },
    {
      "constant": false,
      "inputs": [],
      "name": "depositFunds",
      "outputs": [
        {
          "internalType": "uint256",
          "name": "",
          "type": "uint256"
        }
      ],
      "payable": true,
      "stateMutability": "payable",
      "type": "function"
    },
    {
      "constant": false,
      "inputs": [
        {
          "internalType": "uint256",
          "name": "betAmount",
          "type": "uint256"
        }
      ],
      "name": "placeBet",
      "outputs": [],
      "payable": true,
      "stateMutability": "payable",
      "type": "function"
    },
    {
      "constant": false,
      "inputs": [
        {
          "internalType": "address",
          "name": "punter",
          "type": "address"
        },
        {
          "internalType": "uint256",
          "name": "_betAmount",
          "type": "uint256"
        }
      ],
      "name": "random",
      "outputs": [],
      "payable": true,
      "stateMutability": "payable",
      "type": "function"
    },
    {
      "constant": false,
      "inputs": [
        {
          "internalType": "bytes32",
          "name": "_myid",
          "type": "bytes32"
        },
        {
          "internalType": "string",
          "name": "_result",
          "type": "string"
        }
      ],
      "name": "__callback",
      "outputs": [],
      "payable": false,
      "stateMutability": "nonpayable",
      "type": "function"
    },
    {
      "constant": false,
      "inputs": [
        {
          "internalType": "bytes32",
          "name": "_queryId",
          "type": "bytes32"
        },
        {
          "internalType": "string",
          "name": "_result",
          "type": "string"
        },
        {
          "internalType": "bytes",
          "name": "_proof",
          "type": "bytes"
        }
      ],
      "name": "__callback",
      "outputs": [],
      "payable": false,
      "stateMutability": "nonpayable",
      "type": "function"
    },
    {
      "constant": false,
      "inputs": [
        {
          "internalType": "bytes32",
          "name": "q_id",
          "type": "bytes32"
        },
        {
          "internalType": "uint256",
          "name": "value",
          "type": "uint256"
        }
      ],
      "name": "saveResults",
      "outputs": [],
      "payable": false,
      "stateMutability": "nonpayable",
      "type": "function"
    },
    {
      "constant": false,
      "inputs": [],
      "name": "withdrawContractBalance",
      "outputs": [
        {
          "internalType": "uint256",
          "name": "",
          "type": "uint256"
        }
      ],
      "payable": false,
      "stateMutability": "nonpayable",
      "type": "function"
    }
  ],
  "bytecode": "0x6080604052336000806101000a81548173ffffffffffffffffffffffffffffffffffffffff021916908373ffffffffffffffffffffffffffffffffffffffff160217905550612dac806100536000396000f3fe6080604052600436106100915760003560e01c8063a35bfd2111610059578063a35bfd211461039b578063b69ef8a8146103e9578063bfab3db914610414578063dc34b0aa1461043f578063e2c41dbc1461046a57610091565b806310fe7c481461009657806327dc297e146100c457806338bbfa501461019657806355cae0af146102ff5780638da5cb5b14610344575b600080fd5b6100c2600480360360208110156100ac57600080fd5b8101908080359060200190929190505050610488565b005b3480156100d057600080fd5b50610194600480360360408110156100e757600080fd5b81019080803590602001909291908035906020019064010000000081111561010e57600080fd5b82018360208201111561012057600080fd5b8035906020019184600183028401116401000000008311171561014257600080fd5b91908080601f016020809104026020016040519081016040528093929190818152602001838380828437600081840152601f19601f820116905080830192505050505050509192919290505050610520565b005b3480156101a257600080fd5b506102fd600480360360608110156101b957600080fd5b8101908080359060200190929190803590602001906401000000008111156101e057600080fd5b8201836020820111156101f257600080fd5b8035906020019184600183028401116401000000008311171561021457600080fd5b91908080601f016020809104026020016040519081016040528093929190818152602001838380828437600081840152601f19601f8201169050808301925050505050505091929192908035906020019064010000000081111561027757600080fd5b82018360208201111561028957600080fd5b803590602001918460018302840111640100000000831117156102ab57600080fd5b91908080601f016020809104026020016040519081016040528093929190818152602001838380828437600081840152601f19601f820116905080830192505050505050509192919290505050610563565b005b34801561030b57600080fd5b506103426004803603604081101561032257600080fd5b810190808035906020019092919080359060200190929190505050610675565b005b34801561035057600080fd5b5061035961078f565b604051808273ffffffffffffffffffffffffffffffffffffffff1673ffffffffffffffffffffffffffffffffffffffff16815260200191505060405180910390f35b6103e7600480360360408110156103b157600080fd5b81019080803573ffffffffffffffffffffffffffffffffffffffff169060200190929190803590602001909291905050506107b4565b005b3480156103f557600080fd5b506103fe61095d565b6040518082815260200191505060405180910390f35b34801561042057600080fd5b50610429610963565b6040518082815260200191505060405180910390f35b34801561044b57600080fd5b50610454610a1b565b6040518082815260200191505060405180910390f35b610472610a21565b6040518082815260200191505060405180910390f35b66038d7ea4c6800080341015610506576040517f08c379a00000000000000000000000000000000000000000000000000000000081526004018080602001828103825260168152602001807f4e656564206174206c6561737420312066696e6e65790000000000000000000081525060200191505060405180910390fd5b66038d7ea4c680008202915061051c33836107b4565b5050565b61055f828260006040519080825280601f01601f1916602001820160405280156105595781602001600182028038833980820191505090505b50610563565b5050565b61056b610a94565b73ffffffffffffffffffffffffffffffffffffffff163373ffffffffffffffffffffffffffffffffffffffff16146105a257600080fd5b60006002836040516020018082805190602001908083835b602083106105dd57805182526020820191506020810190506020830392506105ba565b6001836020036101000a0380198251168184511680821785525050505050509050019150506040516020818303038152906040528051906020012060001c8161062257fe5b069050806009819055507fc13d60fe9dffdb6908d2d446cd18134373a51db0738ee04f296eeb9128121cbc816040518082815260200191505060405180910390a161066f84600954610675565b50505050565b61067d612bf4565b60095481600001818152505082816060018181525050600160095414156106b45760018160200190151590811515815250506106c6565b60008160200190151590811515815250505b806007600060095481526020019081526020016000206000820151816000015560208201518160010160006101000a81548160ff02191690831515021790555060408201518160010160016101000a81548160ff0219169083151502179055506060820151816002015590505061073c83610db4565b506006600084815260200190815260200160002060008082016000905560018201600090556002820160006101000a81549073ffffffffffffffffffffffffffffffffffffffff02191690555050505050565b6000809054906101000a900473ffffffffffffffffffffffffffffffffffffffff1681565b6000809050600062030d40905060006107cf83600184611053565b90503493506107dc612c23565b848160000181815250508181602001818152505033816040019073ffffffffffffffffffffffffffffffffffffffff16908173ffffffffffffffffffffffffffffffffffffffff16815250508060066000848152602001908152602001600020600082015181600001556020820151816001015560408201518160020160006101000a81548173ffffffffffffffffffffffffffffffffffffffff021916908373ffffffffffffffffffffffffffffffffffffffff1602179055509050507f5e35a070670d9d1b09ecfeeae77ca75380c3bf10808c2cc6ae99b217977e09bd826040518080602001838152602001828103825260178152602001807f546865204944206f6620746869732063616c6c206973200000000000000000008152506020019250505060405180910390a17fc4dc360d0a9c0677a3379ae0a3d81e887f761e65fdf3d7e00859d1bcd3c47389604051808060200182810382526034815260200180612d446034913960400191505060405180910390a1505050505050565b60085481565b60008060009054906101000a900473ffffffffffffffffffffffffffffffffffffffff1673ffffffffffffffffffffffffffffffffffffffff163373ffffffffffffffffffffffffffffffffffffffff16146109be57600080fd5b6000600854905060006008819055503373ffffffffffffffffffffffffffffffffffffffff166108fc829081150290604051600060405180830381858888f19350505050158015610a13573d6000803e3d6000fd5b508091505090565b60095481565b60008060009054906101000a900473ffffffffffffffffffffffffffffffffffffffff1673ffffffffffffffffffffffffffffffffffffffff163373ffffffffffffffffffffffffffffffffffffffff1614610a7c57600080fd5b34600860008282540192505081905550600854905090565b60008073ffffffffffffffffffffffffffffffffffffffff16600260009054906101000a900473ffffffffffffffffffffffffffffffffffffffff1673ffffffffffffffffffffffffffffffffffffffff161480610b1c57506000610b1a600260009054906101000a900473ffffffffffffffffffffffffffffffffffffffff166115ee565b145b15610b2d57610b2b60006115f9565b505b600260009054906101000a900473ffffffffffffffffffffffffffffffffffffffff1673ffffffffffffffffffffffffffffffffffffffff166338cc48316040518163ffffffff1660e01b8152600401602060405180830381600087803b158015610b9757600080fd5b505af1158015610bab573d6000803e3d6000fd5b505050506040513d6020811015610bc157600080fd5b810190808051906020019092919050505073ffffffffffffffffffffffffffffffffffffffff16600160009054906101000a900473ffffffffffffffffffffffffffffffffffffffff1673ffffffffffffffffffffffffffffffffffffffff1614610d0c57600260009054906101000a900473ffffffffffffffffffffffffffffffffffffffff1673ffffffffffffffffffffffffffffffffffffffff166338cc48316040518163ffffffff1660e01b8152600401602060405180830381600087803b158015610c9057600080fd5b505af1158015610ca4573d6000803e3d6000fd5b505050506040513d6020811015610cba57600080fd5b8101908080519060200190929190505050600160006101000a81548173ffffffffffffffffffffffffffffffffffffffff021916908373ffffffffffffffffffffffffffffffffffffffff1602179055505b600160009054906101000a900473ffffffffffffffffffffffffffffffffffffffff1673ffffffffffffffffffffffffffffffffffffffff1663c281d19e6040518163ffffffff1660e01b815260040160206040518083038186803b158015610d7457600080fd5b505afa158015610d88573d6000803e3d6000fd5b505050506040513d6020811015610d9e57600080fd5b8101908080519060200190929190505050905090565b60008060076000600954815260200190815260200160002060010160009054906101000a900460ff169050600060066000858152602001908152602001600020600001549050600115158215151415610f455760006006600086815260200190815260200160002060020160009054906101000a900473ffffffffffffffffffffffffffffffffffffffff169050600260066000878152602001908152602001600020600001540291508073ffffffffffffffffffffffffffffffffffffffff166108fc839081150290604051600060405180830381858888f19350505050158015610ea4573d6000803e3d6000fd5b5060066000868152602001908152602001600020600001546008600082825403925050819055507f7e7d5e50adfbb4e81427323125a4d6250cf27f8b49ff7305f48c9fcb4d2525ea826040518080602001838152602001828103825260088152602001807f596f7520776f6e200000000000000000000000000000000000000000000000008152506020019250505060405180910390a16000915050610fdc565b60066000858152602001908152602001600020600001546008600082825401925050819055507fdbc743cebacba388691ee70a334a0faaee0490d78d1e3be2ba9081622471cdad816040518080602001838152602001828103825260098152602001807f596f75206c6f73742000000000000000000000000000000000000000000000008152506020019250505060405180910390a15b60009050600060066000868152602001908152602001600020600001819055506007600060095481526020019081526020016000206000808201600090556001820160006101000a81549060ff02191690556001820160016101000a81549060ff0219169055600282016000905550505050919050565b60008083118015611065575060208311155b61106e57600080fd5b600a84029350606060016040519080825280601f01601f1916602001820160405280156110aa5781602001600182028038833980820191505090505b5090508360f81b816000815181106110be57fe5b60200101907effffffffffffffffffffffffffffffffffffffffffffffffffffffffffffff1916908160001a905350606060206040519080825280601f01601f1916602001820160405280156111235781602001600182028038833980820191505090505b509050606060206040519080825280601f01601f19166020018201604052801561115c5781602001600182028038833980820191505090505b509050600061116961160a565b905060208352424118600143034018602084015260208252806020830152606060206040519080825280601f01601f1916602001820160405280156111bd5781602001600182028038833980820191505090505b509050886020820152606060086040519080825280601f01601f1916602001820160405280156111fc5781602001600182028038833980820191505090505b50905061120f826018600884600061192a565b50611218612c5d565b6040518060800160405280878152602001888152602001868152602001848152509050600061127d6040518060400160405280600681526020017f72616e646f6d0000000000000000000000000000000000000000000000000000815250838c611989565b9050606060086040519080825280601f01601f1916602001820160405280156112b55781602001600182028038833980820191505090505b50905060208401517f0100000000000000000000000000000000000000000000000000000000000000810460278301537e01000000000000000000000000000000000000000000000000000000000000810460268301537d010000000000000000000000000000000000000000000000000000000000810460258301537c0100000000000000000000000000000000000000000000000000000000810460248301537b01000000000000000000000000000000000000000000000000000000810460238301537a0100000000000000000000000000000000000000000000000000008104602283015379010000000000000000000000000000000000000000000000000081046021830153780100000000000000000000000000000000000000000000000081046020830153506115db8282856001600481106113f457fe5b602002015160028760006004811061140857fe5b60200201516040518082805190602001908083835b60208310611440578051825260208201915060208101905060208303925061141d565b6001836020036101000a038019825116818451168082178552505050505050905001915050602060405180830381855afa158015611482573d6000803e3d6000fd5b5050506040513d602081101561149757600080fd5b8101908080519060200190929190505050876002600481106114b557fe5b60200201516040516020018085805190602001908083835b602083106114f057805182526020820191506020810190506020830392506114cd565b6001836020036101000a03801982511681845116808217855250505050505090500184805190602001908083835b60208310611541578051825260208201915060208101905060208303925061151e565b6001836020036101000a03801982511681845116808217855250505050505090500183815260200182805190602001908083835b602083106115985780518252602082019150602081019050602083039250611575565b6001836020036101000a03801982511681845116808217855250505050505090500194505050505060405160208183030381529060405280519060200120611cf8565b8199505050505050505050509392505050565b6000813b9050919050565b6000611603611d14565b9050919050565b60008073ffffffffffffffffffffffffffffffffffffffff16600260009054906101000a900473ffffffffffffffffffffffffffffffffffffffff1673ffffffffffffffffffffffffffffffffffffffff16148061169257506000611690600260009054906101000a900473ffffffffffffffffffffffffffffffffffffffff166115ee565b145b156116a3576116a160006115f9565b505b600260009054906101000a900473ffffffffffffffffffffffffffffffffffffffff1673ffffffffffffffffffffffffffffffffffffffff166338cc48316040518163ffffffff1660e01b8152600401602060405180830381600087803b15801561170d57600080fd5b505af1158015611721573d6000803e3d6000fd5b505050506040513d602081101561173757600080fd5b810190808051906020019092919050505073ffffffffffffffffffffffffffffffffffffffff16600160009054906101000a900473ffffffffffffffffffffffffffffffffffffffff1673ffffffffffffffffffffffffffffffffffffffff161461188257600260009054906101000a900473ffffffffffffffffffffffffffffffffffffffff1673ffffffffffffffffffffffffffffffffffffffff166338cc48316040518163ffffffff1660e01b8152600401602060405180830381600087803b15801561180657600080fd5b505af115801561181a573d6000803e3d6000fd5b505050506040513d602081101561183057600080fd5b8101908080519060200190929190505050600160006101000a81548173ffffffffffffffffffffffffffffffffffffffff021916908373ffffffffffffffffffffffffffffffffffffffff1602179055505b600160009054906101000a900473ffffffffffffffffffffffffffffffffffffffff1673ffffffffffffffffffffffffffffffffffffffff1663abaa5f3e6040518163ffffffff1660e01b815260040160206040518083038186803b1580156118ea57600080fd5b505afa1580156118fe573d6000803e3d6000fd5b505050506040513d602081101561191457600080fd5b8101908080519060200190929190505050905090565b606060008285019050808451101561194157600080fd5b600086602001905060008460200190505b86886020010182101561197a5781890151808288015250602082019150602081019050611952565b85935050505095945050505050565b60008073ffffffffffffffffffffffffffffffffffffffff16600260009054906101000a900473ffffffffffffffffffffffffffffffffffffffff1673ffffffffffffffffffffffffffffffffffffffff161480611a1157506000611a0f600260009054906101000a900473ffffffffffffffffffffffffffffffffffffffff166115ee565b145b15611a2257611a2060006115f9565b505b600260009054906101000a900473ffffffffffffffffffffffffffffffffffffffff1673ffffffffffffffffffffffffffffffffffffffff166338cc48316040518163ffffffff1660e01b8152600401602060405180830381600087803b158015611a8c57600080fd5b505af1158015611aa0573d6000803e3d6000fd5b505050506040513d6020811015611ab657600080fd5b810190808051906020019092919050505073ffffffffffffffffffffffffffffffffffffffff16600160009054906101000a900473ffffffffffffffffffffffffffffffffffffffff1673ffffffffffffffffffffffffffffffffffffffff1614611c0157600260009054906101000a900473ffffffffffffffffffffffffffffffffffffffff1673ffffffffffffffffffffffffffffffffffffffff166338cc48316040518163ffffffff1660e01b8152600401602060405180830381600087803b158015611b8557600080fd5b505af1158015611b99573d6000803e3d6000fd5b505050506040513d6020811015611baf57600080fd5b8101908080519060200190929190505050600160006101000a81548173ffffffffffffffffffffffffffffffffffffffff021916908373ffffffffffffffffffffffffffffffffffffffff1602179055505b60606004604051908082528060200260200182016040528015611c3857816020015b6060815260200190600190039081611c235790505b50905083600060048110611c4857fe5b602002015181600081518110611c5a57fe5b602002602001018190525083600160048110611c7257fe5b602002015181600181518110611c8457fe5b602002602001018190525083600260048110611c9c57fe5b602002015181600281518110611cae57fe5b602002602001018190525083600360048110611cc657fe5b602002015181600381518110611cd857fe5b6020026020010181905250611cee85828561226b565b9150509392505050565b8060046000848152602001908152602001600020819055505050565b600080611d34731d3b2638a7cc9f2cb3d298a3da7a90b67e5506ed6115ee565b1115611dd657731d3b2638a7cc9f2cb3d298a3da7a90b67e5506ed600260006101000a81548173ffffffffffffffffffffffffffffffffffffffff021916908373ffffffffffffffffffffffffffffffffffffffff160217905550611dcd6040518060400160405280600b81526020017f6574685f6d61696e6e65740000000000000000000000000000000000000000008152506127d1565b60019050612268565b6000611df573c03a2615d5efaf5f49f60b7bb6583eaec212fdf16115ee565b1115611e975773c03a2615d5efaf5f49f60b7bb6583eaec212fdf1600260006101000a81548173ffffffffffffffffffffffffffffffffffffffff021916908373ffffffffffffffffffffffffffffffffffffffff160217905550611e8e6040518060400160405280600c81526020017f6574685f726f707374656e3300000000000000000000000000000000000000008152506127d1565b60019050612268565b6000611eb673b7a07bcf2ba2f2703b24c0691b5278999c59ac7e6115ee565b1115611f585773b7a07bcf2ba2f2703b24c0691b5278999c59ac7e600260006101000a81548173ffffffffffffffffffffffffffffffffffffffff021916908373ffffffffffffffffffffffffffffffffffffffff160217905550611f4f6040518060400160405280600981526020017f6574685f6b6f76616e00000000000000000000000000000000000000000000008152506127d1565b60019050612268565b6000611f7773146500cfd35b22e4a392fe0adc06de1a1368ed486115ee565b11156120195773146500cfd35b22e4a392fe0adc06de1a1368ed48600260006101000a81548173ffffffffffffffffffffffffffffffffffffffff021916908373ffffffffffffffffffffffffffffffffffffffff1602179055506120106040518060400160405280600b81526020017f6574685f72696e6b6562790000000000000000000000000000000000000000008152506127d1565b60019050612268565b600061203873a2998efd205fb9d4b4963afb70778d6354ad3a416115ee565b11156120da5773a2998efd205fb9d4b4963afb70778d6354ad3a41600260006101000a81548173ffffffffffffffffffffffffffffffffffffffff021916908373ffffffffffffffffffffffffffffffffffffffff1602179055506120d16040518060400160405280600a81526020017f6574685f676f65726c69000000000000000000000000000000000000000000008152506127d1565b60019050612268565b60006120f9736f485c8bf6fc43ea212e93bbf8ce046c7f1cb4756115ee565b111561215d57736f485c8bf6fc43ea212e93bbf8ce046c7f1cb475600260006101000a81548173ffffffffffffffffffffffffffffffffffffffff021916908373ffffffffffffffffffffffffffffffffffffffff16021790555060019050612268565b600061217c7320e12a1f859b3feae5fb2a0a32c18f5a65555bbf6115ee565b11156121e0577320e12a1f859b3feae5fb2a0a32c18f5a65555bbf600260006101000a81548173ffffffffffffffffffffffffffffffffffffffff021916908373ffffffffffffffffffffffffffffffffffffffff16021790555060019050612268565b60006121ff7351efaf4c8b3c9afbd5ab9f4bbc82784ab6ef8faa6115ee565b1115612263577351efaf4c8b3c9afbd5ab9f4bbc82784ab6ef8faa600260006101000a81548173ffffffffffffffffffffffffffffffffffffffff021916908373ffffffffffffffffffffffffffffffffffffffff16021790555060019050612268565b600090505b90565b60008073ffffffffffffffffffffffffffffffffffffffff16600260009054906101000a900473ffffffffffffffffffffffffffffffffffffffff1673ffffffffffffffffffffffffffffffffffffffff1614806122f3575060006122f1600260009054906101000a900473ffffffffffffffffffffffffffffffffffffffff166115ee565b145b156123045761230260006115f9565b505b600260009054906101000a900473ffffffffffffffffffffffffffffffffffffffff1673ffffffffffffffffffffffffffffffffffffffff166338cc48316040518163ffffffff1660e01b8152600401602060405180830381600087803b15801561236e57600080fd5b505af1158015612382573d6000803e3d6000fd5b505050506040513d602081101561239857600080fd5b810190808051906020019092919050505073ffffffffffffffffffffffffffffffffffffffff16600160009054906101000a900473ffffffffffffffffffffffffffffffffffffffff1673ffffffffffffffffffffffffffffffffffffffff16146124e357600260009054906101000a900473ffffffffffffffffffffffffffffffffffffffff1673ffffffffffffffffffffffffffffffffffffffff166338cc48316040518163ffffffff1660e01b8152600401602060405180830381600087803b15801561246757600080fd5b505af115801561247b573d6000803e3d6000fd5b505050506040513d602081101561249157600080fd5b8101908080519060200190929190505050600160006101000a81548173ffffffffffffffffffffffffffffffffffffffff021916908373ffffffffffffffffffffffffffffffffffffffff1602179055505b6000600160009054906101000a900473ffffffffffffffffffffffffffffffffffffffff1673ffffffffffffffffffffffffffffffffffffffff16632ef3accc86856040518363ffffffff1660e01b81526004018080602001838152602001828103825284818151815260200191508051906020019080838360005b8381101561257a57808201518184015260208101905061255f565b50505050905090810190601f1680156125a75780820380516001836020036101000a031916815260200191505b509350505050602060405180830381600087803b1580156125c757600080fd5b505af11580156125db573d6000803e3d6000fd5b505050506040513d60208110156125f157600080fd5b81019080805190602001909291905050509050823a02670de0b6b3a764000001811115612624576000801b9150506127ca565b606061262f856127eb565b9050600160009054906101000a900473ffffffffffffffffffffffffffffffffffffffff1673ffffffffffffffffffffffffffffffffffffffff1663c55c1cb68360008985896040518663ffffffff1660e01b8152600401808581526020018060200180602001848152602001838103835286818151815260200191508051906020019080838360005b838110156126d45780820151818401526020810190506126b9565b50505050905090810190601f1680156127015780820380516001836020036101000a031916815260200191505b50838103825285818151815260200191508051906020019080838360005b8381101561273a57808201518184015260208101905061271f565b50505050905090810190601f1680156127675780820380516001836020036101000a031916815260200191505b5096505050505050506020604051808303818588803b15801561278957600080fd5b505af115801561279d573d6000803e3d6000fd5b50505050506040513d60208110156127b457600080fd5b8101908080519060200190929190505050925050505b9392505050565b80600390805190602001906127e7929190612c84565b5050565b60606127f561286b565b6127fd612d04565b61280981610400612877565b612812816128c1565b60008090505b83518110156128545761284784828151811061283057fe5b6020026020010151836128cf90919063ffffffff16565b8080600101915050612818565b5061285e816128f4565b8060000151915050919050565b60405180590338823950565b600081905060006020828161288857fe5b06146128a1576020818161289857fe5b06602003810190505b808360200181815250506040518084526000815281810160405250505050565b6128cc816004612902565b50565b6128dc8260028351612923565b6128ef8183612a6390919063ffffffff16565b505050565b6128ff816007612902565b50565b61291f601f60058360ff16901b1783612b0e90919063ffffffff16565b5050565b6017811161294f5761294a8160058460ff16901b60ff161784612b0e90919063ffffffff16565b612a5e565b60ff811161299057612974601860058460ff16901b1784612b0e90919063ffffffff16565b61298a81600185612b4e9092919063ffffffff16565b50612a5d565b61ffff81116129d2576129b6601960058460ff16901b1784612b0e90919063ffffffff16565b6129cc81600285612b4e9092919063ffffffff16565b50612a5c565b63ffffffff8111612a16576129fa601a60058460ff16901b1784612b0e90919063ffffffff16565b612a1081600485612b4e9092919063ffffffff16565b50612a5b565b67ffffffffffffffff8111612a5a57612a42601b60058460ff16901b1784612b0e90919063ffffffff16565b612a5881600885612b4e9092919063ffffffff16565b505b5b5b5b5b505050565b612a6b612d04565b82602001518360000151518351011115612a9b57612a9a836002612a9486602001518651612bb5565b02612bd1565b5b60008060008451905085518051602081830101945086518101825260208701935050505b60208110612ae25781518352602083019250602082019150602081039050612abf565b60006001826020036101000a039050801983511681855116818117865250508694505050505092915050565b81602001516001836000015151011115612b3457612b33826002846020015102612bd1565b5b815180516020818301018381536001820183525050505050565b612b56612d04565b836020015184600001515183011115612b8457612b83846002612b7d876020015186612bb5565b02612bd1565b5b60006001836101000a0390508451805184818301018684198251161781528582018352505050849150509392505050565b600081831115612bc757829050612bcb565b8190505b92915050565b606082600001519050612be48383612877565b612bee8382612a63565b50505050565b604051806080016040528060008152602001600015158152602001600015158152602001600080191681525090565b60405180606001604052806000815260200160008019168152602001600073ffffffffffffffffffffffffffffffffffffffff1681525090565b60405180608001604052806004905b6060815260200190600190039081612c6c5790505090565b828054600181600116156101000203166002900490600052602060002090601f016020900481019282601f10612cc557805160ff1916838001178555612cf3565b82800160010185558215612cf3579182015b82811115612cf2578251825591602001919060010190612cd7565b5b509050612d009190612d1e565b5090565b604051806040016040528060608152602001600081525090565b612d4091905b80821115612d3c576000816000905550600101612d24565b5090565b9056fe50726f7661626c65207175657279207761732073656e742c207374616e64696e6720627920666f722074686520616e737765722ea265627a7a723158204e9ff234c3c0630f297a041d85395e20daac7f60634b0e1dd872338d6fa6f1dd64736f6c634300050c0032",
  "source": "pragma solidity >=0.5.12 < 0.6.0;\r\nimport \"./Ownable.sol\";\r\nimport \"./provableAPI.sol\";\r\n\r\ncontract CoinFlip is Ownable, usingProvable{\r\n\r\n\r\n  //the minimum cost to play\r\n modifier costs(uint cost){\r\n     require(msg.value >= cost, \"Need at least 1 finney\");\r\n     _;\r\n\r\n\r\n }\r\n\r\n //bet structure\r\n struct bet{\r\n     uint betAmount;\r\n     bytes32 id;\r\n     address payable punter;\r\n }\r\n\r\n struct result{\r\n     uint value;\r\n     bool isWin;\r\n     bool canPlayAgain;\r\n     bytes32 id;\r\n }\r\n\r\n //bet mapping\r\n mapping (bytes32 => bet) internal bets;\r\n mapping (uint => result) internal results;\r\n\r\n //contract balance\r\n uint public balance;\r\n\r\n //initial function for owner to deposit funds into the contract\r\n function depositFunds() public onlyOwner payable returns(uint){\r\n   balance += msg.value;\r\n   return balance;\r\n\r\n }\r\n\r\n function placeBet(uint betAmount) public payable costs (1 finney){\r\n      betAmount = betAmount * 1e15;\r\n\r\n     random(msg.sender,betAmount);\r\n\r\n\r\n\r\n }\r\n\r\nuint256 constant NUM_RANDOM_BYTES_REQUESTED = 1;\r\nuint256 public latestNumber;\r\n\r\n\r\n\r\nevent LogNewProvableQuery(string description);\r\nevent generatedRandomNumber(uint256 randomNumber);\r\nevent idCheck(string a, bytes32 q_id);\r\nevent youWin (string, uint theBetAmount);\r\nevent youLose(string, uint theBetAmount);\r\n\r\n\r\n\r\n\r\n\r\n //the oracle function to start the RNG getting process\r\n function random(address punter, uint _betAmount) payable public  {\r\n uint256 QUERY_EXECUTION_DELAY =0;\r\n uint GAS_FOR_CALLBACK = 200000;\r\n\r\n\r\nbytes32 q_id =  provable_newRandomDSQuery(\r\n     QUERY_EXECUTION_DELAY,\r\n     NUM_RANDOM_BYTES_REQUESTED,\r\n     GAS_FOR_CALLBACK\r\n   );\r\n    _betAmount = msg.value;\r\n\r\n   bet memory newBet;\r\n   newBet.betAmount = _betAmount;\r\n   newBet.id = q_id;\r\n   //newBet.canPlayAgain = false;\r\n   newBet.punter = msg.sender;\r\n   bets[q_id] = newBet;\r\n\r\n\r\n emit idCheck(\"The ID of this call is \", q_id);\r\n emit LogNewProvableQuery(\"Provable query was sent, standing by for the answer.\");\r\n\r\n}\r\n\r\n\r\n //oracle callback\r\n function __callback(bytes32 _queryId, string memory _result, bytes memory _proof) public {\r\n require(msg.sender == provable_cbAddress());\r\n\r\n uint256 randomNumber = uint256(keccak256(abi.encodePacked(_result))) % 2;\r\n\r\n latestNumber = randomNumber;\r\n emit generatedRandomNumber(randomNumber);\r\n saveResults(_queryId, latestNumber);\r\n\r\n\r\n\r\n}\r\n\r\n     //check if player won or not. If they did, transfer winnings to them\r\n  function winOrLose(bytes32 q_id) internal returns (uint){\r\n     bool checkFlag = results[latestNumber].isWin;\r\n     uint toReward = bets[q_id].betAmount;\r\n      if (checkFlag == true){\r\n         //pay player\r\n         address payable payPlayer = bets[q_id].punter;\r\n         toReward = bets[q_id].betAmount * 2;\r\n         payPlayer.transfer(toReward);\r\n\r\n         balance -= bets[q_id].betAmount;\r\n\r\n         emit youWin(\"You won \", toReward);\r\n         toReward  =0;\r\n     }\r\n\r\n     else {\r\n         //keep money\r\n         balance += bets[q_id].betAmount;\r\n         emit youLose(\"You lost \", toReward);\r\n     }\r\n\r\n     toReward = 0;\r\n     bets[q_id].betAmount = 0;\r\n     delete results[latestNumber];\r\n\r\n  }\r\n  //save the result of the rng to the result mapping\r\n  function saveResults(bytes32 q_id, uint value) public{\r\n     result memory newResult;\r\n     newResult.value = latestNumber;\r\n     newResult.id = q_id;\r\n     //newResult.canPlayAgain = true;\r\n\r\n     if (latestNumber  ==1){\r\n         newResult.isWin = true;\r\n     }\r\n\r\n     else {\r\n         newResult.isWin = false;\r\n     }\r\n\r\n     results[latestNumber] = newResult;\r\n     winOrLose(q_id);\r\n     delete bets[q_id];\r\n\r\n }\r\n\r\n //owner can withdraw contract balance\r\n  function withdrawContractBalance () public onlyOwner returns (uint){\r\n      uint toSend = balance;\r\n      balance = 0;\r\n      msg.sender.transfer(toSend);\r\n      return toSend;\r\n\r\n  }\r\n\r\n\r\n}\r\n",
  "sourcePath": "D:/Users/victo/Desktop/Crypto Programming/Ethereum/Coinflip/contracts/CoinFlip.sol",
  "compiler": {
    "name": "solc",
    "version": "0.5.12+commit.7709ece9.Emscripten.clang"
  },
  "schemaVersion": "3.0.16",
  "updatedAt": "2020-11-02T07:46:40.804Z",
  "devdoc": {
    "methods": {
      "__callback(bytes32,string)": {
        "details": "The following `__callback` functions are just placeholders ideally     meant to be defined in child contract when proofs are used.     The function bodies simply silence compiler warnings."
      }
    }
  },
  "userdoc": {
    "methods": {}
  }
}