{
  "contractName": "CoinFlip",
  "abi": [
    {
      "anonymous": false,
      "inputs": [
        {
          "indexed": false,
          "internalType": "string",
          "name": "description",
          "type": "string"
        }
      ],
      "name": "LogNewProvableQuery",
      "type": "event"
    },
    {
      "anonymous": false,
      "inputs": [
        {
          "indexed": false,
          "internalType": "uint256",
          "name": "randomNumber",
          "type": "uint256"
        }
      ],
      "name": "generatedRandomNumber",
      "type": "event"
    },
    {
      "anonymous": false,
      "inputs": [
        {
          "indexed": false,
          "internalType": "string",
          "name": "a",
          "type": "string"
        },
        {
          "indexed": false,
          "internalType": "bytes32",
          "name": "q_id",
          "type": "bytes32"
        }
      ],
      "name": "idCheck",
      "type": "event"
    },
    {
      "anonymous": false,
      "inputs": [
        {
          "indexed": false,
          "internalType": "string",
          "name": "",
          "type": "string"
        },
        {
          "indexed": false,
          "internalType": "uint256",
          "name": "",
          "type": "uint256"
        }
      ],
      "name": "youLose",
      "type": "event"
    },
    {
      "anonymous": false,
      "inputs": [
        {
          "indexed": false,
          "internalType": "string",
          "name": "",
          "type": "string"
        },
        {
          "indexed": false,
          "internalType": "uint256",
          "name": "",
          "type": "uint256"
        }
      ],
      "name": "youWin",
      "type": "event"
    },
    {
      "constant": true,
      "inputs": [],
      "name": "balance",
      "outputs": [
        {
          "internalType": "uint256",
          "name": "",
          "type": "uint256"
        }
      ],
      "payable": false,
      "stateMutability": "view",
      "type": "function"
    },
    {
      "constant": true,
      "inputs": [],
      "name": "latestNumber",
      "outputs": [
        {
          "internalType": "uint256",
          "name": "",
          "type": "uint256"
        }
      ],
      "payable": false,
      "stateMutability": "view",
      "type": "function"
    },
    {
      "constant": true,
      "inputs": [],
      "name": "owner",
      "outputs": [
        {
          "internalType": "address",
          "name": "",
          "type": "address"
        }
      ],
      "payable": false,
      "stateMutability": "view",
      "type": "function"
    },
    {
      "constant": false,
      "inputs": [],
      "name": "depositFunds",
      "outputs": [
        {
          "internalType": "uint256",
          "name": "",
          "type": "uint256"
        }
      ],
      "payable": true,
      "stateMutability": "payable",
      "type": "function"
    },
    {
      "constant": false,
      "inputs": [
        {
          "internalType": "uint256",
          "name": "betAmount",
          "type": "uint256"
        }
      ],
      "name": "placeBet",
      "outputs": [],
      "payable": true,
      "stateMutability": "payable",
      "type": "function"
    },
    {
      "constant": false,
      "inputs": [
        {
          "internalType": "address",
          "name": "punter",
          "type": "address"
        },
        {
          "internalType": "uint256",
          "name": "_betAmount",
          "type": "uint256"
        }
      ],
      "name": "random",
      "outputs": [],
      "payable": true,
      "stateMutability": "payable",
      "type": "function"
    },
    {
      "constant": false,
      "inputs": [
        {
          "internalType": "bytes32",
          "name": "_myid",
          "type": "bytes32"
        },
        {
          "internalType": "string",
          "name": "_result",
          "type": "string"
        }
      ],
      "name": "__callback",
      "outputs": [],
      "payable": false,
      "stateMutability": "nonpayable",
      "type": "function"
    },
    {
      "constant": false,
      "inputs": [
        {
          "internalType": "bytes32",
          "name": "_queryId",
          "type": "bytes32"
        },
        {
          "internalType": "string",
          "name": "_result",
          "type": "string"
        },
        {
          "internalType": "bytes",
          "name": "_proof",
          "type": "bytes"
        }
      ],
      "name": "__callback",
      "outputs": [],
      "payable": false,
      "stateMutability": "nonpayable",
      "type": "function"
    },
    {
      "constant": false,
      "inputs": [
        {
          "internalType": "bytes32",
          "name": "q_id",
          "type": "bytes32"
        },
        {
          "internalType": "uint256",
          "name": "value",
          "type": "uint256"
        }
      ],
      "name": "saveResults",
      "outputs": [],
      "payable": false,
      "stateMutability": "nonpayable",
      "type": "function"
    }
  ],
  "bytecode": "0x6080604052336000806101000a81548173ffffffffffffffffffffffffffffffffffffffff021916908373ffffffffffffffffffffffffffffffffffffffff160217905550612c9b806100536000396000f3fe6080604052600436106100865760003560e01c80638da5cb5b116100595780638da5cb5b14610339578063a35bfd2114610390578063b69ef8a8146103de578063dc34b0aa14610409578063e2c41dbc1461043457610086565b806310fe7c481461008b57806327dc297e146100b957806338bbfa501461018b57806355cae0af146102f4575b600080fd5b6100b7600480360360208110156100a157600080fd5b8101908080359060200190929190505050610452565b005b3480156100c557600080fd5b50610189600480360360408110156100dc57600080fd5b81019080803590602001909291908035906020019064010000000081111561010357600080fd5b82018360208201111561011557600080fd5b8035906020019184600183028401116401000000008311171561013757600080fd5b91908080601f016020809104026020016040519081016040528093929190818152602001838380828437600081840152601f19601f8201169050808301925050505050505091929192905050506104ea565b005b34801561019757600080fd5b506102f2600480360360608110156101ae57600080fd5b8101908080359060200190929190803590602001906401000000008111156101d557600080fd5b8201836020820111156101e757600080fd5b8035906020019184600183028401116401000000008311171561020957600080fd5b91908080601f016020809104026020016040519081016040528093929190818152602001838380828437600081840152601f19601f8201169050808301925050505050505091929192908035906020019064010000000081111561026c57600080fd5b82018360208201111561027e57600080fd5b803590602001918460018302840111640100000000831117156102a057600080fd5b91908080601f016020809104026020016040519081016040528093929190818152602001838380828437600081840152601f19601f82011690508083019250505050505050919291929050505061052d565b005b34801561030057600080fd5b506103376004803603604081101561031757600080fd5b810190808035906020019092919080359060200190929190505050610649565b005b34801561034557600080fd5b5061034e610774565b604051808273ffffffffffffffffffffffffffffffffffffffff1673ffffffffffffffffffffffffffffffffffffffff16815260200191505060405180910390f35b6103dc600480360360408110156103a657600080fd5b81019080803573ffffffffffffffffffffffffffffffffffffffff16906020019092919080359060200190929190505050610799565b005b3480156103ea57600080fd5b506103f3610942565b6040518082815260200191505060405180910390f35b34801561041557600080fd5b5061041e610948565b6040518082815260200191505060405180910390f35b61043c61094e565b6040518082815260200191505060405180910390f35b66038d7ea4c68000803410156104d0576040517f08c379a00000000000000000000000000000000000000000000000000000000081526004018080602001828103825260168152602001807f4e656564206174206c6561737420312066696e6e65790000000000000000000081525060200191505060405180910390fd5b66038d7ea4c68000820291506104e63383610799565b5050565b610529828260006040519080825280601f01601f1916602001820160405280156105235781602001600182028038833980820191505090505b5061052d565b5050565b6105356109c1565b73ffffffffffffffffffffffffffffffffffffffff163373ffffffffffffffffffffffffffffffffffffffff161461056c57600080fd5b60006002836040516020018082805190602001908083835b602083106105a75780518252602082019150602081019050602083039250610584565b6001836020036101000a0380198251168184511680821785525050505050509050019150506040516020818303038152906040528051906020012060001c816105ec57fe5b069050806009819055507fc13d60fe9dffdb6908d2d446cd18134373a51db0738ee04f296eeb9128121cbc816040518082815260200191505060405180910390a161063984600954610649565b61064284610ce1565b5050505050565b610651612ae3565b600954816000018181525050828160600181815250506001816040019015159081151581525050600160095414156106995760018160200190151590811515815250506106ab565b60008160200190151590811515815250505b806007600060095481526020019081526020016000206000820151816000015560208201518160010160006101000a81548160ff02191690831515021790555060408201518160010160016101000a81548160ff0219169083151502179055506060820151816002015590505061072183610ce1565b506006600084815260200190815260200160002060008082016000905560018201600090556002820160006101000a81549073ffffffffffffffffffffffffffffffffffffffff02191690555050505050565b6000809054906101000a900473ffffffffffffffffffffffffffffffffffffffff1681565b6000809050600062030d40905060006107b483600184610f42565b90503493506107c1612b12565b848160000181815250508181602001818152505033816040019073ffffffffffffffffffffffffffffffffffffffff16908173ffffffffffffffffffffffffffffffffffffffff16815250508060066000848152602001908152602001600020600082015181600001556020820151816001015560408201518160020160006101000a81548173ffffffffffffffffffffffffffffffffffffffff021916908373ffffffffffffffffffffffffffffffffffffffff1602179055509050507f5e35a070670d9d1b09ecfeeae77ca75380c3bf10808c2cc6ae99b217977e09bd826040518080602001838152602001828103825260178152602001807f546865204944206f6620746869732063616c6c206973200000000000000000008152506020019250505060405180910390a17fc4dc360d0a9c0677a3379ae0a3d81e887f761e65fdf3d7e00859d1bcd3c47389604051808060200182810382526034815260200180612c336034913960400191505060405180910390a1505050505050565b60085481565b60095481565b60008060009054906101000a900473ffffffffffffffffffffffffffffffffffffffff1673ffffffffffffffffffffffffffffffffffffffff163373ffffffffffffffffffffffffffffffffffffffff16146109a957600080fd5b34600860008282540192505081905550600854905090565b60008073ffffffffffffffffffffffffffffffffffffffff16600260009054906101000a900473ffffffffffffffffffffffffffffffffffffffff1673ffffffffffffffffffffffffffffffffffffffff161480610a4957506000610a47600260009054906101000a900473ffffffffffffffffffffffffffffffffffffffff166114dd565b145b15610a5a57610a5860006114e8565b505b600260009054906101000a900473ffffffffffffffffffffffffffffffffffffffff1673ffffffffffffffffffffffffffffffffffffffff166338cc48316040518163ffffffff1660e01b8152600401602060405180830381600087803b158015610ac457600080fd5b505af1158015610ad8573d6000803e3d6000fd5b505050506040513d6020811015610aee57600080fd5b810190808051906020019092919050505073ffffffffffffffffffffffffffffffffffffffff16600160009054906101000a900473ffffffffffffffffffffffffffffffffffffffff1673ffffffffffffffffffffffffffffffffffffffff1614610c3957600260009054906101000a900473ffffffffffffffffffffffffffffffffffffffff1673ffffffffffffffffffffffffffffffffffffffff166338cc48316040518163ffffffff1660e01b8152600401602060405180830381600087803b158015610bbd57600080fd5b505af1158015610bd1573d6000803e3d6000fd5b505050506040513d6020811015610be757600080fd5b8101908080519060200190929190505050600160006101000a81548173ffffffffffffffffffffffffffffffffffffffff021916908373ffffffffffffffffffffffffffffffffffffffff1602179055505b600160009054906101000a900473ffffffffffffffffffffffffffffffffffffffff1673ffffffffffffffffffffffffffffffffffffffff1663c281d19e6040518163ffffffff1660e01b815260040160206040518083038186803b158015610ca157600080fd5b505afa158015610cb5573d6000803e3d6000fd5b505050506040513d6020811015610ccb57600080fd5b8101908080519060200190929190505050905090565b60008060076000600954815260200190815260200160002060010160009054906101000a900460ff169050600115158115151415610e735760006006600085815260200190815260200160002060020160009054906101000a900473ffffffffffffffffffffffffffffffffffffffff1690506000600260066000878152602001908152602001600020600001540290508173ffffffffffffffffffffffffffffffffffffffff166108fc829081150290604051600060405180830381858888f19350505050158015610db8573d6000803e3d6000fd5b5060066000868152602001908152602001600020600001546008600082825403925050819055507f7e7d5e50adfbb4e81427323125a4d6250cf27f8b49ff7305f48c9fcb4d2525ea60026006600088815260200190815260200160002060000154026040518080602001838152602001828103825260088152602001807f596f7520776f6e200000000000000000000000000000000000000000000000008152506020019250505060405180910390a1600090505050610f20565b60066000848152602001908152602001600020600001546008600082825401925050819055507fdbc743cebacba388691ee70a334a0faaee0490d78d1e3be2ba9081622471cdad60066000858152602001908152602001600020600001546040518080602001838152602001828103825260098152602001807f596f75206c6f73742000000000000000000000000000000000000000000000008152506020019250505060405180910390a15b6000600660008581526020019081526020016000206000018190555050919050565b60008083118015610f54575060208311155b610f5d57600080fd5b600a84029350606060016040519080825280601f01601f191660200182016040528015610f995781602001600182028038833980820191505090505b5090508360f81b81600081518110610fad57fe5b60200101907effffffffffffffffffffffffffffffffffffffffffffffffffffffffffffff1916908160001a905350606060206040519080825280601f01601f1916602001820160405280156110125781602001600182028038833980820191505090505b509050606060206040519080825280601f01601f19166020018201604052801561104b5781602001600182028038833980820191505090505b50905060006110586114f9565b905060208352424118600143034018602084015260208252806020830152606060206040519080825280601f01601f1916602001820160405280156110ac5781602001600182028038833980820191505090505b509050886020820152606060086040519080825280601f01601f1916602001820160405280156110eb5781602001600182028038833980820191505090505b5090506110fe8260186008846000611819565b50611107612b4c565b6040518060800160405280878152602001888152602001868152602001848152509050600061116c6040518060400160405280600681526020017f72616e646f6d0000000000000000000000000000000000000000000000000000815250838c611878565b9050606060086040519080825280601f01601f1916602001820160405280156111a45781602001600182028038833980820191505090505b50905060208401517f0100000000000000000000000000000000000000000000000000000000000000810460278301537e01000000000000000000000000000000000000000000000000000000000000810460268301537d010000000000000000000000000000000000000000000000000000000000810460258301537c0100000000000000000000000000000000000000000000000000000000810460248301537b01000000000000000000000000000000000000000000000000000000810460238301537a0100000000000000000000000000000000000000000000000000008104602283015379010000000000000000000000000000000000000000000000000081046021830153780100000000000000000000000000000000000000000000000081046020830153506114ca8282856001600481106112e357fe5b60200201516002876000600481106112f757fe5b60200201516040518082805190602001908083835b6020831061132f578051825260208201915060208101905060208303925061130c565b6001836020036101000a038019825116818451168082178552505050505050905001915050602060405180830381855afa158015611371573d6000803e3d6000fd5b5050506040513d602081101561138657600080fd5b8101908080519060200190929190505050876002600481106113a457fe5b60200201516040516020018085805190602001908083835b602083106113df57805182526020820191506020810190506020830392506113bc565b6001836020036101000a03801982511681845116808217855250505050505090500184805190602001908083835b60208310611430578051825260208201915060208101905060208303925061140d565b6001836020036101000a03801982511681845116808217855250505050505090500183815260200182805190602001908083835b602083106114875780518252602082019150602081019050602083039250611464565b6001836020036101000a03801982511681845116808217855250505050505090500194505050505060405160208183030381529060405280519060200120611be7565b8199505050505050505050509392505050565b6000813b9050919050565b60006114f2611c03565b9050919050565b60008073ffffffffffffffffffffffffffffffffffffffff16600260009054906101000a900473ffffffffffffffffffffffffffffffffffffffff1673ffffffffffffffffffffffffffffffffffffffff1614806115815750600061157f600260009054906101000a900473ffffffffffffffffffffffffffffffffffffffff166114dd565b145b156115925761159060006114e8565b505b600260009054906101000a900473ffffffffffffffffffffffffffffffffffffffff1673ffffffffffffffffffffffffffffffffffffffff166338cc48316040518163ffffffff1660e01b8152600401602060405180830381600087803b1580156115fc57600080fd5b505af1158015611610573d6000803e3d6000fd5b505050506040513d602081101561162657600080fd5b810190808051906020019092919050505073ffffffffffffffffffffffffffffffffffffffff16600160009054906101000a900473ffffffffffffffffffffffffffffffffffffffff1673ffffffffffffffffffffffffffffffffffffffff161461177157600260009054906101000a900473ffffffffffffffffffffffffffffffffffffffff1673ffffffffffffffffffffffffffffffffffffffff166338cc48316040518163ffffffff1660e01b8152600401602060405180830381600087803b1580156116f557600080fd5b505af1158015611709573d6000803e3d6000fd5b505050506040513d602081101561171f57600080fd5b8101908080519060200190929190505050600160006101000a81548173ffffffffffffffffffffffffffffffffffffffff021916908373ffffffffffffffffffffffffffffffffffffffff1602179055505b600160009054906101000a900473ffffffffffffffffffffffffffffffffffffffff1673ffffffffffffffffffffffffffffffffffffffff1663abaa5f3e6040518163ffffffff1660e01b815260040160206040518083038186803b1580156117d957600080fd5b505afa1580156117ed573d6000803e3d6000fd5b505050506040513d602081101561180357600080fd5b8101908080519060200190929190505050905090565b606060008285019050808451101561183057600080fd5b600086602001905060008460200190505b8688602001018210156118695781890151808288015250602082019150602081019050611841565b85935050505095945050505050565b60008073ffffffffffffffffffffffffffffffffffffffff16600260009054906101000a900473ffffffffffffffffffffffffffffffffffffffff1673ffffffffffffffffffffffffffffffffffffffff161480611900575060006118fe600260009054906101000a900473ffffffffffffffffffffffffffffffffffffffff166114dd565b145b156119115761190f60006114e8565b505b600260009054906101000a900473ffffffffffffffffffffffffffffffffffffffff1673ffffffffffffffffffffffffffffffffffffffff166338cc48316040518163ffffffff1660e01b8152600401602060405180830381600087803b15801561197b57600080fd5b505af115801561198f573d6000803e3d6000fd5b505050506040513d60208110156119a557600080fd5b810190808051906020019092919050505073ffffffffffffffffffffffffffffffffffffffff16600160009054906101000a900473ffffffffffffffffffffffffffffffffffffffff1673ffffffffffffffffffffffffffffffffffffffff1614611af057600260009054906101000a900473ffffffffffffffffffffffffffffffffffffffff1673ffffffffffffffffffffffffffffffffffffffff166338cc48316040518163ffffffff1660e01b8152600401602060405180830381600087803b158015611a7457600080fd5b505af1158015611a88573d6000803e3d6000fd5b505050506040513d6020811015611a9e57600080fd5b8101908080519060200190929190505050600160006101000a81548173ffffffffffffffffffffffffffffffffffffffff021916908373ffffffffffffffffffffffffffffffffffffffff1602179055505b60606004604051908082528060200260200182016040528015611b2757816020015b6060815260200190600190039081611b125790505b50905083600060048110611b3757fe5b602002015181600081518110611b4957fe5b602002602001018190525083600160048110611b6157fe5b602002015181600181518110611b7357fe5b602002602001018190525083600260048110611b8b57fe5b602002015181600281518110611b9d57fe5b602002602001018190525083600360048110611bb557fe5b602002015181600381518110611bc757fe5b6020026020010181905250611bdd85828561215a565b9150509392505050565b8060046000848152602001908152602001600020819055505050565b600080611c23731d3b2638a7cc9f2cb3d298a3da7a90b67e5506ed6114dd565b1115611cc557731d3b2638a7cc9f2cb3d298a3da7a90b67e5506ed600260006101000a81548173ffffffffffffffffffffffffffffffffffffffff021916908373ffffffffffffffffffffffffffffffffffffffff160217905550611cbc6040518060400160405280600b81526020017f6574685f6d61696e6e65740000000000000000000000000000000000000000008152506126c0565b60019050612157565b6000611ce473c03a2615d5efaf5f49f60b7bb6583eaec212fdf16114dd565b1115611d865773c03a2615d5efaf5f49f60b7bb6583eaec212fdf1600260006101000a81548173ffffffffffffffffffffffffffffffffffffffff021916908373ffffffffffffffffffffffffffffffffffffffff160217905550611d7d6040518060400160405280600c81526020017f6574685f726f707374656e3300000000000000000000000000000000000000008152506126c0565b60019050612157565b6000611da573b7a07bcf2ba2f2703b24c0691b5278999c59ac7e6114dd565b1115611e475773b7a07bcf2ba2f2703b24c0691b5278999c59ac7e600260006101000a81548173ffffffffffffffffffffffffffffffffffffffff021916908373ffffffffffffffffffffffffffffffffffffffff160217905550611e3e6040518060400160405280600981526020017f6574685f6b6f76616e00000000000000000000000000000000000000000000008152506126c0565b60019050612157565b6000611e6673146500cfd35b22e4a392fe0adc06de1a1368ed486114dd565b1115611f085773146500cfd35b22e4a392fe0adc06de1a1368ed48600260006101000a81548173ffffffffffffffffffffffffffffffffffffffff021916908373ffffffffffffffffffffffffffffffffffffffff160217905550611eff6040518060400160405280600b81526020017f6574685f72696e6b6562790000000000000000000000000000000000000000008152506126c0565b60019050612157565b6000611f2773a2998efd205fb9d4b4963afb70778d6354ad3a416114dd565b1115611fc95773a2998efd205fb9d4b4963afb70778d6354ad3a41600260006101000a81548173ffffffffffffffffffffffffffffffffffffffff021916908373ffffffffffffffffffffffffffffffffffffffff160217905550611fc06040518060400160405280600a81526020017f6574685f676f65726c69000000000000000000000000000000000000000000008152506126c0565b60019050612157565b6000611fe8736f485c8bf6fc43ea212e93bbf8ce046c7f1cb4756114dd565b111561204c57736f485c8bf6fc43ea212e93bbf8ce046c7f1cb475600260006101000a81548173ffffffffffffffffffffffffffffffffffffffff021916908373ffffffffffffffffffffffffffffffffffffffff16021790555060019050612157565b600061206b7320e12a1f859b3feae5fb2a0a32c18f5a65555bbf6114dd565b11156120cf577320e12a1f859b3feae5fb2a0a32c18f5a65555bbf600260006101000a81548173ffffffffffffffffffffffffffffffffffffffff021916908373ffffffffffffffffffffffffffffffffffffffff16021790555060019050612157565b60006120ee7351efaf4c8b3c9afbd5ab9f4bbc82784ab6ef8faa6114dd565b1115612152577351efaf4c8b3c9afbd5ab9f4bbc82784ab6ef8faa600260006101000a81548173ffffffffffffffffffffffffffffffffffffffff021916908373ffffffffffffffffffffffffffffffffffffffff16021790555060019050612157565b600090505b90565b60008073ffffffffffffffffffffffffffffffffffffffff16600260009054906101000a900473ffffffffffffffffffffffffffffffffffffffff1673ffffffffffffffffffffffffffffffffffffffff1614806121e2575060006121e0600260009054906101000a900473ffffffffffffffffffffffffffffffffffffffff166114dd565b145b156121f3576121f160006114e8565b505b600260009054906101000a900473ffffffffffffffffffffffffffffffffffffffff1673ffffffffffffffffffffffffffffffffffffffff166338cc48316040518163ffffffff1660e01b8152600401602060405180830381600087803b15801561225d57600080fd5b505af1158015612271573d6000803e3d6000fd5b505050506040513d602081101561228757600080fd5b810190808051906020019092919050505073ffffffffffffffffffffffffffffffffffffffff16600160009054906101000a900473ffffffffffffffffffffffffffffffffffffffff1673ffffffffffffffffffffffffffffffffffffffff16146123d257600260009054906101000a900473ffffffffffffffffffffffffffffffffffffffff1673ffffffffffffffffffffffffffffffffffffffff166338cc48316040518163ffffffff1660e01b8152600401602060405180830381600087803b15801561235657600080fd5b505af115801561236a573d6000803e3d6000fd5b505050506040513d602081101561238057600080fd5b8101908080519060200190929190505050600160006101000a81548173ffffffffffffffffffffffffffffffffffffffff021916908373ffffffffffffffffffffffffffffffffffffffff1602179055505b6000600160009054906101000a900473ffffffffffffffffffffffffffffffffffffffff1673ffffffffffffffffffffffffffffffffffffffff16632ef3accc86856040518363ffffffff1660e01b81526004018080602001838152602001828103825284818151815260200191508051906020019080838360005b8381101561246957808201518184015260208101905061244e565b50505050905090810190601f1680156124965780820380516001836020036101000a031916815260200191505b509350505050602060405180830381600087803b1580156124b657600080fd5b505af11580156124ca573d6000803e3d6000fd5b505050506040513d60208110156124e057600080fd5b81019080805190602001909291905050509050823a02670de0b6b3a764000001811115612513576000801b9150506126b9565b606061251e856126da565b9050600160009054906101000a900473ffffffffffffffffffffffffffffffffffffffff1673ffffffffffffffffffffffffffffffffffffffff1663c55c1cb68360008985896040518663ffffffff1660e01b8152600401808581526020018060200180602001848152602001838103835286818151815260200191508051906020019080838360005b838110156125c35780820151818401526020810190506125a8565b50505050905090810190601f1680156125f05780820380516001836020036101000a031916815260200191505b50838103825285818151815260200191508051906020019080838360005b8381101561262957808201518184015260208101905061260e565b50505050905090810190601f1680156126565780820380516001836020036101000a031916815260200191505b5096505050505050506020604051808303818588803b15801561267857600080fd5b505af115801561268c573d6000803e3d6000fd5b50505050506040513d60208110156126a357600080fd5b8101908080519060200190929190505050925050505b9392505050565b80600390805190602001906126d6929190612b73565b5050565b60606126e461275a565b6126ec612bf3565b6126f881610400612766565b612701816127b0565b60008090505b83518110156127435761273684828151811061271f57fe5b6020026020010151836127be90919063ffffffff16565b8080600101915050612707565b5061274d816127e3565b8060000151915050919050565b60405180590338823950565b600081905060006020828161277757fe5b0614612790576020818161278757fe5b06602003810190505b808360200181815250506040518084526000815281810160405250505050565b6127bb8160046127f1565b50565b6127cb8260028351612812565b6127de818361295290919063ffffffff16565b505050565b6127ee8160076127f1565b50565b61280e601f60058360ff16901b17836129fd90919063ffffffff16565b5050565b6017811161283e576128398160058460ff16901b60ff1617846129fd90919063ffffffff16565b61294d565b60ff811161287f57612863601860058460ff16901b17846129fd90919063ffffffff16565b61287981600185612a3d9092919063ffffffff16565b5061294c565b61ffff81116128c1576128a5601960058460ff16901b17846129fd90919063ffffffff16565b6128bb81600285612a3d9092919063ffffffff16565b5061294b565b63ffffffff8111612905576128e9601a60058460ff16901b17846129fd90919063ffffffff16565b6128ff81600485612a3d9092919063ffffffff16565b5061294a565b67ffffffffffffffff811161294957612931601b60058460ff16901b17846129fd90919063ffffffff16565b61294781600885612a3d9092919063ffffffff16565b505b5b5b5b5b505050565b61295a612bf3565b8260200151836000015151835101111561298a5761298983600261298386602001518651612aa4565b02612ac0565b5b60008060008451905085518051602081830101945086518101825260208701935050505b602081106129d157815183526020830192506020820191506020810390506129ae565b60006001826020036101000a039050801983511681855116818117865250508694505050505092915050565b81602001516001836000015151011115612a2357612a22826002846020015102612ac0565b5b815180516020818301018381536001820183525050505050565b612a45612bf3565b836020015184600001515183011115612a7357612a72846002612a6c876020015186612aa4565b02612ac0565b5b60006001836101000a0390508451805184818301018684198251161781528582018352505050849150509392505050565b600081831115612ab657829050612aba565b8190505b92915050565b606082600001519050612ad38383612766565b612add8382612952565b50505050565b604051806080016040528060008152602001600015158152602001600015158152602001600080191681525090565b60405180606001604052806000815260200160008019168152602001600073ffffffffffffffffffffffffffffffffffffffff1681525090565b60405180608001604052806004905b6060815260200190600190039081612b5b5790505090565b828054600181600116156101000203166002900490600052602060002090601f016020900481019282601f10612bb457805160ff1916838001178555612be2565b82800160010185558215612be2579182015b82811115612be1578251825591602001919060010190612bc6565b5b509050612bef9190612c0d565b5090565b604051806040016040528060608152602001600081525090565b612c2f91905b80821115612c2b576000816000905550600101612c13565b5090565b9056fe50726f7661626c65207175657279207761732073656e742c207374616e64696e6720627920666f722074686520616e737765722ea265627a7a72315820a68f4a522e273b25c82f2d0ec3eedce2131159cabd4ce3eba537b5827258efcf64736f6c634300050c0032",
  "source": "pragma solidity >=0.5.12 < 0.6.0;\r\nimport \"./Ownable.sol\";\r\nimport \"./provableAPI.sol\";\r\n\r\ncontract CoinFlip is Ownable, usingProvable{\r\n\r\n\r\n  //the minimum cost to play\r\n modifier costs(uint cost){\r\n     require(msg.value >= cost, \"Need at least 1 finney\");\r\n     _;\r\n\r\n\r\n }\r\n\r\n //bet structure\r\n struct bet{\r\n     uint betAmount;\r\n     bytes32 id;\r\n     address payable punter;\r\n }\r\n\r\n struct result{\r\n     uint value;\r\n     bool isWin;\r\n     bool canPlayAgain;\r\n     bytes32 id;\r\n }\r\n\r\n //bet mapping\r\n mapping (bytes32 => bet) internal bets;\r\n mapping (uint => result) internal results;\r\n\r\n //contract balance\r\n uint public balance;\r\n\r\n //initial function for owner to deposit funds into the contract\r\n function depositFunds() public onlyOwner payable returns(uint){\r\n   balance += msg.value;\r\n   return balance;\r\n\r\n }\r\n\r\n function placeBet(uint betAmount) public payable costs (1 finney){\r\n      betAmount = betAmount * 1e15;\r\n\r\n     random(msg.sender,betAmount);\r\n\r\n\r\n\r\n }\r\n\r\nuint256 constant NUM_RANDOM_BYTES_REQUESTED = 1;\r\nuint256 public latestNumber;\r\n\r\n\r\n\r\nevent LogNewProvableQuery(string description);\r\nevent generatedRandomNumber(uint256 randomNumber);\r\nevent idCheck(string a, bytes32 q_id);\r\nevent youWin (string, uint);\r\nevent youLose(string, uint);\r\n\r\n\r\n\r\n\r\n\r\n //the oracle function to start the RNG getting process\r\n function random(address punter, uint _betAmount) payable public  {\r\n uint256 QUERY_EXECUTION_DELAY =0;\r\n uint GAS_FOR_CALLBACK = 200000;\r\n\r\n\r\nbytes32 q_id =  provable_newRandomDSQuery(\r\n     QUERY_EXECUTION_DELAY,\r\n     NUM_RANDOM_BYTES_REQUESTED,\r\n     GAS_FOR_CALLBACK\r\n   );\r\n    _betAmount = msg.value;\r\n\r\n   bet memory newBet;\r\n   newBet.betAmount = _betAmount;\r\n   newBet.id = q_id;\r\n   //newBet.canPlayAgain = false;\r\n   newBet.punter = msg.sender;\r\n   bets[q_id] = newBet;\r\n\r\n\r\n emit idCheck(\"The ID of this call is \", q_id);\r\n emit LogNewProvableQuery(\"Provable query was sent, standing by for the answer.\");\r\n\r\n}\r\n\r\n\r\n //oracle callback\r\n function __callback(bytes32 _queryId, string memory _result, bytes memory _proof) public {\r\n require(msg.sender == provable_cbAddress());\r\n\r\n uint256 randomNumber = uint256(keccak256(abi.encodePacked(_result))) % 2;\r\n\r\n latestNumber = randomNumber;\r\n emit generatedRandomNumber(randomNumber);\r\n saveResults(_queryId, latestNumber);\r\n winOrLose(_queryId);\r\n\r\n\r\n}\r\n\r\n     //check if player won or not. If they did, transfer winnings to them\r\n  function winOrLose(bytes32 q_id) internal returns (uint){\r\n     bool checkFlag = results[latestNumber].isWin;\r\n\r\n      if (checkFlag == true){\r\n         //pay player\r\n         address payable payPlayer = bets[q_id].punter;\r\n         uint toReward = bets[q_id].betAmount * 2;\r\n         payPlayer.transfer(toReward);\r\n\r\n         balance -= bets[q_id].betAmount;\r\n\r\n         emit youWin(\"You won \", bets[q_id].betAmount *2);\r\n         toReward  =0;\r\n     }\r\n\r\n     else {\r\n         //keep money\r\n         balance += bets[q_id].betAmount;\r\n         emit youLose(\"You lost \", bets[q_id].betAmount);\r\n     }\r\n\r\n\r\n     bets[q_id].betAmount = 0;\r\n\r\n\r\n  }\r\n  //save the result of the rng to the result mapping\r\n  function saveResults(bytes32 q_id, uint value) public{\r\n     result memory newResult;\r\n     newResult.value = latestNumber;\r\n     newResult.id = q_id;\r\n     newResult.canPlayAgain = true;\r\n\r\n     if (latestNumber  ==1){\r\n         newResult.isWin = true;\r\n     }\r\n\r\n     else {\r\n         newResult.isWin = false;\r\n     }\r\n\r\n     results[latestNumber] = newResult;\r\n     winOrLose(q_id);\r\n     delete bets[q_id];\r\n\r\n }\r\n\r\n\r\n\r\n}\r\n",
  "sourcePath": "D:/Users/victo/Desktop/Crypto Programming/Ethereum/Coinflip/contracts/CoinFlip.sol",
  "compiler": {
    "name": "solc",
    "version": "0.5.12+commit.7709ece9.Emscripten.clang"
  },
  "schemaVersion": "3.0.16",
  "updatedAt": "2020-11-01T06:15:33.105Z",
  "devdoc": {
    "methods": {
      "__callback(bytes32,string)": {
        "details": "The following `__callback` functions are just placeholders ideally     meant to be defined in child contract when proofs are used.     The function bodies simply silence compiler warnings."
      }
    }
  },
  "userdoc": {
    "methods": {}
  }
}