{
  "contractName": "CoinFlip",
  "abi": [
    {
      "anonymous": false,
      "inputs": [
        {
          "indexed": false,
          "internalType": "string",
          "name": "description",
          "type": "string"
        }
      ],
      "name": "LogNewProvableQuery",
      "type": "event"
    },
    {
      "anonymous": false,
      "inputs": [
        {
          "indexed": false,
          "internalType": "uint256",
          "name": "",
          "type": "uint256"
        },
        {
          "indexed": false,
          "internalType": "uint256",
          "name": "",
          "type": "uint256"
        }
      ],
      "name": "checkBalance",
      "type": "event"
    },
    {
      "anonymous": false,
      "inputs": [
        {
          "indexed": false,
          "internalType": "string",
          "name": "whatHappened",
          "type": "string"
        },
        {
          "indexed": false,
          "internalType": "uint256",
          "name": "funds",
          "type": "uint256"
        }
      ],
      "name": "depositedFunds",
      "type": "event"
    },
    {
      "anonymous": false,
      "inputs": [
        {
          "indexed": false,
          "internalType": "uint256",
          "name": "randomNumber",
          "type": "uint256"
        }
      ],
      "name": "generatedRandomNumber",
      "type": "event"
    },
    {
      "anonymous": false,
      "inputs": [
        {
          "indexed": false,
          "internalType": "string",
          "name": "a",
          "type": "string"
        },
        {
          "indexed": false,
          "internalType": "bytes32",
          "name": "q_id",
          "type": "bytes32"
        }
      ],
      "name": "idCheck",
      "type": "event"
    },
    {
      "anonymous": false,
      "inputs": [
        {
          "indexed": false,
          "internalType": "string",
          "name": "whatHappened",
          "type": "string"
        },
        {
          "indexed": false,
          "internalType": "uint256",
          "name": "funds",
          "type": "uint256"
        }
      ],
      "name": "withDrewFunds",
      "type": "event"
    },
    {
      "anonymous": false,
      "inputs": [
        {
          "indexed": false,
          "internalType": "string",
          "name": "",
          "type": "string"
        },
        {
          "indexed": false,
          "internalType": "uint256",
          "name": "",
          "type": "uint256"
        }
      ],
      "name": "youLose",
      "type": "event"
    },
    {
      "anonymous": false,
      "inputs": [
        {
          "indexed": false,
          "internalType": "string",
          "name": "",
          "type": "string"
        },
        {
          "indexed": false,
          "internalType": "uint256",
          "name": "",
          "type": "uint256"
        }
      ],
      "name": "youWin",
      "type": "event"
    },
    {
      "constant": false,
      "inputs": [
        {
          "internalType": "bytes32",
          "name": "_myid",
          "type": "bytes32"
        },
        {
          "internalType": "string",
          "name": "_result",
          "type": "string"
        }
      ],
      "name": "__callback",
      "outputs": [],
      "payable": false,
      "stateMutability": "nonpayable",
      "type": "function"
    },
    {
      "constant": false,
      "inputs": [
        {
          "internalType": "bytes32",
          "name": "_myid",
          "type": "bytes32"
        },
        {
          "internalType": "string",
          "name": "_result",
          "type": "string"
        },
        {
          "internalType": "bytes",
          "name": "_proof",
          "type": "bytes"
        }
      ],
      "name": "__callback",
      "outputs": [],
      "payable": false,
      "stateMutability": "nonpayable",
      "type": "function"
    },
    {
      "constant": false,
      "inputs": [
        {
          "internalType": "address",
          "name": "punter",
          "type": "address"
        },
        {
          "internalType": "bytes32",
          "name": "_queryId",
          "type": "bytes32"
        },
        {
          "internalType": "string",
          "name": "_result",
          "type": "string"
        }
      ],
      "name": "__callback",
      "outputs": [],
      "payable": false,
      "stateMutability": "nonpayable",
      "type": "function"
    },
    {
      "constant": true,
      "inputs": [],
      "name": "balance",
      "outputs": [
        {
          "internalType": "uint256",
          "name": "",
          "type": "uint256"
        }
      ],
      "payable": false,
      "stateMutability": "view",
      "type": "function"
    },
    {
      "constant": false,
      "inputs": [
        {
          "internalType": "address payable",
          "name": "n_player",
          "type": "address"
        },
        {
          "internalType": "uint256",
          "name": "_betAmount",
          "type": "uint256"
        },
        {
          "internalType": "bytes32",
          "name": "q_id",
          "type": "bytes32"
        }
      ],
      "name": "createPlayer",
      "outputs": [],
      "payable": true,
      "stateMutability": "payable",
      "type": "function"
    },
    {
      "constant": false,
      "inputs": [],
      "name": "depositPunterFunds",
      "outputs": [],
      "payable": true,
      "stateMutability": "payable",
      "type": "function"
    },
    {
      "constant": false,
      "inputs": [],
      "name": "getPunterBalance",
      "outputs": [
        {
          "internalType": "uint256",
          "name": "",
          "type": "uint256"
        }
      ],
      "payable": false,
      "stateMutability": "nonpayable",
      "type": "function"
    },
    {
      "constant": true,
      "inputs": [],
      "name": "latestNumber",
      "outputs": [
        {
          "internalType": "uint256",
          "name": "",
          "type": "uint256"
        }
      ],
      "payable": false,
      "stateMutability": "view",
      "type": "function"
    },
    {
      "constant": true,
      "inputs": [],
      "name": "owner",
      "outputs": [
        {
          "internalType": "address",
          "name": "",
          "type": "address"
        }
      ],
      "payable": false,
      "stateMutability": "view",
      "type": "function"
    },
    {
      "constant": false,
      "inputs": [
        {
          "internalType": "uint256",
          "name": "_betAmount",
          "type": "uint256"
        }
      ],
      "name": "random",
      "outputs": [],
      "payable": true,
      "stateMutability": "payable",
      "type": "function"
    },
    {
      "constant": false,
      "inputs": [
        {
          "internalType": "uint256",
          "name": "numberCalled",
          "type": "uint256"
        },
        {
          "internalType": "bytes32",
          "name": "q_id",
          "type": "bytes32"
        }
      ],
      "name": "saveResults",
      "outputs": [],
      "payable": false,
      "stateMutability": "nonpayable",
      "type": "function"
    },
    {
      "constant": false,
      "inputs": [],
      "name": "withdrawContractBalance",
      "outputs": [
        {
          "internalType": "uint256",
          "name": "",
          "type": "uint256"
        }
      ],
      "payable": false,
      "stateMutability": "nonpayable",
      "type": "function"
    },
    {
      "constant": false,
      "inputs": [],
      "name": "withdrawPunterBalance",
      "outputs": [
        {
          "internalType": "uint256",
          "name": "",
          "type": "uint256"
        }
      ],
      "payable": false,
      "stateMutability": "nonpayable",
      "type": "function"
    },
    {
      "constant": false,
      "inputs": [],
      "name": "depositFunds",
      "outputs": [
        {
          "internalType": "uint256",
          "name": "",
          "type": "uint256"
        }
      ],
      "payable": true,
      "stateMutability": "payable",
      "type": "function"
    },
    {
      "constant": false,
      "inputs": [
        {
          "internalType": "uint256",
          "name": "betAmount",
          "type": "uint256"
        }
      ],
      "name": "placeBet",
      "outputs": [],
      "payable": true,
      "stateMutability": "payable",
      "type": "function"
    }
  ],
  "bytecode": "0x608060405233600560006101000a81548173ffffffffffffffffffffffffffffffffffffffff021916908373ffffffffffffffffffffffffffffffffffffffff160217905550613445806100546000396000f3fe6080604052600436106100e85760003560e01c8063adcf72901161008a578063d79f5ec511610059578063d79f5ec5146105d1578063dc34b0aa14610616578063e2c41dbc14610641578063fab4a46d1461065f576100e8565b8063adcf72901461045b578063b69ef8a81461054d578063b863bd3714610578578063bfab3db9146105a6576100e8565b806338bbfa50116100c657806338bbfa50146102185780634ff540d4146103815780638da5cb5b146103ac5780638f86456b14610403576100e8565b806310fe7c48146100ed57806327dc297e1461011b57806332a1b764146101ed575b600080fd5b6101196004803603602081101561010357600080fd5b8101908080359060200190929190505050610669565b005b34801561012757600080fd5b506101eb6004803603604081101561013e57600080fd5b81019080803590602001909291908035906020019064010000000081111561016557600080fd5b82018360208201111561017757600080fd5b8035906020019184600183028401116401000000008311171561019957600080fd5b91908080601f016020809104026020016040519081016040528093929190818152602001838380828437600081840152601f19601f8201169050808301925050505050505091929192905050506106fb565b005b3480156101f957600080fd5b5061020261073e565b6040518082815260200191505060405180910390f35b34801561022457600080fd5b5061037f6004803603606081101561023b57600080fd5b81019080803590602001909291908035906020019064010000000081111561026257600080fd5b82018360208201111561027457600080fd5b8035906020019184600183028401116401000000008311171561029657600080fd5b91908080601f016020809104026020016040519081016040528093929190818152602001838380828437600081840152601f19601f820116905080830192505050505050509192919290803590602001906401000000008111156102f957600080fd5b82018360208201111561030b57600080fd5b8035906020019184600183028401116401000000008311171561032d57600080fd5b91908080601f016020809104026020016040519081016040528093929190818152602001838380828437600081840152601f19601f8201169050808301925050505050505091929192905050506108cb565b005b34801561038d57600080fd5b506103966108ee565b6040518082815260200191505060405180910390f35b3480156103b857600080fd5b506103c16109fb565b604051808273ffffffffffffffffffffffffffffffffffffffff1673ffffffffffffffffffffffffffffffffffffffff16815260200191505060405180910390f35b6104596004803603606081101561041957600080fd5b81019080803573ffffffffffffffffffffffffffffffffffffffff1690602001909291908035906020019092919080359060200190929190505050610a21565b005b34801561046757600080fd5b5061054b6004803603606081101561047e57600080fd5b81019080803573ffffffffffffffffffffffffffffffffffffffff16906020019092919080359060200190929190803590602001906401000000008111156104c557600080fd5b8201836020820111156104d757600080fd5b803590602001918460018302840111640100000000831117156104f957600080fd5b91908080601f016020809104026020016040519081016040528093929190818152602001838380828437600081840152601f19601f820116905080830192505050505050509192919290505050610b2a565b005b34801561055957600080fd5b50610562610ca1565b6040518082815260200191505060405180910390f35b6105a46004803603602081101561058e57600080fd5b8101908080359060200190929190505050610ca7565b005b3480156105b257600080fd5b506105bb610d93565b6040518082815260200191505060405180910390f35b3480156105dd57600080fd5b50610614600480360360408110156105f457600080fd5b810190808035906020019092919080359060200190929190505050610e4c565b005b34801561062257600080fd5b5061062b610ee9565b6040518082815260200191505060405180910390f35b610649610eef565b6040518082815260200191505060405180910390f35b610667610f63565b005b612710803410156106e2576040517f08c379a00000000000000000000000000000000000000000000000000000000081526004018080602001828103825260178152602001807f4e656564206174206c6561737420302e3120737a61626f00000000000000000081525060200191505060405180910390fd5b66038d7ea4c68000820291506106f782610ca7565b5050565b61073a828260006040519080825280601f01601f1916602001820160405280156107345781602001600182028038833980820191505090505b506108cb565b5050565b600080600960003373ffffffffffffffffffffffffffffffffffffffff1673ffffffffffffffffffffffffffffffffffffffff1681526020019081526020016000206001015490507fb471f40a10881404b70a4f7819c075d0ae5fec92ae9454b1ccdad5c0fe9a6ab28182604051808381526020018281526020019250505060405180910390a16000600960003373ffffffffffffffffffffffffffffffffffffffff1673ffffffffffffffffffffffffffffffffffffffff168152602001908152602001600020600101819055503373ffffffffffffffffffffffffffffffffffffffff166108fc829081150290604051600060405180830381858888f19350505050158015610853573d6000803e3d6000fd5b507f888f4fb33f1429a5c0e82c8ca8b08617833224470b7efbaf5cb4d0b00e695e658160405180806020018381526020018281038252600d8152602001807f596f7520776974686472657720000000000000000000000000000000000000008152506020019250505060405180910390a18091505090565b6000801b600360008060001b815260200190815260200160002081905550505050565b60007fb471f40a10881404b70a4f7819c075d0ae5fec92ae9454b1ccdad5c0fe9a6ab2600960003373ffffffffffffffffffffffffffffffffffffffff1673ffffffffffffffffffffffffffffffffffffffff16815260200190815260200160002060010154600960003373ffffffffffffffffffffffffffffffffffffffff1673ffffffffffffffffffffffffffffffffffffffff16815260200190815260200160002060010154604051808381526020018281526020019250505060405180910390a1600960003373ffffffffffffffffffffffffffffffffffffffff1673ffffffffffffffffffffffffffffffffffffffff16815260200190815260200160002060010154905090565b600560009054906101000a900473ffffffffffffffffffffffffffffffffffffffff1681565b610a2961325c565b83816000019073ffffffffffffffffffffffffffffffffffffffff16908173ffffffffffffffffffffffffffffffffffffffff168152505082816020018181525050806007600084815260200190815260200160002060008201518160000160006101000a81548173ffffffffffffffffffffffffffffffffffffffff021916908373ffffffffffffffffffffffffffffffffffffffff160217905550602082015181600101556040820151816002015590505081600960003373ffffffffffffffffffffffffffffffffffffffff1673ffffffffffffffffffffffffffffffffffffffff1681526020019081526020016000206002018190555050505050565b610b3261119c565b73ffffffffffffffffffffffffffffffffffffffff163373ffffffffffffffffffffffffffffffffffffffff1614610b6957600080fd5b60006002826040516020018082805190602001908083835b60208310610ba45780518252602082019150602081019050602083039250610b81565b6001836020036101000a0380198251168184511680821785525050505050509050019150506040516020818303038152906040528051906020012060001c81610be957fe5b06905080600a819055507fc13d60fe9dffdb6908d2d446cd18134373a51db0738ee04f296eeb9128121cbc816040518082815260200191505060405180910390a1610c36600a5484610e4c565b600960008573ffffffffffffffffffffffffffffffffffffffff1673ffffffffffffffffffffffffffffffffffffffff16815260200190815260200160002050610c8084846114b9565b50600760008481526020019081526020016000206002016000905550505050565b60065481565b6000809050600062030d4090506000610cc2836001846116c4565b9050349350610cd2338583610a21565b7f5e35a070670d9d1b09ecfeeae77ca75380c3bf10808c2cc6ae99b217977e09bd816040518080602001838152602001828103825260178152602001807f546865204944206f6620746869732063616c6c206973200000000000000000008152506020019250505060405180910390a17fc4dc360d0a9c0677a3379ae0a3d81e887f761e65fdf3d7e00859d1bcd3c473896040518080602001828103825260348152602001806133dd6034913960400191505060405180910390a150505050565b6000600560009054906101000a900473ffffffffffffffffffffffffffffffffffffffff1673ffffffffffffffffffffffffffffffffffffffff163373ffffffffffffffffffffffffffffffffffffffff1614610def57600080fd5b6000600654905060006006819055503373ffffffffffffffffffffffffffffffffffffffff166108fc829081150290604051600060405180830381858888f19350505050158015610e44573d6000803e3d6000fd5b508091505090565b610e54613296565b82816000018181525050818160400181815250506001831415610e87576001816020019015159081151581525050610e99565b60008160200190151590811515815250505b80600860008481526020019081526020016000206000820151816000015560208201518160010160006101000a81548160ff02191690831515021790555060408201518160020155905050505050565b600a5481565b6000600560009054906101000a900473ffffffffffffffffffffffffffffffffffffffff1673ffffffffffffffffffffffffffffffffffffffff163373ffffffffffffffffffffffffffffffffffffffff1614610f4b57600080fd5b34600660008282540192505081905550600654905090565b610f6b6132bc565b33816000019073ffffffffffffffffffffffffffffffffffffffff16908173ffffffffffffffffffffffffffffffffffffffff1681525050600960003373ffffffffffffffffffffffffffffffffffffffff1673ffffffffffffffffffffffffffffffffffffffff16815260200190815260200160002060010154816020018181525050600960003373ffffffffffffffffffffffffffffffffffffffff1673ffffffffffffffffffffffffffffffffffffffff1681526020019081526020016000206002015481604001818152505080600960003373ffffffffffffffffffffffffffffffffffffffff1673ffffffffffffffffffffffffffffffffffffffff16815260200190815260200160002060008201518160000160006101000a81548173ffffffffffffffffffffffffffffffffffffffff021916908373ffffffffffffffffffffffffffffffffffffffff160217905550602082015181600101556040820151816002015590505034600960003373ffffffffffffffffffffffffffffffffffffffff1673ffffffffffffffffffffffffffffffffffffffff168152602001908152602001600020600101600082825401925050819055507fa3c1c9e897beaade9e73a3a0976777a38c29c8ccf556641ceeb8f43e5181be123460405180806020018381526020018281038252600e8152602001807f596f75206465706f7369746564200000000000000000000000000000000000008152506020019250505060405180910390a150565b60008073ffffffffffffffffffffffffffffffffffffffff16600160009054906101000a900473ffffffffffffffffffffffffffffffffffffffff1673ffffffffffffffffffffffffffffffffffffffff16148061122457506000611222600160009054906101000a900473ffffffffffffffffffffffffffffffffffffffff16611c5f565b145b15611235576112336000611c6a565b505b600160009054906101000a900473ffffffffffffffffffffffffffffffffffffffff1673ffffffffffffffffffffffffffffffffffffffff166338cc48316040518163ffffffff1660e01b8152600401602060405180830381600087803b15801561129f57600080fd5b505af11580156112b3573d6000803e3d6000fd5b505050506040513d60208110156112c957600080fd5b810190808051906020019092919050505073ffffffffffffffffffffffffffffffffffffffff166000809054906101000a900473ffffffffffffffffffffffffffffffffffffffff1673ffffffffffffffffffffffffffffffffffffffff161461141257600160009054906101000a900473ffffffffffffffffffffffffffffffffffffffff1673ffffffffffffffffffffffffffffffffffffffff166338cc48316040518163ffffffff1660e01b8152600401602060405180830381600087803b15801561139757600080fd5b505af11580156113ab573d6000803e3d6000fd5b505050506040513d60208110156113c157600080fd5b81019080805190602001909291905050506000806101000a81548173ffffffffffffffffffffffffffffffffffffffff021916908373ffffffffffffffffffffffffffffffffffffffff1602179055505b6000809054906101000a900473ffffffffffffffffffffffffffffffffffffffff1673ffffffffffffffffffffffffffffffffffffffff1663c281d19e6040518163ffffffff1660e01b815260040160206040518083038186803b15801561147957600080fd5b505afa15801561148d573d6000803e3d6000fd5b505050506040513d60208110156114a357600080fd5b8101908080519060200190929190505050905090565b6000806008600084815260200190815260200160002060010160009054906101000a900460ff169050600060076000858152602001908152602001600020600101549050600115158215151480611514575060001515821515145b156116375760006002820290506000600960008873ffffffffffffffffffffffffffffffffffffffff1673ffffffffffffffffffffffffffffffffffffffff16815260200190815260200160002060010154905081810190507fb471f40a10881404b70a4f7819c075d0ae5fec92ae9454b1ccdad5c0fe9a6ab28382604051808381526020018281526020019250505060405180910390a1826006600082825403925050819055507f7e7d5e50adfbb4e81427323125a4d6250cf27f8b49ff7305f48c9fcb4d2525ea826040518080602001838152602001828103825260088152602001807f596f7520776f6e200000000000000000000000000000000000000000000000008152506020019250505060405180910390a16000915050506116b8565b806006600082825401925050819055507fdbc743cebacba388691ee70a334a0faaee0490d78d1e3be2ba9081622471cdad816040518080602001838152602001828103825260098152602001807f596f75206c6f73742000000000000000000000000000000000000000000000008152506020019250505060405180910390a15b60009050505092915050565b600080831180156116d6575060208311155b6116df57600080fd5b600a84029350606060016040519080825280601f01601f19166020018201604052801561171b5781602001600182028038833980820191505090505b5090508360f81b8160008151811061172f57fe5b60200101907effffffffffffffffffffffffffffffffffffffffffffffffffffffffffffff1916908160001a905350606060206040519080825280601f01601f1916602001820160405280156117945781602001600182028038833980820191505090505b509050606060206040519080825280601f01601f1916602001820160405280156117cd5781602001600182028038833980820191505090505b50905060006117da611c7b565b905060208352424118600143034018602084015260208252806020830152606060206040519080825280601f01601f19166020018201604052801561182e5781602001600182028038833980820191505090505b509050886020820152606060086040519080825280601f01601f19166020018201604052801561186d5781602001600182028038833980820191505090505b5090506118808260186008846000611f98565b506118896132f6565b604051806080016040528087815260200188815260200186815260200184815250905060006118ee6040518060400160405280600681526020017f72616e646f6d0000000000000000000000000000000000000000000000000000815250838c611ff7565b9050606060086040519080825280601f01601f1916602001820160405280156119265781602001600182028038833980820191505090505b50905060208401517f0100000000000000000000000000000000000000000000000000000000000000810460278301537e01000000000000000000000000000000000000000000000000000000000000810460268301537d010000000000000000000000000000000000000000000000000000000000810460258301537c0100000000000000000000000000000000000000000000000000000000810460248301537b01000000000000000000000000000000000000000000000000000000810460238301537a010000000000000000000000000000000000000000000000000000810460228301537901000000000000000000000000000000000000000000000000008104602183015378010000000000000000000000000000000000000000000000008104602083015350611c4c828285600160048110611a6557fe5b6020020151600287600060048110611a7957fe5b60200201516040518082805190602001908083835b60208310611ab15780518252602082019150602081019050602083039250611a8e565b6001836020036101000a038019825116818451168082178552505050505050905001915050602060405180830381855afa158015611af3573d6000803e3d6000fd5b5050506040513d6020811015611b0857600080fd5b810190808051906020019092919050505087600260048110611b2657fe5b60200201516040516020018085805190602001908083835b60208310611b615780518252602082019150602081019050602083039250611b3e565b6001836020036101000a03801982511681845116808217855250505050505090500184805190602001908083835b60208310611bb25780518252602082019150602081019050602083039250611b8f565b6001836020036101000a03801982511681845116808217855250505050505090500183815260200182805190602001908083835b60208310611c095780518252602082019150602081019050602083039250611be6565b6001836020036101000a03801982511681845116808217855250505050505090500194505050505060405160208183030381529060405280519060200120612364565b8199505050505050505050509392505050565b6000813b9050919050565b6000611c74612380565b9050919050565b60008073ffffffffffffffffffffffffffffffffffffffff16600160009054906101000a900473ffffffffffffffffffffffffffffffffffffffff1673ffffffffffffffffffffffffffffffffffffffff161480611d0357506000611d01600160009054906101000a900473ffffffffffffffffffffffffffffffffffffffff16611c5f565b145b15611d1457611d126000611c6a565b505b600160009054906101000a900473ffffffffffffffffffffffffffffffffffffffff1673ffffffffffffffffffffffffffffffffffffffff166338cc48316040518163ffffffff1660e01b8152600401602060405180830381600087803b158015611d7e57600080fd5b505af1158015611d92573d6000803e3d6000fd5b505050506040513d6020811015611da857600080fd5b810190808051906020019092919050505073ffffffffffffffffffffffffffffffffffffffff166000809054906101000a900473ffffffffffffffffffffffffffffffffffffffff1673ffffffffffffffffffffffffffffffffffffffff1614611ef157600160009054906101000a900473ffffffffffffffffffffffffffffffffffffffff1673ffffffffffffffffffffffffffffffffffffffff166338cc48316040518163ffffffff1660e01b8152600401602060405180830381600087803b158015611e7657600080fd5b505af1158015611e8a573d6000803e3d6000fd5b505050506040513d6020811015611ea057600080fd5b81019080805190602001909291905050506000806101000a81548173ffffffffffffffffffffffffffffffffffffffff021916908373ffffffffffffffffffffffffffffffffffffffff1602179055505b6000809054906101000a900473ffffffffffffffffffffffffffffffffffffffff1673ffffffffffffffffffffffffffffffffffffffff1663abaa5f3e6040518163ffffffff1660e01b815260040160206040518083038186803b158015611f5857600080fd5b505afa158015611f6c573d6000803e3d6000fd5b505050506040513d6020811015611f8257600080fd5b8101908080519060200190929190505050905090565b6060600082850190508084511015611faf57600080fd5b600086602001905060008460200190505b868860200101821015611fe85781890151808288015250602082019150602081019050611fc0565b85935050505095945050505050565b60008073ffffffffffffffffffffffffffffffffffffffff16600160009054906101000a900473ffffffffffffffffffffffffffffffffffffffff1673ffffffffffffffffffffffffffffffffffffffff16148061207f5750600061207d600160009054906101000a900473ffffffffffffffffffffffffffffffffffffffff16611c5f565b145b156120905761208e6000611c6a565b505b600160009054906101000a900473ffffffffffffffffffffffffffffffffffffffff1673ffffffffffffffffffffffffffffffffffffffff166338cc48316040518163ffffffff1660e01b8152600401602060405180830381600087803b1580156120fa57600080fd5b505af115801561210e573d6000803e3d6000fd5b505050506040513d602081101561212457600080fd5b810190808051906020019092919050505073ffffffffffffffffffffffffffffffffffffffff166000809054906101000a900473ffffffffffffffffffffffffffffffffffffffff1673ffffffffffffffffffffffffffffffffffffffff161461226d57600160009054906101000a900473ffffffffffffffffffffffffffffffffffffffff1673ffffffffffffffffffffffffffffffffffffffff166338cc48316040518163ffffffff1660e01b8152600401602060405180830381600087803b1580156121f257600080fd5b505af1158015612206573d6000803e3d6000fd5b505050506040513d602081101561221c57600080fd5b81019080805190602001909291905050506000806101000a81548173ffffffffffffffffffffffffffffffffffffffff021916908373ffffffffffffffffffffffffffffffffffffffff1602179055505b606060046040519080825280602002602001820160405280156122a457816020015b606081526020019060019003908161228f5790505b509050836000600481106122b457fe5b6020020151816000815181106122c657fe5b6020026020010181905250836001600481106122de57fe5b6020020151816001815181106122f057fe5b60200260200101819052508360026004811061230857fe5b60200201518160028151811061231a57fe5b60200260200101819052508360036004811061233257fe5b60200201518160038151811061234457fe5b602002602001018190525061235a8582856128d7565b9150509392505050565b8060036000848152602001908152602001600020819055505050565b6000806123a0731d3b2638a7cc9f2cb3d298a3da7a90b67e5506ed611c5f565b111561244257731d3b2638a7cc9f2cb3d298a3da7a90b67e5506ed600160006101000a81548173ffffffffffffffffffffffffffffffffffffffff021916908373ffffffffffffffffffffffffffffffffffffffff1602179055506124396040518060400160405280600b81526020017f6574685f6d61696e6e6574000000000000000000000000000000000000000000815250612e39565b600190506128d4565b600061246173c03a2615d5efaf5f49f60b7bb6583eaec212fdf1611c5f565b11156125035773c03a2615d5efaf5f49f60b7bb6583eaec212fdf1600160006101000a81548173ffffffffffffffffffffffffffffffffffffffff021916908373ffffffffffffffffffffffffffffffffffffffff1602179055506124fa6040518060400160405280600c81526020017f6574685f726f707374656e330000000000000000000000000000000000000000815250612e39565b600190506128d4565b600061252273b7a07bcf2ba2f2703b24c0691b5278999c59ac7e611c5f565b11156125c45773b7a07bcf2ba2f2703b24c0691b5278999c59ac7e600160006101000a81548173ffffffffffffffffffffffffffffffffffffffff021916908373ffffffffffffffffffffffffffffffffffffffff1602179055506125bb6040518060400160405280600981526020017f6574685f6b6f76616e0000000000000000000000000000000000000000000000815250612e39565b600190506128d4565b60006125e373146500cfd35b22e4a392fe0adc06de1a1368ed48611c5f565b11156126855773146500cfd35b22e4a392fe0adc06de1a1368ed48600160006101000a81548173ffffffffffffffffffffffffffffffffffffffff021916908373ffffffffffffffffffffffffffffffffffffffff16021790555061267c6040518060400160405280600b81526020017f6574685f72696e6b656279000000000000000000000000000000000000000000815250612e39565b600190506128d4565b60006126a473a2998efd205fb9d4b4963afb70778d6354ad3a41611c5f565b11156127465773a2998efd205fb9d4b4963afb70778d6354ad3a41600160006101000a81548173ffffffffffffffffffffffffffffffffffffffff021916908373ffffffffffffffffffffffffffffffffffffffff16021790555061273d6040518060400160405280600a81526020017f6574685f676f65726c6900000000000000000000000000000000000000000000815250612e39565b600190506128d4565b6000612765736f485c8bf6fc43ea212e93bbf8ce046c7f1cb475611c5f565b11156127c957736f485c8bf6fc43ea212e93bbf8ce046c7f1cb475600160006101000a81548173ffffffffffffffffffffffffffffffffffffffff021916908373ffffffffffffffffffffffffffffffffffffffff160217905550600190506128d4565b60006127e87320e12a1f859b3feae5fb2a0a32c18f5a65555bbf611c5f565b111561284c577320e12a1f859b3feae5fb2a0a32c18f5a65555bbf600160006101000a81548173ffffffffffffffffffffffffffffffffffffffff021916908373ffffffffffffffffffffffffffffffffffffffff160217905550600190506128d4565b600061286b7351efaf4c8b3c9afbd5ab9f4bbc82784ab6ef8faa611c5f565b11156128cf577351efaf4c8b3c9afbd5ab9f4bbc82784ab6ef8faa600160006101000a81548173ffffffffffffffffffffffffffffffffffffffff021916908373ffffffffffffffffffffffffffffffffffffffff160217905550600190506128d4565b600090505b90565b60008073ffffffffffffffffffffffffffffffffffffffff16600160009054906101000a900473ffffffffffffffffffffffffffffffffffffffff1673ffffffffffffffffffffffffffffffffffffffff16148061295f5750600061295d600160009054906101000a900473ffffffffffffffffffffffffffffffffffffffff16611c5f565b145b156129705761296e6000611c6a565b505b600160009054906101000a900473ffffffffffffffffffffffffffffffffffffffff1673ffffffffffffffffffffffffffffffffffffffff166338cc48316040518163ffffffff1660e01b8152600401602060405180830381600087803b1580156129da57600080fd5b505af11580156129ee573d6000803e3d6000fd5b505050506040513d6020811015612a0457600080fd5b810190808051906020019092919050505073ffffffffffffffffffffffffffffffffffffffff166000809054906101000a900473ffffffffffffffffffffffffffffffffffffffff1673ffffffffffffffffffffffffffffffffffffffff1614612b4d57600160009054906101000a900473ffffffffffffffffffffffffffffffffffffffff1673ffffffffffffffffffffffffffffffffffffffff166338cc48316040518163ffffffff1660e01b8152600401602060405180830381600087803b158015612ad257600080fd5b505af1158015612ae6573d6000803e3d6000fd5b505050506040513d6020811015612afc57600080fd5b81019080805190602001909291905050506000806101000a81548173ffffffffffffffffffffffffffffffffffffffff021916908373ffffffffffffffffffffffffffffffffffffffff1602179055505b60008060009054906101000a900473ffffffffffffffffffffffffffffffffffffffff1673ffffffffffffffffffffffffffffffffffffffff16632ef3accc86856040518363ffffffff1660e01b81526004018080602001838152602001828103825284818151815260200191508051906020019080838360005b83811015612be3578082015181840152602081019050612bc8565b50505050905090810190601f168015612c105780820380516001836020036101000a031916815260200191505b509350505050602060405180830381600087803b158015612c3057600080fd5b505af1158015612c44573d6000803e3d6000fd5b505050506040513d6020811015612c5a57600080fd5b81019080805190602001909291905050509050823a02670de0b6b3a764000001811115612c8d576000801b915050612e32565b6060612c9885612e53565b90506000809054906101000a900473ffffffffffffffffffffffffffffffffffffffff1673ffffffffffffffffffffffffffffffffffffffff1663c55c1cb68360008985896040518663ffffffff1660e01b8152600401808581526020018060200180602001848152602001838103835286818151815260200191508051906020019080838360005b83811015612d3c578082015181840152602081019050612d21565b50505050905090810190601f168015612d695780820380516001836020036101000a031916815260200191505b50838103825285818151815260200191508051906020019080838360005b83811015612da2578082015181840152602081019050612d87565b50505050905090810190601f168015612dcf5780820380516001836020036101000a031916815260200191505b5096505050505050506020604051808303818588803b158015612df157600080fd5b505af1158015612e05573d6000803e3d6000fd5b50505050506040513d6020811015612e1c57600080fd5b8101908080519060200190929190505050925050505b9392505050565b8060029080519060200190612e4f92919061331d565b5050565b6060612e5d612ed3565b612e6561339d565b612e7181610400612edf565b612e7a81612f29565b60008090505b8351811015612ebc57612eaf848281518110612e9857fe5b602002602001015183612f3790919063ffffffff16565b8080600101915050612e80565b50612ec681612f5c565b8060000151915050919050565b60405180590338823950565b6000819050600060208281612ef057fe5b0614612f095760208181612f0057fe5b06602003810190505b808360200181815250506040518084526000815281810160405250505050565b612f34816004612f6a565b50565b612f448260028351612f8b565b612f5781836130cb90919063ffffffff16565b505050565b612f67816007612f6a565b50565b612f87601f60058360ff16901b178361317690919063ffffffff16565b5050565b60178111612fb757612fb28160058460ff16901b60ff16178461317690919063ffffffff16565b6130c6565b60ff8111612ff857612fdc601860058460ff16901b178461317690919063ffffffff16565b612ff2816001856131b69092919063ffffffff16565b506130c5565b61ffff811161303a5761301e601960058460ff16901b178461317690919063ffffffff16565b613034816002856131b69092919063ffffffff16565b506130c4565b63ffffffff811161307e57613062601a60058460ff16901b178461317690919063ffffffff16565b613078816004856131b69092919063ffffffff16565b506130c3565b67ffffffffffffffff81116130c2576130aa601b60058460ff16901b178461317690919063ffffffff16565b6130c0816008856131b69092919063ffffffff16565b505b5b5b5b5b505050565b6130d361339d565b82602001518360000151518351011115613103576131028360026130fc8660200151865161321d565b02613239565b5b60008060008451905085518051602081830101945086518101825260208701935050505b6020811061314a5781518352602083019250602082019150602081039050613127565b60006001826020036101000a039050801983511681855116818117865250508694505050505092915050565b8160200151600183600001515101111561319c5761319b826002846020015102613239565b5b815180516020818301018381536001820183525050505050565b6131be61339d565b8360200151846000015151830111156131ec576131eb8460026131e587602001518661321d565b02613239565b5b60006001836101000a0390508451805184818301018684198251161781528582018352505050849150509392505050565b60008183111561322f57829050613233565b8190505b92915050565b60608260000151905061324c8383612edf565b61325683826130cb565b50505050565b6040518060600160405280600073ffffffffffffffffffffffffffffffffffffffff16815260200160008152602001600080191681525090565b604051806060016040528060008152602001600015158152602001600080191681525090565b6040518060600160405280600073ffffffffffffffffffffffffffffffffffffffff16815260200160008152602001600080191681525090565b60405180608001604052806004905b60608152602001906001900390816133055790505090565b828054600181600116156101000203166002900490600052602060002090601f016020900481019282601f1061335e57805160ff191683800117855561338c565b8280016001018555821561338c579182015b8281111561338b578251825591602001919060010190613370565b5b50905061339991906133b7565b5090565b604051806040016040528060608152602001600081525090565b6133d991905b808211156133d55760008160009055506001016133bd565b5090565b9056fe50726f7661626c65207175657279207761732073656e742c207374616e64696e6720627920666f722074686520616e737765722ea265627a7a723158204ef8d770030a8cc6aae74de3ada8f45d2db7c160356ae963a3c9c10ee41fb43664736f6c634300050c0032",
  "source": "pragma solidity >=0.5.12 < 0.6.0;\r\nimport \"./Ownable.sol\";\r\nimport \"./Storagable.sol\";\r\nimport \"./Winnable.sol\";\r\nimport \"./oracle.sol\";\r\n\r\n\r\n\r\ncontract CoinFlip is Ownable, Storagable, Winnable, oracle{\r\n\r\n\r\n    modifier costs(uint cost){\r\n        require(msg.value >= cost, \"Need at least 0.1 szabo\");\r\n        _;\r\n\r\n\r\n    }\r\n\r\n\r\n    function depositFunds() public onlyOwner payable returns(uint){\r\n      balance += msg.value;\r\n      return balance;\r\n\r\n    }\r\n\r\n    function placeBet(uint betAmount) public payable costs (10000 wei){\r\n         betAmount = betAmount * 1e15;\r\n        random(betAmount);\r\n\r\n    }\r\n\r\n\r\n\r\n\r\n\r\n\r\n\r\n\r\n\r\n\r\n\r\n}\r\n",
  "sourcePath": "D:/Users/victo/Desktop/Crypto Programming/Ethereum/Coinflip/contracts/CoinFlip.sol",
  "compiler": {
    "name": "solc",
    "version": "0.5.12+commit.7709ece9.Emscripten.clang"
  },
  "schemaVersion": "3.0.16",
  "updatedAt": "2020-10-29T10:36:57.098Z",
  "devdoc": {
    "methods": {
      "__callback(bytes32,string)": {
        "details": "The following `__callback` functions are just placeholders ideally     meant to be defined in child contract when proofs are used.     The function bodies simply silence compiler warnings."
      }
    }
  },
  "userdoc": {
    "methods": {}
  }
}