{
  "contractName": "oracle",
  "abi": [
    {
      "anonymous": false,
      "inputs": [
        {
          "indexed": false,
          "internalType": "string",
          "name": "description",
          "type": "string"
        }
      ],
      "name": "LogNewProvableQuery",
      "type": "event"
    },
    {
      "anonymous": false,
      "inputs": [
        {
          "indexed": false,
          "internalType": "uint256",
          "name": "",
          "type": "uint256"
        }
      ],
      "name": "checkBalance",
      "type": "event"
    },
    {
      "anonymous": false,
      "inputs": [
        {
          "indexed": false,
          "internalType": "uint256",
          "name": "",
          "type": "uint256"
        },
        {
          "indexed": false,
          "internalType": "uint256",
          "name": "",
          "type": "uint256"
        }
      ],
      "name": "checkBalance",
      "type": "event"
    },
    {
      "anonymous": false,
      "inputs": [
        {
          "indexed": false,
          "internalType": "string",
          "name": "whatHappened",
          "type": "string"
        },
        {
          "indexed": false,
          "internalType": "uint256",
          "name": "funds",
          "type": "uint256"
        }
      ],
      "name": "depositedFunds",
      "type": "event"
    },
    {
      "anonymous": false,
      "inputs": [
        {
          "indexed": false,
          "internalType": "uint256",
          "name": "randomNumber",
          "type": "uint256"
        }
      ],
      "name": "generatedRandomNumber",
      "type": "event"
    },
    {
      "anonymous": false,
      "inputs": [
        {
          "indexed": false,
          "internalType": "string",
          "name": "a",
          "type": "string"
        },
        {
          "indexed": false,
          "internalType": "bytes32",
          "name": "q_id",
          "type": "bytes32"
        }
      ],
      "name": "idCheck",
      "type": "event"
    },
    {
      "anonymous": false,
      "inputs": [
        {
          "indexed": false,
          "internalType": "string",
          "name": "whatHappened",
          "type": "string"
        },
        {
          "indexed": false,
          "internalType": "uint256",
          "name": "funds",
          "type": "uint256"
        }
      ],
      "name": "withDrewFunds",
      "type": "event"
    },
    {
      "anonymous": false,
      "inputs": [
        {
          "indexed": false,
          "internalType": "string",
          "name": "",
          "type": "string"
        },
        {
          "indexed": false,
          "internalType": "uint256",
          "name": "",
          "type": "uint256"
        }
      ],
      "name": "youLose",
      "type": "event"
    },
    {
      "anonymous": false,
      "inputs": [
        {
          "indexed": false,
          "internalType": "string",
          "name": "",
          "type": "string"
        },
        {
          "indexed": false,
          "internalType": "uint256",
          "name": "",
          "type": "uint256"
        }
      ],
      "name": "youWin",
      "type": "event"
    },
    {
      "constant": true,
      "inputs": [],
      "name": "balance",
      "outputs": [
        {
          "internalType": "uint256",
          "name": "",
          "type": "uint256"
        }
      ],
      "payable": false,
      "stateMutability": "view",
      "type": "function"
    },
    {
      "constant": false,
      "inputs": [],
      "name": "createPlayer",
      "outputs": [],
      "payable": true,
      "stateMutability": "payable",
      "type": "function"
    },
    {
      "constant": false,
      "inputs": [
        {
          "internalType": "address payable",
          "name": "n_punter",
          "type": "address"
        },
        {
          "internalType": "uint256",
          "name": "_betAmount",
          "type": "uint256"
        },
        {
          "internalType": "bytes32",
          "name": "q_id",
          "type": "bytes32"
        }
      ],
      "name": "fillPlayerInfo",
      "outputs": [],
      "payable": true,
      "stateMutability": "payable",
      "type": "function"
    },
    {
      "constant": false,
      "inputs": [],
      "name": "getPunterBalance",
      "outputs": [
        {
          "internalType": "uint256",
          "name": "",
          "type": "uint256"
        }
      ],
      "payable": false,
      "stateMutability": "nonpayable",
      "type": "function"
    },
    {
      "constant": true,
      "inputs": [],
      "name": "latestNumber",
      "outputs": [
        {
          "internalType": "uint256",
          "name": "",
          "type": "uint256"
        }
      ],
      "payable": false,
      "stateMutability": "view",
      "type": "function"
    },
    {
      "constant": true,
      "inputs": [],
      "name": "owner",
      "outputs": [
        {
          "internalType": "address",
          "name": "",
          "type": "address"
        }
      ],
      "payable": false,
      "stateMutability": "view",
      "type": "function"
    },
    {
      "constant": false,
      "inputs": [
        {
          "internalType": "address payable",
          "name": "n_punter",
          "type": "address"
        },
        {
          "internalType": "uint256",
          "name": "_betAmount",
          "type": "uint256"
        }
      ],
      "name": "payPunter",
      "outputs": [],
      "payable": true,
      "stateMutability": "payable",
      "type": "function"
    },
    {
      "constant": false,
      "inputs": [
        {
          "internalType": "uint256",
          "name": "numberCalled",
          "type": "uint256"
        },
        {
          "internalType": "bytes32",
          "name": "q_id",
          "type": "bytes32"
        }
      ],
      "name": "saveResults",
      "outputs": [],
      "payable": false,
      "stateMutability": "nonpayable",
      "type": "function"
    },
    {
      "constant": false,
      "inputs": [],
      "name": "withdrawContractBalance",
      "outputs": [
        {
          "internalType": "uint256",
          "name": "",
          "type": "uint256"
        }
      ],
      "payable": false,
      "stateMutability": "nonpayable",
      "type": "function"
    },
    {
      "constant": false,
      "inputs": [],
      "name": "withdrawPunterBalance",
      "outputs": [
        {
          "internalType": "uint256",
          "name": "",
          "type": "uint256"
        }
      ],
      "payable": false,
      "stateMutability": "nonpayable",
      "type": "function"
    },
    {
      "constant": false,
      "inputs": [
        {
          "internalType": "bytes32",
          "name": "_myid",
          "type": "bytes32"
        },
        {
          "internalType": "string",
          "name": "_result",
          "type": "string"
        }
      ],
      "name": "__callback",
      "outputs": [],
      "payable": false,
      "stateMutability": "nonpayable",
      "type": "function"
    },
    {
      "constant": false,
      "inputs": [
        {
          "internalType": "bytes32",
          "name": "_queryId",
          "type": "bytes32"
        },
        {
          "internalType": "string",
          "name": "_result",
          "type": "string"
        },
        {
          "internalType": "bytes",
          "name": "_proof",
          "type": "bytes"
        }
      ],
      "name": "__callback",
      "outputs": [],
      "payable": false,
      "stateMutability": "nonpayable",
      "type": "function"
    },
    {
      "constant": false,
      "inputs": [
        {
          "internalType": "address",
          "name": "punter",
          "type": "address"
        },
        {
          "internalType": "uint256",
          "name": "_betAmount",
          "type": "uint256"
        }
      ],
      "name": "random",
      "outputs": [],
      "payable": true,
      "stateMutability": "payable",
      "type": "function"
    }
  ],
  "bytecode": "0x608060405233600560006101000a81548173ffffffffffffffffffffffffffffffffffffffff021916908373ffffffffffffffffffffffffffffffffffffffff160217905550613308806100546000396000f3fe6080604052600436106100c25760003560e01c80637be8af901161007f578063b69ef8a811610059578063b69ef8a8146104ad578063bfab3db9146104d8578063d79f5ec514610503578063dc34b0aa14610548576100c2565b80637be8af90146103ba5780638da5cb5b14610408578063a35bfd211461045f576100c2565b806327dc297e146100c757806332a1b7641461019957806338bbfa50146101c45780633fa9fcf81461032d5780634ff540d4146103375780635aa8113914610362575b600080fd5b3480156100d357600080fd5b50610197600480360360408110156100ea57600080fd5b81019080803590602001909291908035906020019064010000000081111561011157600080fd5b82018360208201111561012357600080fd5b8035906020019184600183028401116401000000008311171561014557600080fd5b91908080601f016020809104026020016040519081016040528093929190818152602001838380828437600081840152601f19601f820116905080830192505050505050509192919290505050610573565b005b3480156101a557600080fd5b506101ae6105b6565b6040518082815260200191505060405180910390f35b3480156101d057600080fd5b5061032b600480360360608110156101e757600080fd5b81019080803590602001909291908035906020019064010000000081111561020e57600080fd5b82018360208201111561022057600080fd5b8035906020019184600183028401116401000000008311171561024257600080fd5b91908080601f016020809104026020016040519081016040528093929190818152602001838380828437600081840152601f19601f820116905080830192505050505050509192919290803590602001906401000000008111156102a557600080fd5b8201836020820111156102b757600080fd5b803590602001918460018302840111640100000000831117156102d957600080fd5b91908080601f016020809104026020016040519081016040528093929190818152602001838380828437600081840152601f19601f820116905080830192505050505050509192919290505050610743565b005b6103356108ce565b005b34801561034357600080fd5b5061034c6109da565b6040518082815260200191505060405180910390f35b6103b86004803603606081101561037857600080fd5b81019080803573ffffffffffffffffffffffffffffffffffffffff1690602001909291908035906020019092919080359060200190929190505050610ae7565b005b610406600480360360408110156103d057600080fd5b81019080803573ffffffffffffffffffffffffffffffffffffffff16906020019092919080359060200190929190505050610c86565b005b34801561041457600080fd5b5061041d610cda565b604051808273ffffffffffffffffffffffffffffffffffffffff1673ffffffffffffffffffffffffffffffffffffffff16815260200191505060405180910390f35b6104ab6004803603604081101561047557600080fd5b81019080803573ffffffffffffffffffffffffffffffffffffffff16906020019092919080359060200190929190505050610d00565b005b3480156104b957600080fd5b506104c2610ded565b6040518082815260200191505060405180910390f35b3480156104e457600080fd5b506104ed610df3565b6040518082815260200191505060405180910390f35b34801561050f57600080fd5b506105466004803603604081101561052657600080fd5b810190808035906020019092919080359060200190929190505050610eac565b005b34801561055457600080fd5b5061055d610f49565b6040518082815260200191505060405180910390f35b6105b2828260006040519080825280601f01601f1916602001820160405280156105ac5781602001600182028038833980820191505090505b50610743565b5050565b600080600960003373ffffffffffffffffffffffffffffffffffffffff1673ffffffffffffffffffffffffffffffffffffffff1681526020019081526020016000206001015490507fb471f40a10881404b70a4f7819c075d0ae5fec92ae9454b1ccdad5c0fe9a6ab28182604051808381526020018281526020019250505060405180910390a16000600960003373ffffffffffffffffffffffffffffffffffffffff1673ffffffffffffffffffffffffffffffffffffffff168152602001908152602001600020600101819055503373ffffffffffffffffffffffffffffffffffffffff166108fc829081150290604051600060405180830381858888f193505050501580156106cb573d6000803e3d6000fd5b507f888f4fb33f1429a5c0e82c8ca8b08617833224470b7efbaf5cb4d0b00e695e658160405180806020018381526020018281038252600d8152602001807f596f7520776974686472657720000000000000000000000000000000000000008152506020019250505060405180910390a18091505090565b61074b610f4f565b73ffffffffffffffffffffffffffffffffffffffff163373ffffffffffffffffffffffffffffffffffffffff161461078257600080fd5b6000600760008581526020019081526020016000206002015490506000600a600086815260200190815260200160002060009054906101000a900473ffffffffffffffffffffffffffffffffffffffff16905060006002856040516020018082805190602001908083835b6020831061081057805182526020820191506020810190506020830392506107ed565b6001836020036101000a0380198251168184511680821785525050505050509050019150506040516020818303038152906040528051906020012060001c8161085557fe5b06905080600b819055507fc13d60fe9dffdb6908d2d446cd18134373a51db0738ee04f296eeb9128121cbc816040518082815260200191505060405180910390a16108a2600b5487610eac565b6108ab8661126c565b506007600087815260200190815260200160002060020160009055505050505050565b6108d6613116565b33816000019073ffffffffffffffffffffffffffffffffffffffff16908173ffffffffffffffffffffffffffffffffffffffff1681525050600081602001818152505080600960003373ffffffffffffffffffffffffffffffffffffffff1673ffffffffffffffffffffffffffffffffffffffff16815260200190815260200160002060008201518160000160006101000a81548173ffffffffffffffffffffffffffffffffffffffff021916908373ffffffffffffffffffffffffffffffffffffffff160217905550602082015181600101556040820151816002015560608201518160030160006101000a81548160ff02191690831515021790555090505050565b60007fb471f40a10881404b70a4f7819c075d0ae5fec92ae9454b1ccdad5c0fe9a6ab2600960003373ffffffffffffffffffffffffffffffffffffffff1673ffffffffffffffffffffffffffffffffffffffff16815260200190815260200160002060010154600960003373ffffffffffffffffffffffffffffffffffffffff1673ffffffffffffffffffffffffffffffffffffffff16815260200190815260200160002060010154604051808381526020018281526020019250505060405180910390a1600960003373ffffffffffffffffffffffffffffffffffffffff1673ffffffffffffffffffffffffffffffffffffffff16815260200190815260200160002060010154905090565b33600a600083815260200190815260200160002060006101000a81548173ffffffffffffffffffffffffffffffffffffffff021916908373ffffffffffffffffffffffffffffffffffffffff16021790555082600960008573ffffffffffffffffffffffffffffffffffffffff1673ffffffffffffffffffffffffffffffffffffffff16815260200190815260200160002060000160006101000a81548173ffffffffffffffffffffffffffffffffffffffff021916908373ffffffffffffffffffffffffffffffffffffffff160217905550610bc2613159565b83816000019073ffffffffffffffffffffffffffffffffffffffff16908173ffffffffffffffffffffffffffffffffffffffff16815250508281602001818152505081816040018181525050806007600084815260200190815260200160002060008201518160000160006101000a81548173ffffffffffffffffffffffffffffffffffffffff021916908373ffffffffffffffffffffffffffffffffffffffff160217905550602082015181600101556040820151816002015590505050505050565b80600960008473ffffffffffffffffffffffffffffffffffffffff1673ffffffffffffffffffffffffffffffffffffffff168152602001908152602001600020600101600082825401925050819055505050565b600560009054906101000a900473ffffffffffffffffffffffffffffffffffffffff1681565b6000809050600062030d4090506000610d1b8360018461157e565b9050349350610d2b338583610ae7565b7f5e35a070670d9d1b09ecfeeae77ca75380c3bf10808c2cc6ae99b217977e09bd816040518080602001838152602001828103825260178152602001807f546865204944206f6620746869732063616c6c206973200000000000000000008152506020019250505060405180910390a17fc4dc360d0a9c0677a3379ae0a3d81e887f761e65fdf3d7e00859d1bcd3c473896040518080602001828103825260348152602001806132a06034913960400191505060405180910390a15050505050565b60065481565b6000600560009054906101000a900473ffffffffffffffffffffffffffffffffffffffff1673ffffffffffffffffffffffffffffffffffffffff163373ffffffffffffffffffffffffffffffffffffffff1614610e4f57600080fd5b6000600654905060006006819055503373ffffffffffffffffffffffffffffffffffffffff166108fc829081150290604051600060405180830381858888f19350505050158015610ea4573d6000803e3d6000fd5b508091505090565b610eb4613193565b82816000018181525050818160400181815250506001831415610ee7576001816020019015159081151581525050610ef9565b60008160200190151590811515815250505b80600860008481526020019081526020016000206000820151816000015560208201518160010160006101000a81548160ff02191690831515021790555060408201518160020155905050505050565b600b5481565b60008073ffffffffffffffffffffffffffffffffffffffff16600160009054906101000a900473ffffffffffffffffffffffffffffffffffffffff1673ffffffffffffffffffffffffffffffffffffffff161480610fd757506000610fd5600160009054906101000a900473ffffffffffffffffffffffffffffffffffffffff16611b19565b145b15610fe857610fe66000611b24565b505b600160009054906101000a900473ffffffffffffffffffffffffffffffffffffffff1673ffffffffffffffffffffffffffffffffffffffff166338cc48316040518163ffffffff1660e01b8152600401602060405180830381600087803b15801561105257600080fd5b505af1158015611066573d6000803e3d6000fd5b505050506040513d602081101561107c57600080fd5b810190808051906020019092919050505073ffffffffffffffffffffffffffffffffffffffff166000809054906101000a900473ffffffffffffffffffffffffffffffffffffffff1673ffffffffffffffffffffffffffffffffffffffff16146111c557600160009054906101000a900473ffffffffffffffffffffffffffffffffffffffff1673ffffffffffffffffffffffffffffffffffffffff166338cc48316040518163ffffffff1660e01b8152600401602060405180830381600087803b15801561114a57600080fd5b505af115801561115e573d6000803e3d6000fd5b505050506040513d602081101561117457600080fd5b81019080805190602001909291905050506000806101000a81548173ffffffffffffffffffffffffffffffffffffffff021916908373ffffffffffffffffffffffffffffffffffffffff1602179055505b6000809054906101000a900473ffffffffffffffffffffffffffffffffffffffff1673ffffffffffffffffffffffffffffffffffffffff1663c281d19e6040518163ffffffff1660e01b815260040160206040518083038186803b15801561122c57600080fd5b505afa158015611240573d6000803e3d6000fd5b505050506040513d602081101561125657600080fd5b8101908080519060200190929190505050905090565b6000806008600084815260200190815260200160002060010160009054906101000a900460ff1690506000600760008581526020019081526020016000206001015490506000600a600086815260200190815260200160002060009054906101000a900473ffffffffffffffffffffffffffffffffffffffff1690506112f0613116565b600960008373ffffffffffffffffffffffffffffffffffffffff1673ffffffffffffffffffffffffffffffffffffffff1681526020019081526020016000206040518060800160405290816000820160009054906101000a900473ffffffffffffffffffffffffffffffffffffffff1673ffffffffffffffffffffffffffffffffffffffff1673ffffffffffffffffffffffffffffffffffffffff16815260200160018201548152602001600282015481526020016003820160009054906101000a900460ff16151515158152505090506001151584151514806113d8575060001515841515145b156114f057600060028402905080600960008573ffffffffffffffffffffffffffffffffffffffff1673ffffffffffffffffffffffffffffffffffffffff168152602001908152602001600020600101819055507f7f286286ddac21458cfcd9160c74a2bb53f361388c342a089321237fb3e21a24816040518082815260200191505060405180910390a1836006600082825403925050819055507f7e7d5e50adfbb4e81427323125a4d6250cf27f8b49ff7305f48c9fcb4d2525ea600285026040518080602001838152602001828103825260088152602001807f596f7520776f6e200000000000000000000000000000000000000000000000008152506020019250505060405180910390a16000905050611571565b826006600082825401925050819055507fdbc743cebacba388691ee70a334a0faaee0490d78d1e3be2ba9081622471cdad836040518080602001838152602001828103825260098152602001807f596f75206c6f73742000000000000000000000000000000000000000000000008152506020019250505060405180910390a15b6000925050505050919050565b60008083118015611590575060208311155b61159957600080fd5b600a84029350606060016040519080825280601f01601f1916602001820160405280156115d55781602001600182028038833980820191505090505b5090508360f81b816000815181106115e957fe5b60200101907effffffffffffffffffffffffffffffffffffffffffffffffffffffffffffff1916908160001a905350606060206040519080825280601f01601f19166020018201604052801561164e5781602001600182028038833980820191505090505b509050606060206040519080825280601f01601f1916602001820160405280156116875781602001600182028038833980820191505090505b5090506000611694611b35565b905060208352424118600143034018602084015260208252806020830152606060206040519080825280601f01601f1916602001820160405280156116e85781602001600182028038833980820191505090505b509050886020820152606060086040519080825280601f01601f1916602001820160405280156117275781602001600182028038833980820191505090505b50905061173a8260186008846000611e52565b506117436131b9565b604051806080016040528087815260200188815260200186815260200184815250905060006117a86040518060400160405280600681526020017f72616e646f6d0000000000000000000000000000000000000000000000000000815250838c611eb1565b9050606060086040519080825280601f01601f1916602001820160405280156117e05781602001600182028038833980820191505090505b50905060208401517f0100000000000000000000000000000000000000000000000000000000000000810460278301537e01000000000000000000000000000000000000000000000000000000000000810460268301537d010000000000000000000000000000000000000000000000000000000000810460258301537c0100000000000000000000000000000000000000000000000000000000810460248301537b01000000000000000000000000000000000000000000000000000000810460238301537a010000000000000000000000000000000000000000000000000000810460228301537901000000000000000000000000000000000000000000000000008104602183015378010000000000000000000000000000000000000000000000008104602083015350611b0682828560016004811061191f57fe5b602002015160028760006004811061193357fe5b60200201516040518082805190602001908083835b6020831061196b5780518252602082019150602081019050602083039250611948565b6001836020036101000a038019825116818451168082178552505050505050905001915050602060405180830381855afa1580156119ad573d6000803e3d6000fd5b5050506040513d60208110156119c257600080fd5b8101908080519060200190929190505050876002600481106119e057fe5b60200201516040516020018085805190602001908083835b60208310611a1b57805182526020820191506020810190506020830392506119f8565b6001836020036101000a03801982511681845116808217855250505050505090500184805190602001908083835b60208310611a6c5780518252602082019150602081019050602083039250611a49565b6001836020036101000a03801982511681845116808217855250505050505090500183815260200182805190602001908083835b60208310611ac35780518252602082019150602081019050602083039250611aa0565b6001836020036101000a0380198251168184511680821785525050505050509050019450505050506040516020818303038152906040528051906020012061221e565b8199505050505050505050509392505050565b6000813b9050919050565b6000611b2e61223a565b9050919050565b60008073ffffffffffffffffffffffffffffffffffffffff16600160009054906101000a900473ffffffffffffffffffffffffffffffffffffffff1673ffffffffffffffffffffffffffffffffffffffff161480611bbd57506000611bbb600160009054906101000a900473ffffffffffffffffffffffffffffffffffffffff16611b19565b145b15611bce57611bcc6000611b24565b505b600160009054906101000a900473ffffffffffffffffffffffffffffffffffffffff1673ffffffffffffffffffffffffffffffffffffffff166338cc48316040518163ffffffff1660e01b8152600401602060405180830381600087803b158015611c3857600080fd5b505af1158015611c4c573d6000803e3d6000fd5b505050506040513d6020811015611c6257600080fd5b810190808051906020019092919050505073ffffffffffffffffffffffffffffffffffffffff166000809054906101000a900473ffffffffffffffffffffffffffffffffffffffff1673ffffffffffffffffffffffffffffffffffffffff1614611dab57600160009054906101000a900473ffffffffffffffffffffffffffffffffffffffff1673ffffffffffffffffffffffffffffffffffffffff166338cc48316040518163ffffffff1660e01b8152600401602060405180830381600087803b158015611d3057600080fd5b505af1158015611d44573d6000803e3d6000fd5b505050506040513d6020811015611d5a57600080fd5b81019080805190602001909291905050506000806101000a81548173ffffffffffffffffffffffffffffffffffffffff021916908373ffffffffffffffffffffffffffffffffffffffff1602179055505b6000809054906101000a900473ffffffffffffffffffffffffffffffffffffffff1673ffffffffffffffffffffffffffffffffffffffff1663abaa5f3e6040518163ffffffff1660e01b815260040160206040518083038186803b158015611e1257600080fd5b505afa158015611e26573d6000803e3d6000fd5b505050506040513d6020811015611e3c57600080fd5b8101908080519060200190929190505050905090565b6060600082850190508084511015611e6957600080fd5b600086602001905060008460200190505b868860200101821015611ea25781890151808288015250602082019150602081019050611e7a565b85935050505095945050505050565b60008073ffffffffffffffffffffffffffffffffffffffff16600160009054906101000a900473ffffffffffffffffffffffffffffffffffffffff1673ffffffffffffffffffffffffffffffffffffffff161480611f3957506000611f37600160009054906101000a900473ffffffffffffffffffffffffffffffffffffffff16611b19565b145b15611f4a57611f486000611b24565b505b600160009054906101000a900473ffffffffffffffffffffffffffffffffffffffff1673ffffffffffffffffffffffffffffffffffffffff166338cc48316040518163ffffffff1660e01b8152600401602060405180830381600087803b158015611fb457600080fd5b505af1158015611fc8573d6000803e3d6000fd5b505050506040513d6020811015611fde57600080fd5b810190808051906020019092919050505073ffffffffffffffffffffffffffffffffffffffff166000809054906101000a900473ffffffffffffffffffffffffffffffffffffffff1673ffffffffffffffffffffffffffffffffffffffff161461212757600160009054906101000a900473ffffffffffffffffffffffffffffffffffffffff1673ffffffffffffffffffffffffffffffffffffffff166338cc48316040518163ffffffff1660e01b8152600401602060405180830381600087803b1580156120ac57600080fd5b505af11580156120c0573d6000803e3d6000fd5b505050506040513d60208110156120d657600080fd5b81019080805190602001909291905050506000806101000a81548173ffffffffffffffffffffffffffffffffffffffff021916908373ffffffffffffffffffffffffffffffffffffffff1602179055505b6060600460405190808252806020026020018201604052801561215e57816020015b60608152602001906001900390816121495790505b5090508360006004811061216e57fe5b60200201518160008151811061218057fe5b60200260200101819052508360016004811061219857fe5b6020020151816001815181106121aa57fe5b6020026020010181905250836002600481106121c257fe5b6020020151816002815181106121d457fe5b6020026020010181905250836003600481106121ec57fe5b6020020151816003815181106121fe57fe5b6020026020010181905250612214858285612791565b9150509392505050565b8060036000848152602001908152602001600020819055505050565b60008061225a731d3b2638a7cc9f2cb3d298a3da7a90b67e5506ed611b19565b11156122fc57731d3b2638a7cc9f2cb3d298a3da7a90b67e5506ed600160006101000a81548173ffffffffffffffffffffffffffffffffffffffff021916908373ffffffffffffffffffffffffffffffffffffffff1602179055506122f36040518060400160405280600b81526020017f6574685f6d61696e6e6574000000000000000000000000000000000000000000815250612cf3565b6001905061278e565b600061231b73c03a2615d5efaf5f49f60b7bb6583eaec212fdf1611b19565b11156123bd5773c03a2615d5efaf5f49f60b7bb6583eaec212fdf1600160006101000a81548173ffffffffffffffffffffffffffffffffffffffff021916908373ffffffffffffffffffffffffffffffffffffffff1602179055506123b46040518060400160405280600c81526020017f6574685f726f707374656e330000000000000000000000000000000000000000815250612cf3565b6001905061278e565b60006123dc73b7a07bcf2ba2f2703b24c0691b5278999c59ac7e611b19565b111561247e5773b7a07bcf2ba2f2703b24c0691b5278999c59ac7e600160006101000a81548173ffffffffffffffffffffffffffffffffffffffff021916908373ffffffffffffffffffffffffffffffffffffffff1602179055506124756040518060400160405280600981526020017f6574685f6b6f76616e0000000000000000000000000000000000000000000000815250612cf3565b6001905061278e565b600061249d73146500cfd35b22e4a392fe0adc06de1a1368ed48611b19565b111561253f5773146500cfd35b22e4a392fe0adc06de1a1368ed48600160006101000a81548173ffffffffffffffffffffffffffffffffffffffff021916908373ffffffffffffffffffffffffffffffffffffffff1602179055506125366040518060400160405280600b81526020017f6574685f72696e6b656279000000000000000000000000000000000000000000815250612cf3565b6001905061278e565b600061255e73a2998efd205fb9d4b4963afb70778d6354ad3a41611b19565b11156126005773a2998efd205fb9d4b4963afb70778d6354ad3a41600160006101000a81548173ffffffffffffffffffffffffffffffffffffffff021916908373ffffffffffffffffffffffffffffffffffffffff1602179055506125f76040518060400160405280600a81526020017f6574685f676f65726c6900000000000000000000000000000000000000000000815250612cf3565b6001905061278e565b600061261f736f485c8bf6fc43ea212e93bbf8ce046c7f1cb475611b19565b111561268357736f485c8bf6fc43ea212e93bbf8ce046c7f1cb475600160006101000a81548173ffffffffffffffffffffffffffffffffffffffff021916908373ffffffffffffffffffffffffffffffffffffffff1602179055506001905061278e565b60006126a27320e12a1f859b3feae5fb2a0a32c18f5a65555bbf611b19565b1115612706577320e12a1f859b3feae5fb2a0a32c18f5a65555bbf600160006101000a81548173ffffffffffffffffffffffffffffffffffffffff021916908373ffffffffffffffffffffffffffffffffffffffff1602179055506001905061278e565b60006127257351efaf4c8b3c9afbd5ab9f4bbc82784ab6ef8faa611b19565b1115612789577351efaf4c8b3c9afbd5ab9f4bbc82784ab6ef8faa600160006101000a81548173ffffffffffffffffffffffffffffffffffffffff021916908373ffffffffffffffffffffffffffffffffffffffff1602179055506001905061278e565b600090505b90565b60008073ffffffffffffffffffffffffffffffffffffffff16600160009054906101000a900473ffffffffffffffffffffffffffffffffffffffff1673ffffffffffffffffffffffffffffffffffffffff16148061281957506000612817600160009054906101000a900473ffffffffffffffffffffffffffffffffffffffff16611b19565b145b1561282a576128286000611b24565b505b600160009054906101000a900473ffffffffffffffffffffffffffffffffffffffff1673ffffffffffffffffffffffffffffffffffffffff166338cc48316040518163ffffffff1660e01b8152600401602060405180830381600087803b15801561289457600080fd5b505af11580156128a8573d6000803e3d6000fd5b505050506040513d60208110156128be57600080fd5b810190808051906020019092919050505073ffffffffffffffffffffffffffffffffffffffff166000809054906101000a900473ffffffffffffffffffffffffffffffffffffffff1673ffffffffffffffffffffffffffffffffffffffff1614612a0757600160009054906101000a900473ffffffffffffffffffffffffffffffffffffffff1673ffffffffffffffffffffffffffffffffffffffff166338cc48316040518163ffffffff1660e01b8152600401602060405180830381600087803b15801561298c57600080fd5b505af11580156129a0573d6000803e3d6000fd5b505050506040513d60208110156129b657600080fd5b81019080805190602001909291905050506000806101000a81548173ffffffffffffffffffffffffffffffffffffffff021916908373ffffffffffffffffffffffffffffffffffffffff1602179055505b60008060009054906101000a900473ffffffffffffffffffffffffffffffffffffffff1673ffffffffffffffffffffffffffffffffffffffff16632ef3accc86856040518363ffffffff1660e01b81526004018080602001838152602001828103825284818151815260200191508051906020019080838360005b83811015612a9d578082015181840152602081019050612a82565b50505050905090810190601f168015612aca5780820380516001836020036101000a031916815260200191505b509350505050602060405180830381600087803b158015612aea57600080fd5b505af1158015612afe573d6000803e3d6000fd5b505050506040513d6020811015612b1457600080fd5b81019080805190602001909291905050509050823a02670de0b6b3a764000001811115612b47576000801b915050612cec565b6060612b5285612d0d565b90506000809054906101000a900473ffffffffffffffffffffffffffffffffffffffff1673ffffffffffffffffffffffffffffffffffffffff1663c55c1cb68360008985896040518663ffffffff1660e01b8152600401808581526020018060200180602001848152602001838103835286818151815260200191508051906020019080838360005b83811015612bf6578082015181840152602081019050612bdb565b50505050905090810190601f168015612c235780820380516001836020036101000a031916815260200191505b50838103825285818151815260200191508051906020019080838360005b83811015612c5c578082015181840152602081019050612c41565b50505050905090810190601f168015612c895780820380516001836020036101000a031916815260200191505b5096505050505050506020604051808303818588803b158015612cab57600080fd5b505af1158015612cbf573d6000803e3d6000fd5b50505050506040513d6020811015612cd657600080fd5b8101908080519060200190929190505050925050505b9392505050565b8060029080519060200190612d099291906131e0565b5050565b6060612d17612d8d565b612d1f613260565b612d2b81610400612d99565b612d3481612de3565b60008090505b8351811015612d7657612d69848281518110612d5257fe5b602002602001015183612df190919063ffffffff16565b8080600101915050612d3a565b50612d8081612e16565b8060000151915050919050565b60405180590338823950565b6000819050600060208281612daa57fe5b0614612dc35760208181612dba57fe5b06602003810190505b808360200181815250506040518084526000815281810160405250505050565b612dee816004612e24565b50565b612dfe8260028351612e45565b612e118183612f8590919063ffffffff16565b505050565b612e21816007612e24565b50565b612e41601f60058360ff16901b178361303090919063ffffffff16565b5050565b60178111612e7157612e6c8160058460ff16901b60ff16178461303090919063ffffffff16565b612f80565b60ff8111612eb257612e96601860058460ff16901b178461303090919063ffffffff16565b612eac816001856130709092919063ffffffff16565b50612f7f565b61ffff8111612ef457612ed8601960058460ff16901b178461303090919063ffffffff16565b612eee816002856130709092919063ffffffff16565b50612f7e565b63ffffffff8111612f3857612f1c601a60058460ff16901b178461303090919063ffffffff16565b612f32816004856130709092919063ffffffff16565b50612f7d565b67ffffffffffffffff8111612f7c57612f64601b60058460ff16901b178461303090919063ffffffff16565b612f7a816008856130709092919063ffffffff16565b505b5b5b5b5b505050565b612f8d613260565b82602001518360000151518351011115612fbd57612fbc836002612fb6866020015186516130d7565b026130f3565b5b60008060008451905085518051602081830101945086518101825260208701935050505b602081106130045781518352602083019250602082019150602081039050612fe1565b60006001826020036101000a039050801983511681855116818117865250508694505050505092915050565b81602001516001836000015151011115613056576130558260028460200151026130f3565b5b815180516020818301018381536001820183525050505050565b613078613260565b8360200151846000015151830111156130a6576130a584600261309f8760200151866130d7565b026130f3565b5b60006001836101000a0390508451805184818301018684198251161781528582018352505050849150509392505050565b6000818311156130e9578290506130ed565b8190505b92915050565b6060826000015190506131068383612d99565b6131108382612f85565b50505050565b6040518060800160405280600073ffffffffffffffffffffffffffffffffffffffff16815260200160008152602001600080191681526020016000151581525090565b6040518060600160405280600073ffffffffffffffffffffffffffffffffffffffff16815260200160008152602001600080191681525090565b604051806060016040528060008152602001600015158152602001600080191681525090565b60405180608001604052806004905b60608152602001906001900390816131c85790505090565b828054600181600116156101000203166002900490600052602060002090601f016020900481019282601f1061322157805160ff191683800117855561324f565b8280016001018555821561324f579182015b8281111561324e578251825591602001919060010190613233565b5b50905061325c919061327a565b5090565b604051806040016040528060608152602001600081525090565b61329c91905b80821115613298576000816000905550600101613280565b5090565b9056fe50726f7661626c65207175657279207761732073656e742c207374616e64696e6720627920666f722074686520616e737765722ea265627a7a7231582019b2ba962a4cd821ba6b4a74915d2880331caab2e46f2fcd0d57371715d5b73c64736f6c634300050c0032",
  "source": "pragma solidity >=0.5.12 < 0.6.0;\r\nimport \"./provableAPI.sol\";\r\nimport \"./Storagable.sol\";\r\nimport \"./Winnable.sol\";\r\n\r\n\r\ncontract oracle is usingProvable, Storagable, Winnable{\r\n\r\n\r\n  uint256 constant NUM_RANDOM_BYTES_REQUESTED = 1;\r\n  uint256 public latestNumber;\r\n\r\n\r\n\r\n  event LogNewProvableQuery(string description);\r\n  event generatedRandomNumber(uint256 randomNumber);\r\n  event idCheck(string a, bytes32 q_id);\r\n\r\n\r\n\r\n\r\n\r\n\r\n\r\n\r\n\r\n    function __callback(bytes32 _queryId, string memory _result, bytes memory _proof) public {\r\n    require(msg.sender == provable_cbAddress());\r\n    bytes32 punter = waiting[_queryId].id;\r\n    address newLink = linking[_queryId];\r\n\r\n    uint256 randomNumber = uint256(keccak256(abi.encodePacked(_result))) % 2;\r\n\r\n    latestNumber = randomNumber;\r\n    emit generatedRandomNumber(randomNumber);\r\n    saveResults(latestNumber,_queryId);\r\n    winOrLose(_queryId);\r\n\r\n\r\n    delete waiting[_queryId].id;\r\n\r\n  }\r\n\r\n\r\n\r\n  function random(address punter, uint _betAmount) payable public  {\r\n    uint256 QUERY_EXECUTION_DELAY =0;\r\n    uint GAS_FOR_CALLBACK = 200000;\r\n\r\n\r\n   bytes32 q_id =  provable_newRandomDSQuery(\r\n        QUERY_EXECUTION_DELAY,\r\n        NUM_RANDOM_BYTES_REQUESTED,\r\n        GAS_FOR_CALLBACK\r\n      );\r\n       _betAmount = msg.value;\r\n      //createPlayer(msg.sender, _betAmount, q_id);\r\n      fillPlayerInfo (msg.sender, _betAmount, q_id);\r\n\r\n\r\n\r\n     emit idCheck(\"The ID of this call is \", q_id);\r\n    emit LogNewProvableQuery(\"Provable query was sent, standing by for the answer.\");\r\n\r\n  }\r\n\r\n\r\n\r\n}\r\n",
  "sourcePath": "D:\\Users\\victo\\Desktop\\Crypto Programming\\Ethereum\\Coinflip\\contracts\\oracle.sol",
  "compiler": {
    "name": "solc",
    "version": "0.5.12+commit.7709ece9.Emscripten.clang"
  },
  "schemaVersion": "3.0.16",
  "updatedAt": "2020-10-31T05:12:52.173Z",
  "devdoc": {
    "methods": {
      "__callback(bytes32,string)": {
        "details": "The following `__callback` functions are just placeholders ideally     meant to be defined in child contract when proofs are used.     The function bodies simply silence compiler warnings."
      }
    }
  },
  "userdoc": {
    "methods": {}
  }
}