{
  "contractName": "oracle",
  "abi": [
    {
      "inputs": [],
      "payable": false,
      "stateMutability": "nonpayable",
      "type": "constructor"
    },
    {
      "anonymous": false,
      "inputs": [
        {
          "indexed": false,
          "internalType": "string",
          "name": "description",
          "type": "string"
        }
      ],
      "name": "LogNewProvableQuery",
      "type": "event"
    },
    {
      "anonymous": false,
      "inputs": [
        {
          "indexed": false,
          "internalType": "uint256",
          "name": "randomNumber",
          "type": "uint256"
        }
      ],
      "name": "generatedRandomNumber",
      "type": "event"
    },
    {
      "constant": true,
      "inputs": [],
      "name": "latestNumber",
      "outputs": [
        {
          "internalType": "uint256",
          "name": "",
          "type": "uint256"
        }
      ],
      "payable": false,
      "stateMutability": "view",
      "type": "function"
    },
    {
      "constant": false,
      "inputs": [
        {
          "internalType": "bytes32",
          "name": "_myid",
          "type": "bytes32"
        },
        {
          "internalType": "string",
          "name": "_result",
          "type": "string"
        }
      ],
      "name": "__callback",
      "outputs": [],
      "payable": false,
      "stateMutability": "nonpayable",
      "type": "function"
    },
    {
      "constant": false,
      "inputs": [
        {
          "internalType": "bytes32",
          "name": "_queryId",
          "type": "bytes32"
        },
        {
          "internalType": "string",
          "name": "_result",
          "type": "string"
        },
        {
          "internalType": "bytes",
          "name": "_proof",
          "type": "bytes"
        }
      ],
      "name": "__callback",
      "outputs": [],
      "payable": false,
      "stateMutability": "nonpayable",
      "type": "function"
    },
    {
      "constant": false,
      "inputs": [],
      "name": "update",
      "outputs": [],
      "payable": true,
      "stateMutability": "payable",
      "type": "function"
    }
  ],
  "bytecode": "0x60806040523480156200001157600080fd5b50620000226200002860201b60201c565b62001f48565b6000809050600062030d40905062000049826001836200009a60201b60201c565b507fc4dc360d0a9c0677a3379ae0a3d81e887f761e65fdf3d7e00859d1bcd3c47389604051808060200182810382526034815260200180620043c86034913960400191505060405180910390a15050565b60008083118015620000ad575060208311155b620000b757600080fd5b600a84029350606060016040519080825280601f01601f191660200182016040528015620000f45781602001600182028038833980820191505090505b5090508360f81b816000815181106200010957fe5b60200101907effffffffffffffffffffffffffffffffffffffffffffffffffffffffffffff1916908160001a905350606060206040519080825280601f01601f1916602001820160405280156200016f5781602001600182028038833980820191505090505b509050606060206040519080825280601f01601f191660200182016040528015620001a95781602001600182028038833980820191505090505b5090506000620001be6200066d60201b60201c565b905060208352424118600143034018602084015260208252806020830152606060206040519080825280601f01601f191660200182016040528015620002135781602001600182028038833980820191505090505b509050886020820152606060086040519080825280601f01601f191660200182016040528015620002535781602001600182028038833980820191505090505b5090506200026e8260186008846000620009a660201b60201c565b506200027962001e57565b60405180608001604052808781526020018881526020018681526020018481525090506000620002e66040518060400160405280600681526020017f72616e646f6d0000000000000000000000000000000000000000000000000000815250838c62000a0860201b60201c565b9050606060086040519080825280601f01601f1916602001820160405280156200031f5781602001600182028038833980820191505090505b50905060208401517f0100000000000000000000000000000000000000000000000000000000000000810460278301537e01000000000000000000000000000000000000000000000000000000000000810460268301537d010000000000000000000000000000000000000000000000000000000000810460258301537c0100000000000000000000000000000000000000000000000000000000810460248301537b01000000000000000000000000000000000000000000000000000000810460238301537a0100000000000000000000000000000000000000000000000000008104602283015379010000000000000000000000000000000000000000000000000081046021830153780100000000000000000000000000000000000000000000000081046020830153506200065a8282856001600481106200046057fe5b60200201516002876000600481106200047557fe5b60200201516040518082805190602001908083835b60208310620004af57805182526020820191506020810190506020830392506200048a565b6001836020036101000a038019825116818451168082178552505050505050905001915050602060405180830381855afa158015620004f2573d6000803e3d6000fd5b5050506040513d60208110156200050857600080fd5b8101908080519060200190929190505050876002600481106200052757fe5b60200201516040516020018085805190602001908083835b602083106200056457805182526020820191506020810190506020830392506200053f565b6001836020036101000a03801982511681845116808217855250505050505090500184805190602001908083835b60208310620005b7578051825260208201915060208101905060208303925062000592565b6001836020036101000a03801982511681845116808217855250505050505090500183815260200182805190602001908083835b60208310620006105780518252602082019150602081019050602083039250620005eb565b6001836020036101000a0380198251168184511680821785525050505050509050019450505050506040516020818303038152906040528051906020012062000da060201b60201c565b8199505050505050505050509392505050565b60008073ffffffffffffffffffffffffffffffffffffffff16600160009054906101000a900473ffffffffffffffffffffffffffffffffffffffff1673ffffffffffffffffffffffffffffffffffffffff161480620006fe57506000620006fc600160009054906101000a900473ffffffffffffffffffffffffffffffffffffffff1662000dbc60201b60201c565b145b15620007185762000716600062000dc760201b60201c565b505b600160009054906101000a900473ffffffffffffffffffffffffffffffffffffffff1673ffffffffffffffffffffffffffffffffffffffff166338cc48316040518163ffffffff1660e01b8152600401602060405180830381600087803b1580156200078357600080fd5b505af115801562000798573d6000803e3d6000fd5b505050506040513d6020811015620007af57600080fd5b810190808051906020019092919050505073ffffffffffffffffffffffffffffffffffffffff166000809054906101000a900473ffffffffffffffffffffffffffffffffffffffff1673ffffffffffffffffffffffffffffffffffffffff1614620008fc57600160009054906101000a900473ffffffffffffffffffffffffffffffffffffffff1673ffffffffffffffffffffffffffffffffffffffff166338cc48316040518163ffffffff1660e01b8152600401602060405180830381600087803b1580156200087f57600080fd5b505af115801562000894573d6000803e3d6000fd5b505050506040513d6020811015620008ab57600080fd5b81019080805190602001909291905050506000806101000a81548173ffffffffffffffffffffffffffffffffffffffff021916908373ffffffffffffffffffffffffffffffffffffffff1602179055505b6000809054906101000a900473ffffffffffffffffffffffffffffffffffffffff1673ffffffffffffffffffffffffffffffffffffffff1663abaa5f3e6040518163ffffffff1660e01b815260040160206040518083038186803b1580156200096457600080fd5b505afa15801562000979573d6000803e3d6000fd5b505050506040513d60208110156200099057600080fd5b8101908080519060200190929190505050905090565b6060600082850190508084511015620009be57600080fd5b600086602001905060008460200190505b868860200101821015620009f95781890151808288015250602082019150602081019050620009cf565b85935050505095945050505050565b60008073ffffffffffffffffffffffffffffffffffffffff16600160009054906101000a900473ffffffffffffffffffffffffffffffffffffffff1673ffffffffffffffffffffffffffffffffffffffff16148062000a995750600062000a97600160009054906101000a900473ffffffffffffffffffffffffffffffffffffffff1662000dbc60201b60201c565b145b1562000ab35762000ab1600062000dc760201b60201c565b505b600160009054906101000a900473ffffffffffffffffffffffffffffffffffffffff1673ffffffffffffffffffffffffffffffffffffffff166338cc48316040518163ffffffff1660e01b8152600401602060405180830381600087803b15801562000b1e57600080fd5b505af115801562000b33573d6000803e3d6000fd5b505050506040513d602081101562000b4a57600080fd5b810190808051906020019092919050505073ffffffffffffffffffffffffffffffffffffffff166000809054906101000a900473ffffffffffffffffffffffffffffffffffffffff1673ffffffffffffffffffffffffffffffffffffffff161462000c9757600160009054906101000a900473ffffffffffffffffffffffffffffffffffffffff1673ffffffffffffffffffffffffffffffffffffffff166338cc48316040518163ffffffff1660e01b8152600401602060405180830381600087803b15801562000c1a57600080fd5b505af115801562000c2f573d6000803e3d6000fd5b505050506040513d602081101562000c4657600080fd5b81019080805190602001909291905050506000806101000a81548173ffffffffffffffffffffffffffffffffffffffff021916908373ffffffffffffffffffffffffffffffffffffffff1602179055505b6060600460405190808252806020026020018201604052801562000cd057816020015b606081526020019060019003908162000cba5790505b5090508360006004811062000ce157fe5b60200201518160008151811062000cf457fe5b60200260200101819052508360016004811062000d0d57fe5b60200201518160018151811062000d2057fe5b60200260200101819052508360026004811062000d3957fe5b60200201518160028151811062000d4c57fe5b60200260200101819052508360036004811062000d6557fe5b60200201518160038151811062000d7857fe5b602002602001018190525062000d9685828562000de060201b60201c565b9150509392505050565b8060036000848152602001908152602001600020819055505050565b6000813b9050919050565b600062000dd96200137460201b60201c565b9050919050565b60008073ffffffffffffffffffffffffffffffffffffffff16600160009054906101000a900473ffffffffffffffffffffffffffffffffffffffff1673ffffffffffffffffffffffffffffffffffffffff16148062000e715750600062000e6f600160009054906101000a900473ffffffffffffffffffffffffffffffffffffffff1662000dbc60201b60201c565b145b1562000e8b5762000e89600062000dc760201b60201c565b505b600160009054906101000a900473ffffffffffffffffffffffffffffffffffffffff1673ffffffffffffffffffffffffffffffffffffffff166338cc48316040518163ffffffff1660e01b8152600401602060405180830381600087803b15801562000ef657600080fd5b505af115801562000f0b573d6000803e3d6000fd5b505050506040513d602081101562000f2257600080fd5b810190808051906020019092919050505073ffffffffffffffffffffffffffffffffffffffff166000809054906101000a900473ffffffffffffffffffffffffffffffffffffffff1673ffffffffffffffffffffffffffffffffffffffff16146200106f57600160009054906101000a900473ffffffffffffffffffffffffffffffffffffffff1673ffffffffffffffffffffffffffffffffffffffff166338cc48316040518163ffffffff1660e01b8152600401602060405180830381600087803b15801562000ff257600080fd5b505af115801562001007573d6000803e3d6000fd5b505050506040513d60208110156200101e57600080fd5b81019080805190602001909291905050506000806101000a81548173ffffffffffffffffffffffffffffffffffffffff021916908373ffffffffffffffffffffffffffffffffffffffff1602179055505b60008060009054906101000a900473ffffffffffffffffffffffffffffffffffffffff1673ffffffffffffffffffffffffffffffffffffffff16632ef3accc86856040518363ffffffff1660e01b81526004018080602001838152602001828103825284818151815260200191508051906020019080838360005b8381101562001107578082015181840152602081019050620010ea565b50505050905090810190601f168015620011355780820380516001836020036101000a031916815260200191505b509350505050602060405180830381600087803b1580156200115657600080fd5b505af11580156200116b573d6000803e3d6000fd5b505050506040513d60208110156200118257600080fd5b81019080805190602001909291905050509050823a02670de0b6b3a764000001811115620011b7576000801b9150506200136d565b6060620011ca856200194360201b60201c565b90506000809054906101000a900473ffffffffffffffffffffffffffffffffffffffff1673ffffffffffffffffffffffffffffffffffffffff1663c55c1cb68360008985896040518663ffffffff1660e01b8152600401808581526020018060200180602001848152602001838103835286818151815260200191508051906020019080838360005b838110156200127057808201518184015260208101905062001253565b50505050905090810190601f1680156200129e5780820380516001836020036101000a031916815260200191505b50838103825285818151815260200191508051906020019080838360005b83811015620012d9578082015181840152602081019050620012bc565b50505050905090810190601f168015620013075780820380516001836020036101000a031916815260200191505b5096505050505050506020604051808303818588803b1580156200132a57600080fd5b505af11580156200133f573d6000803e3d6000fd5b50505050506040513d60208110156200135757600080fd5b8101908080519060200190929190505050925050505b9392505050565b6000806200139c731d3b2638a7cc9f2cb3d298a3da7a90b67e5506ed62000dbc60201b60201c565b11156200144857731d3b2638a7cc9f2cb3d298a3da7a90b67e5506ed600160006101000a81548173ffffffffffffffffffffffffffffffffffffffff021916908373ffffffffffffffffffffffffffffffffffffffff1602179055506200143e6040518060400160405280600b81526020017f6574685f6d61696e6e6574000000000000000000000000000000000000000000815250620019fe60201b60201c565b6001905062001940565b60006200146f73c03a2615d5efaf5f49f60b7bb6583eaec212fdf162000dbc60201b60201c565b11156200151b5773c03a2615d5efaf5f49f60b7bb6583eaec212fdf1600160006101000a81548173ffffffffffffffffffffffffffffffffffffffff021916908373ffffffffffffffffffffffffffffffffffffffff160217905550620015116040518060400160405280600c81526020017f6574685f726f707374656e330000000000000000000000000000000000000000815250620019fe60201b60201c565b6001905062001940565b60006200154273b7a07bcf2ba2f2703b24c0691b5278999c59ac7e62000dbc60201b60201c565b1115620015ee5773b7a07bcf2ba2f2703b24c0691b5278999c59ac7e600160006101000a81548173ffffffffffffffffffffffffffffffffffffffff021916908373ffffffffffffffffffffffffffffffffffffffff160217905550620015e46040518060400160405280600981526020017f6574685f6b6f76616e0000000000000000000000000000000000000000000000815250620019fe60201b60201c565b6001905062001940565b60006200161573146500cfd35b22e4a392fe0adc06de1a1368ed4862000dbc60201b60201c565b1115620016c15773146500cfd35b22e4a392fe0adc06de1a1368ed48600160006101000a81548173ffffffffffffffffffffffffffffffffffffffff021916908373ffffffffffffffffffffffffffffffffffffffff160217905550620016b76040518060400160405280600b81526020017f6574685f72696e6b656279000000000000000000000000000000000000000000815250620019fe60201b60201c565b6001905062001940565b6000620016e873a2998efd205fb9d4b4963afb70778d6354ad3a4162000dbc60201b60201c565b1115620017945773a2998efd205fb9d4b4963afb70778d6354ad3a41600160006101000a81548173ffffffffffffffffffffffffffffffffffffffff021916908373ffffffffffffffffffffffffffffffffffffffff1602179055506200178a6040518060400160405280600a81526020017f6574685f676f65726c6900000000000000000000000000000000000000000000815250620019fe60201b60201c565b6001905062001940565b6000620017bb736f485c8bf6fc43ea212e93bbf8ce046c7f1cb47562000dbc60201b60201c565b11156200182157736f485c8bf6fc43ea212e93bbf8ce046c7f1cb475600160006101000a81548173ffffffffffffffffffffffffffffffffffffffff021916908373ffffffffffffffffffffffffffffffffffffffff1602179055506001905062001940565b6000620018487320e12a1f859b3feae5fb2a0a32c18f5a65555bbf62000dbc60201b60201c565b1115620018ae577320e12a1f859b3feae5fb2a0a32c18f5a65555bbf600160006101000a81548173ffffffffffffffffffffffffffffffffffffffff021916908373ffffffffffffffffffffffffffffffffffffffff1602179055506001905062001940565b6000620018d57351efaf4c8b3c9afbd5ab9f4bbc82784ab6ef8faa62000dbc60201b60201c565b11156200193b577351efaf4c8b3c9afbd5ab9f4bbc82784ab6ef8faa600160006101000a81548173ffffffffffffffffffffffffffffffffffffffff021916908373ffffffffffffffffffffffffffffffffffffffff1602179055506001905062001940565b600090505b90565b60606200195562001a1a60201b60201c565b6200195f62001e7f565b620019788161040062001a2660201b62001fa41760201c565b6200198e8162001a7360201b62001fee1760201c565b60008090505b8351811015620019da57620019cc848281518110620019af57fe5b60200260200101518362001a8960201b62001ffc1790919060201c565b808060010191505062001994565b50620019f18162001abd60201b620020211760201c565b8060000151915050919050565b806002908051906020019062001a1692919062001e99565b5050565b60405180590338823950565b600081905060006020828162001a3857fe5b061462001a53576020818162001a4a57fe5b06602003810190505b808360200181815250506040518084526000815281810160405250505050565b62001a8681600462001ad360201b60201c565b50565b62001a9e826002835162001afb60201b60201c565b62001ab8818362001c8360201b620021901790919060201c565b505050565b62001ad081600762001ad360201b60201c565b50565b62001af7601f60058360ff16901b178362001d4360201b6200223b1790919060201c565b5050565b6017811162001b305762001b2a8160058460ff16901b60ff16178462001d4360201b6200223b1790919060201c565b62001c7e565b60ff811162001b815762001b5d601860058460ff16901b178462001d4360201b6200223b1790919060201c565b62001b7a8160018562001d8c60201b6200227b179092919060201c565b5062001c7d565b61ffff811162001bd35762001baf601960058460ff16901b178462001d4360201b6200223b1790919060201c565b62001bcc8160028562001d8c60201b6200227b179092919060201c565b5062001c7c565b63ffffffff811162001c275762001c03601a60058460ff16901b178462001d4360201b6200223b1790919060201c565b62001c208160048562001d8c60201b6200227b179092919060201c565b5062001c7b565b67ffffffffffffffff811162001c7a5762001c5b601b60058460ff16901b178462001d4360201b6200223b1790919060201c565b62001c788160088562001d8c60201b6200227b179092919060201c565b505b5b5b5b5b505050565b62001c8d62001e7f565b8260200151836000015151835101111562001cce5762001ccd83600262001cc08660200151865162001e0660201b60201c565b0262001e2460201b60201c565b5b60008060008451905085518051602081830101945086518101825260208701935050505b6020811062001d17578151835260208301925060208201915060208103905062001cf2565b60006001826020036101000a039050801983511681855116818117865250508694505050505092915050565b8160200151600183600001515101111562001d725762001d7182600284602001510262001e2460201b60201c565b5b815180516020818301018381536001820183525050505050565b62001d9662001e7f565b83602001518460000151518301111562001dd55762001dd484600262001dc787602001518662001e0660201b60201c565b0262001e2460201b60201c565b5b60006001836101000a0390508451805184818301018684198251161781528582018352505050849150509392505050565b60008183111562001e1a5782905062001e1e565b8190505b92915050565b60608260000151905062001e3f838362001a2660201b60201c565b62001e51838262001c8360201b60201c565b50505050565b60405180608001604052806004905b606081526020019060019003908162001e665790505090565b604051806040016040528060608152602001600081525090565b828054600181600116156101000203166002900490600052602060002090601f016020900481019282601f1062001edc57805160ff191683800117855562001f0d565b8280016001018555821562001f0d579182015b8281111562001f0c57825182559160200191906001019062001eef565b5b50905062001f1c919062001f20565b5090565b62001f4591905b8082111562001f4157600081600090555060010162001f27565b5090565b90565b6124708062001f586000396000f3fe60806040526004361061003f5760003560e01c806327dc297e1461004457806338bbfa5014610116578063a2e620451461027f578063dc34b0aa14610289575b600080fd5b34801561005057600080fd5b506101146004803603604081101561006757600080fd5b81019080803590602001909291908035906020019064010000000081111561008e57600080fd5b8201836020820111156100a057600080fd5b803590602001918460018302840111640100000000831117156100c257600080fd5b91908080601f016020809104026020016040519081016040528093929190818152602001838380828437600081840152601f19601f8201169050808301925050505050505091929192905050506102b4565b005b34801561012257600080fd5b5061027d6004803603606081101561013957600080fd5b81019080803590602001909291908035906020019064010000000081111561016057600080fd5b82018360208201111561017257600080fd5b8035906020019184600183028401116401000000008311171561019457600080fd5b91908080601f016020809104026020016040519081016040528093929190818152602001838380828437600081840152601f19601f820116905080830192505050505050509192919290803590602001906401000000008111156101f757600080fd5b82018360208201111561020957600080fd5b8035906020019184600183028401116401000000008311171561022b57600080fd5b91908080601f016020809104026020016040519081016040528093929190818152602001838380828437600081840152601f19601f8201169050808301925050505050505091929192905050506102f7565b005b6102876103fd565b005b34801561029557600080fd5b5061029e610466565b6040518082815260200191505060405180910390f35b6102f3828260006040519080825280601f01601f1916602001820160405280156102ed5781602001600182028038833980820191505090505b506102f7565b5050565b6102ff61046c565b73ffffffffffffffffffffffffffffffffffffffff163373ffffffffffffffffffffffffffffffffffffffff161461033657600080fd5b60006064836040516020018082805190602001908083835b60208310610371578051825260208201915060208101905060208303925061034e565b6001836020036101000a0380198251168184511680821785525050505050509050019150506040516020818303038152906040528051906020012060001c816103b657fe5b069050806005819055507fc13d60fe9dffdb6908d2d446cd18134373a51db0738ee04f296eeb9128121cbc816040518082815260200191505060405180910390a150505050565b6000809050600062030d40905061041682600183610789565b507fc4dc360d0a9c0677a3379ae0a3d81e887f761e65fdf3d7e00859d1bcd3c473896040518080602001828103825260348152602001806124086034913960400191505060405180910390a15050565b60055481565b60008073ffffffffffffffffffffffffffffffffffffffff16600160009054906101000a900473ffffffffffffffffffffffffffffffffffffffff1673ffffffffffffffffffffffffffffffffffffffff1614806104f4575060006104f2600160009054906101000a900473ffffffffffffffffffffffffffffffffffffffff16610d24565b145b15610505576105036000610d2f565b505b600160009054906101000a900473ffffffffffffffffffffffffffffffffffffffff1673ffffffffffffffffffffffffffffffffffffffff166338cc48316040518163ffffffff1660e01b8152600401602060405180830381600087803b15801561056f57600080fd5b505af1158015610583573d6000803e3d6000fd5b505050506040513d602081101561059957600080fd5b810190808051906020019092919050505073ffffffffffffffffffffffffffffffffffffffff166000809054906101000a900473ffffffffffffffffffffffffffffffffffffffff1673ffffffffffffffffffffffffffffffffffffffff16146106e257600160009054906101000a900473ffffffffffffffffffffffffffffffffffffffff1673ffffffffffffffffffffffffffffffffffffffff166338cc48316040518163ffffffff1660e01b8152600401602060405180830381600087803b15801561066757600080fd5b505af115801561067b573d6000803e3d6000fd5b505050506040513d602081101561069157600080fd5b81019080805190602001909291905050506000806101000a81548173ffffffffffffffffffffffffffffffffffffffff021916908373ffffffffffffffffffffffffffffffffffffffff1602179055505b6000809054906101000a900473ffffffffffffffffffffffffffffffffffffffff1673ffffffffffffffffffffffffffffffffffffffff1663c281d19e6040518163ffffffff1660e01b815260040160206040518083038186803b15801561074957600080fd5b505afa15801561075d573d6000803e3d6000fd5b505050506040513d602081101561077357600080fd5b8101908080519060200190929190505050905090565b6000808311801561079b575060208311155b6107a457600080fd5b600a84029350606060016040519080825280601f01601f1916602001820160405280156107e05781602001600182028038833980820191505090505b5090508360f81b816000815181106107f457fe5b60200101907effffffffffffffffffffffffffffffffffffffffffffffffffffffffffffff1916908160001a905350606060206040519080825280601f01601f1916602001820160405280156108595781602001600182028038833980820191505090505b509050606060206040519080825280601f01601f1916602001820160405280156108925781602001600182028038833980820191505090505b509050600061089f610d40565b905060208352424118600143034018602084015260208252806020830152606060206040519080825280601f01601f1916602001820160405280156108f35781602001600182028038833980820191505090505b509050886020820152606060086040519080825280601f01601f1916602001820160405280156109325781602001600182028038833980820191505090505b509050610945826018600884600061105d565b5061094e612321565b604051806080016040528087815260200188815260200186815260200184815250905060006109b36040518060400160405280600681526020017f72616e646f6d0000000000000000000000000000000000000000000000000000815250838c6110bc565b9050606060086040519080825280601f01601f1916602001820160405280156109eb5781602001600182028038833980820191505090505b50905060208401517f0100000000000000000000000000000000000000000000000000000000000000810460278301537e01000000000000000000000000000000000000000000000000000000000000810460268301537d010000000000000000000000000000000000000000000000000000000000810460258301537c0100000000000000000000000000000000000000000000000000000000810460248301537b01000000000000000000000000000000000000000000000000000000810460238301537a010000000000000000000000000000000000000000000000000000810460228301537901000000000000000000000000000000000000000000000000008104602183015378010000000000000000000000000000000000000000000000008104602083015350610d11828285600160048110610b2a57fe5b6020020151600287600060048110610b3e57fe5b60200201516040518082805190602001908083835b60208310610b765780518252602082019150602081019050602083039250610b53565b6001836020036101000a038019825116818451168082178552505050505050905001915050602060405180830381855afa158015610bb8573d6000803e3d6000fd5b5050506040513d6020811015610bcd57600080fd5b810190808051906020019092919050505087600260048110610beb57fe5b60200201516040516020018085805190602001908083835b60208310610c265780518252602082019150602081019050602083039250610c03565b6001836020036101000a03801982511681845116808217855250505050505090500184805190602001908083835b60208310610c775780518252602082019150602081019050602083039250610c54565b6001836020036101000a03801982511681845116808217855250505050505090500183815260200182805190602001908083835b60208310610cce5780518252602082019150602081019050602083039250610cab565b6001836020036101000a03801982511681845116808217855250505050505090500194505050505060405160208183030381529060405280519060200120611429565b8199505050505050505050509392505050565b6000813b9050919050565b6000610d39611445565b9050919050565b60008073ffffffffffffffffffffffffffffffffffffffff16600160009054906101000a900473ffffffffffffffffffffffffffffffffffffffff1673ffffffffffffffffffffffffffffffffffffffff161480610dc857506000610dc6600160009054906101000a900473ffffffffffffffffffffffffffffffffffffffff16610d24565b145b15610dd957610dd76000610d2f565b505b600160009054906101000a900473ffffffffffffffffffffffffffffffffffffffff1673ffffffffffffffffffffffffffffffffffffffff166338cc48316040518163ffffffff1660e01b8152600401602060405180830381600087803b158015610e4357600080fd5b505af1158015610e57573d6000803e3d6000fd5b505050506040513d6020811015610e6d57600080fd5b810190808051906020019092919050505073ffffffffffffffffffffffffffffffffffffffff166000809054906101000a900473ffffffffffffffffffffffffffffffffffffffff1673ffffffffffffffffffffffffffffffffffffffff1614610fb657600160009054906101000a900473ffffffffffffffffffffffffffffffffffffffff1673ffffffffffffffffffffffffffffffffffffffff166338cc48316040518163ffffffff1660e01b8152600401602060405180830381600087803b158015610f3b57600080fd5b505af1158015610f4f573d6000803e3d6000fd5b505050506040513d6020811015610f6557600080fd5b81019080805190602001909291905050506000806101000a81548173ffffffffffffffffffffffffffffffffffffffff021916908373ffffffffffffffffffffffffffffffffffffffff1602179055505b6000809054906101000a900473ffffffffffffffffffffffffffffffffffffffff1673ffffffffffffffffffffffffffffffffffffffff1663abaa5f3e6040518163ffffffff1660e01b815260040160206040518083038186803b15801561101d57600080fd5b505afa158015611031573d6000803e3d6000fd5b505050506040513d602081101561104757600080fd5b8101908080519060200190929190505050905090565b606060008285019050808451101561107457600080fd5b600086602001905060008460200190505b8688602001018210156110ad5781890151808288015250602082019150602081019050611085565b85935050505095945050505050565b60008073ffffffffffffffffffffffffffffffffffffffff16600160009054906101000a900473ffffffffffffffffffffffffffffffffffffffff1673ffffffffffffffffffffffffffffffffffffffff16148061114457506000611142600160009054906101000a900473ffffffffffffffffffffffffffffffffffffffff16610d24565b145b15611155576111536000610d2f565b505b600160009054906101000a900473ffffffffffffffffffffffffffffffffffffffff1673ffffffffffffffffffffffffffffffffffffffff166338cc48316040518163ffffffff1660e01b8152600401602060405180830381600087803b1580156111bf57600080fd5b505af11580156111d3573d6000803e3d6000fd5b505050506040513d60208110156111e957600080fd5b810190808051906020019092919050505073ffffffffffffffffffffffffffffffffffffffff166000809054906101000a900473ffffffffffffffffffffffffffffffffffffffff1673ffffffffffffffffffffffffffffffffffffffff161461133257600160009054906101000a900473ffffffffffffffffffffffffffffffffffffffff1673ffffffffffffffffffffffffffffffffffffffff166338cc48316040518163ffffffff1660e01b8152600401602060405180830381600087803b1580156112b757600080fd5b505af11580156112cb573d6000803e3d6000fd5b505050506040513d60208110156112e157600080fd5b81019080805190602001909291905050506000806101000a81548173ffffffffffffffffffffffffffffffffffffffff021916908373ffffffffffffffffffffffffffffffffffffffff1602179055505b6060600460405190808252806020026020018201604052801561136957816020015b60608152602001906001900390816113545790505b5090508360006004811061137957fe5b60200201518160008151811061138b57fe5b6020026020010181905250836001600481106113a357fe5b6020020151816001815181106113b557fe5b6020026020010181905250836002600481106113cd57fe5b6020020151816002815181106113df57fe5b6020026020010181905250836003600481106113f757fe5b60200201518160038151811061140957fe5b602002602001018190525061141f85828561199c565b9150509392505050565b8060036000848152602001908152602001600020819055505050565b600080611465731d3b2638a7cc9f2cb3d298a3da7a90b67e5506ed610d24565b111561150757731d3b2638a7cc9f2cb3d298a3da7a90b67e5506ed600160006101000a81548173ffffffffffffffffffffffffffffffffffffffff021916908373ffffffffffffffffffffffffffffffffffffffff1602179055506114fe6040518060400160405280600b81526020017f6574685f6d61696e6e6574000000000000000000000000000000000000000000815250611efe565b60019050611999565b600061152673c03a2615d5efaf5f49f60b7bb6583eaec212fdf1610d24565b11156115c85773c03a2615d5efaf5f49f60b7bb6583eaec212fdf1600160006101000a81548173ffffffffffffffffffffffffffffffffffffffff021916908373ffffffffffffffffffffffffffffffffffffffff1602179055506115bf6040518060400160405280600c81526020017f6574685f726f707374656e330000000000000000000000000000000000000000815250611efe565b60019050611999565b60006115e773b7a07bcf2ba2f2703b24c0691b5278999c59ac7e610d24565b11156116895773b7a07bcf2ba2f2703b24c0691b5278999c59ac7e600160006101000a81548173ffffffffffffffffffffffffffffffffffffffff021916908373ffffffffffffffffffffffffffffffffffffffff1602179055506116806040518060400160405280600981526020017f6574685f6b6f76616e0000000000000000000000000000000000000000000000815250611efe565b60019050611999565b60006116a873146500cfd35b22e4a392fe0adc06de1a1368ed48610d24565b111561174a5773146500cfd35b22e4a392fe0adc06de1a1368ed48600160006101000a81548173ffffffffffffffffffffffffffffffffffffffff021916908373ffffffffffffffffffffffffffffffffffffffff1602179055506117416040518060400160405280600b81526020017f6574685f72696e6b656279000000000000000000000000000000000000000000815250611efe565b60019050611999565b600061176973a2998efd205fb9d4b4963afb70778d6354ad3a41610d24565b111561180b5773a2998efd205fb9d4b4963afb70778d6354ad3a41600160006101000a81548173ffffffffffffffffffffffffffffffffffffffff021916908373ffffffffffffffffffffffffffffffffffffffff1602179055506118026040518060400160405280600a81526020017f6574685f676f65726c6900000000000000000000000000000000000000000000815250611efe565b60019050611999565b600061182a736f485c8bf6fc43ea212e93bbf8ce046c7f1cb475610d24565b111561188e57736f485c8bf6fc43ea212e93bbf8ce046c7f1cb475600160006101000a81548173ffffffffffffffffffffffffffffffffffffffff021916908373ffffffffffffffffffffffffffffffffffffffff16021790555060019050611999565b60006118ad7320e12a1f859b3feae5fb2a0a32c18f5a65555bbf610d24565b1115611911577320e12a1f859b3feae5fb2a0a32c18f5a65555bbf600160006101000a81548173ffffffffffffffffffffffffffffffffffffffff021916908373ffffffffffffffffffffffffffffffffffffffff16021790555060019050611999565b60006119307351efaf4c8b3c9afbd5ab9f4bbc82784ab6ef8faa610d24565b1115611994577351efaf4c8b3c9afbd5ab9f4bbc82784ab6ef8faa600160006101000a81548173ffffffffffffffffffffffffffffffffffffffff021916908373ffffffffffffffffffffffffffffffffffffffff16021790555060019050611999565b600090505b90565b60008073ffffffffffffffffffffffffffffffffffffffff16600160009054906101000a900473ffffffffffffffffffffffffffffffffffffffff1673ffffffffffffffffffffffffffffffffffffffff161480611a2457506000611a22600160009054906101000a900473ffffffffffffffffffffffffffffffffffffffff16610d24565b145b15611a3557611a336000610d2f565b505b600160009054906101000a900473ffffffffffffffffffffffffffffffffffffffff1673ffffffffffffffffffffffffffffffffffffffff166338cc48316040518163ffffffff1660e01b8152600401602060405180830381600087803b158015611a9f57600080fd5b505af1158015611ab3573d6000803e3d6000fd5b505050506040513d6020811015611ac957600080fd5b810190808051906020019092919050505073ffffffffffffffffffffffffffffffffffffffff166000809054906101000a900473ffffffffffffffffffffffffffffffffffffffff1673ffffffffffffffffffffffffffffffffffffffff1614611c1257600160009054906101000a900473ffffffffffffffffffffffffffffffffffffffff1673ffffffffffffffffffffffffffffffffffffffff166338cc48316040518163ffffffff1660e01b8152600401602060405180830381600087803b158015611b9757600080fd5b505af1158015611bab573d6000803e3d6000fd5b505050506040513d6020811015611bc157600080fd5b81019080805190602001909291905050506000806101000a81548173ffffffffffffffffffffffffffffffffffffffff021916908373ffffffffffffffffffffffffffffffffffffffff1602179055505b60008060009054906101000a900473ffffffffffffffffffffffffffffffffffffffff1673ffffffffffffffffffffffffffffffffffffffff16632ef3accc86856040518363ffffffff1660e01b81526004018080602001838152602001828103825284818151815260200191508051906020019080838360005b83811015611ca8578082015181840152602081019050611c8d565b50505050905090810190601f168015611cd55780820380516001836020036101000a031916815260200191505b509350505050602060405180830381600087803b158015611cf557600080fd5b505af1158015611d09573d6000803e3d6000fd5b505050506040513d6020811015611d1f57600080fd5b81019080805190602001909291905050509050823a02670de0b6b3a764000001811115611d52576000801b915050611ef7565b6060611d5d85611f18565b90506000809054906101000a900473ffffffffffffffffffffffffffffffffffffffff1673ffffffffffffffffffffffffffffffffffffffff1663c55c1cb68360008985896040518663ffffffff1660e01b8152600401808581526020018060200180602001848152602001838103835286818151815260200191508051906020019080838360005b83811015611e01578082015181840152602081019050611de6565b50505050905090810190601f168015611e2e5780820380516001836020036101000a031916815260200191505b50838103825285818151815260200191508051906020019080838360005b83811015611e67578082015181840152602081019050611e4c565b50505050905090810190601f168015611e945780820380516001836020036101000a031916815260200191505b5096505050505050506020604051808303818588803b158015611eb657600080fd5b505af1158015611eca573d6000803e3d6000fd5b50505050506040513d6020811015611ee157600080fd5b8101908080519060200190929190505050925050505b9392505050565b8060029080519060200190611f14929190612348565b5050565b6060611f22611f98565b611f2a6123c8565b611f3681610400611fa4565b611f3f81611fee565b60008090505b8351811015611f8157611f74848281518110611f5d57fe5b602002602001015183611ffc90919063ffffffff16565b8080600101915050611f45565b50611f8b81612021565b8060000151915050919050565b60405180590338823950565b6000819050600060208281611fb557fe5b0614611fce5760208181611fc557fe5b06602003810190505b808360200181815250506040518084526000815281810160405250505050565b611ff981600461202f565b50565b6120098260028351612050565b61201c818361219090919063ffffffff16565b505050565b61202c81600761202f565b50565b61204c601f60058360ff16901b178361223b90919063ffffffff16565b5050565b6017811161207c576120778160058460ff16901b60ff16178461223b90919063ffffffff16565b61218b565b60ff81116120bd576120a1601860058460ff16901b178461223b90919063ffffffff16565b6120b78160018561227b9092919063ffffffff16565b5061218a565b61ffff81116120ff576120e3601960058460ff16901b178461223b90919063ffffffff16565b6120f98160028561227b9092919063ffffffff16565b50612189565b63ffffffff811161214357612127601a60058460ff16901b178461223b90919063ffffffff16565b61213d8160048561227b9092919063ffffffff16565b50612188565b67ffffffffffffffff81116121875761216f601b60058460ff16901b178461223b90919063ffffffff16565b6121858160088561227b9092919063ffffffff16565b505b5b5b5b5b505050565b6121986123c8565b826020015183600001515183510111156121c8576121c78360026121c1866020015186516122e2565b026122fe565b5b60008060008451905085518051602081830101945086518101825260208701935050505b6020811061220f57815183526020830192506020820191506020810390506121ec565b60006001826020036101000a039050801983511681855116818117865250508694505050505092915050565b81602001516001836000015151011115612261576122608260028460200151026122fe565b5b815180516020818301018381536001820183525050505050565b6122836123c8565b8360200151846000015151830111156122b1576122b08460026122aa8760200151866122e2565b026122fe565b5b60006001836101000a0390508451805184818301018684198251161781528582018352505050849150509392505050565b6000818311156122f4578290506122f8565b8190505b92915050565b6060826000015190506123118383611fa4565b61231b8382612190565b50505050565b60405180608001604052806004905b60608152602001906001900390816123305790505090565b828054600181600116156101000203166002900490600052602060002090601f016020900481019282601f1061238957805160ff19168380011785556123b7565b828001600101855582156123b7579182015b828111156123b657825182559160200191906001019061239b565b5b5090506123c491906123e2565b5090565b604051806040016040528060608152602001600081525090565b61240491905b808211156124005760008160009055506001016123e8565b5090565b9056fe50726f7661626c65207175657279207761732073656e742c207374616e64696e6720627920666f722074686520616e737765722ea265627a7a72315820b6aa03cedc78da98248e2a7c9ece75a55a10e0723e4453619cfb87e56125e51364736f6c634300050c003250726f7661626c65207175657279207761732073656e742c207374616e64696e6720627920666f722074686520616e737765722e",
  "source": "pragma solidity >=0.5.12 < 0.6.0;\r\nimport \"./provableAPI.sol\";\r\n\r\n  contract oracle is usingProvable{\r\n\r\n\r\n  uint256 constant NUM_RANDOM_BYTES_REQUESTED = 1;\r\n  uint256 public latestNumber;\r\n\r\n\r\n  event LogNewProvableQuery(string description);\r\n  event generatedRandomNumber(uint256 randomNumber);\r\n\r\n\r\n  constructor() public {\r\n  update();\r\n  }\r\n\r\n  function __callback(bytes32 _queryId, string memory _result, bytes memory _proof) public {\r\n    require(msg.sender == provable_cbAddress());\r\n\r\n    uint256 randomNumber = uint256(keccak256(abi.encodePacked(_result))) % 100;\r\n    latestNumber = randomNumber;\r\n    emit generatedRandomNumber(randomNumber);\r\n  }\r\n\r\n  function update() payable public {\r\n    uint256 QUERY_EXECUTION_DELAY =0;\r\n    uint GAS_FOR_CALLBACK = 200000;\r\n    provable_newRandomDSQuery(\r\n        QUERY_EXECUTION_DELAY,\r\n        NUM_RANDOM_BYTES_REQUESTED,\r\n        GAS_FOR_CALLBACK\r\n      );\r\n    emit LogNewProvableQuery(\"Provable query was sent, standing by for the answer.\");\r\n\r\n  }\r\n\r\n\r\n\r\n\r\n}\r\n",
  "sourcePath": "D:\\Users\\victo\\Desktop\\Crypto Programming\\Ethereum\\Coinflip\\contracts\\oracle.sol",
  "compiler": {
    "name": "solc",
    "version": "0.5.12+commit.7709ece9.Emscripten.clang"
  },
  "schemaVersion": "3.0.23",
  "updatedAt": "2020-10-24T08:39:12.781Z",
  "devdoc": {
    "methods": {
      "__callback(bytes32,string)": {
        "details": "The following `__callback` functions are just placeholders ideally     meant to be defined in child contract when proofs are used.     The function bodies simply silence compiler warnings."
      }
    }
  },
  "userdoc": {
    "methods": {}
  }
}