{
  "contractName": "oracle",
  "abi": [
    {
      "anonymous": false,
      "inputs": [
        {
          "indexed": false,
          "internalType": "string",
          "name": "description",
          "type": "string"
        }
      ],
      "name": "LogNewProvableQuery",
      "type": "event"
    },
    {
      "anonymous": false,
      "inputs": [
        {
          "indexed": false,
          "internalType": "uint256",
          "name": "",
          "type": "uint256"
        },
        {
          "indexed": false,
          "internalType": "uint256",
          "name": "",
          "type": "uint256"
        }
      ],
      "name": "checkBalance",
      "type": "event"
    },
    {
      "anonymous": false,
      "inputs": [
        {
          "indexed": false,
          "internalType": "string",
          "name": "whatHappened",
          "type": "string"
        },
        {
          "indexed": false,
          "internalType": "uint256",
          "name": "funds",
          "type": "uint256"
        }
      ],
      "name": "depositedFunds",
      "type": "event"
    },
    {
      "anonymous": false,
      "inputs": [
        {
          "indexed": false,
          "internalType": "uint256",
          "name": "randomNumber",
          "type": "uint256"
        }
      ],
      "name": "generatedRandomNumber",
      "type": "event"
    },
    {
      "anonymous": false,
      "inputs": [
        {
          "indexed": false,
          "internalType": "string",
          "name": "a",
          "type": "string"
        },
        {
          "indexed": false,
          "internalType": "bytes32",
          "name": "q_id",
          "type": "bytes32"
        }
      ],
      "name": "idCheck",
      "type": "event"
    },
    {
      "anonymous": false,
      "inputs": [
        {
          "indexed": false,
          "internalType": "string",
          "name": "whatHappened",
          "type": "string"
        },
        {
          "indexed": false,
          "internalType": "uint256",
          "name": "funds",
          "type": "uint256"
        }
      ],
      "name": "withDrewFunds",
      "type": "event"
    },
    {
      "anonymous": false,
      "inputs": [
        {
          "indexed": false,
          "internalType": "string",
          "name": "",
          "type": "string"
        },
        {
          "indexed": false,
          "internalType": "uint256",
          "name": "",
          "type": "uint256"
        }
      ],
      "name": "youLose",
      "type": "event"
    },
    {
      "anonymous": false,
      "inputs": [
        {
          "indexed": false,
          "internalType": "string",
          "name": "",
          "type": "string"
        },
        {
          "indexed": false,
          "internalType": "uint256",
          "name": "",
          "type": "uint256"
        }
      ],
      "name": "youWin",
      "type": "event"
    },
    {
      "constant": true,
      "inputs": [],
      "name": "balance",
      "outputs": [
        {
          "internalType": "uint256",
          "name": "",
          "type": "uint256"
        }
      ],
      "payable": false,
      "stateMutability": "view",
      "type": "function"
    },
    {
      "constant": false,
      "inputs": [
        {
          "internalType": "address payable",
          "name": "n_player",
          "type": "address"
        },
        {
          "internalType": "uint256",
          "name": "_betAmount",
          "type": "uint256"
        },
        {
          "internalType": "bytes32",
          "name": "q_id",
          "type": "bytes32"
        }
      ],
      "name": "createPlayer",
      "outputs": [],
      "payable": true,
      "stateMutability": "payable",
      "type": "function"
    },
    {
      "constant": false,
      "inputs": [],
      "name": "depositPunterFunds",
      "outputs": [],
      "payable": true,
      "stateMutability": "payable",
      "type": "function"
    },
    {
      "constant": false,
      "inputs": [],
      "name": "getPunterBalance",
      "outputs": [
        {
          "internalType": "uint256",
          "name": "",
          "type": "uint256"
        }
      ],
      "payable": false,
      "stateMutability": "nonpayable",
      "type": "function"
    },
    {
      "constant": true,
      "inputs": [],
      "name": "latestNumber",
      "outputs": [
        {
          "internalType": "uint256",
          "name": "",
          "type": "uint256"
        }
      ],
      "payable": false,
      "stateMutability": "view",
      "type": "function"
    },
    {
      "constant": true,
      "inputs": [],
      "name": "owner",
      "outputs": [
        {
          "internalType": "address",
          "name": "",
          "type": "address"
        }
      ],
      "payable": false,
      "stateMutability": "view",
      "type": "function"
    },
    {
      "constant": false,
      "inputs": [
        {
          "internalType": "uint256",
          "name": "numberCalled",
          "type": "uint256"
        },
        {
          "internalType": "bytes32",
          "name": "q_id",
          "type": "bytes32"
        }
      ],
      "name": "saveResults",
      "outputs": [],
      "payable": false,
      "stateMutability": "nonpayable",
      "type": "function"
    },
    {
      "constant": false,
      "inputs": [],
      "name": "withdrawContractBalance",
      "outputs": [
        {
          "internalType": "uint256",
          "name": "",
          "type": "uint256"
        }
      ],
      "payable": false,
      "stateMutability": "nonpayable",
      "type": "function"
    },
    {
      "constant": false,
      "inputs": [],
      "name": "withdrawPunterBalance",
      "outputs": [
        {
          "internalType": "uint256",
          "name": "",
          "type": "uint256"
        }
      ],
      "payable": false,
      "stateMutability": "nonpayable",
      "type": "function"
    },
    {
      "constant": false,
      "inputs": [
        {
          "internalType": "bytes32",
          "name": "_myid",
          "type": "bytes32"
        },
        {
          "internalType": "string",
          "name": "_result",
          "type": "string"
        }
      ],
      "name": "__callback",
      "outputs": [],
      "payable": false,
      "stateMutability": "nonpayable",
      "type": "function"
    },
    {
      "constant": false,
      "inputs": [
        {
          "internalType": "bytes32",
          "name": "_myid",
          "type": "bytes32"
        },
        {
          "internalType": "string",
          "name": "_result",
          "type": "string"
        },
        {
          "internalType": "bytes",
          "name": "_proof",
          "type": "bytes"
        }
      ],
      "name": "__callback",
      "outputs": [],
      "payable": false,
      "stateMutability": "nonpayable",
      "type": "function"
    },
    {
      "constant": false,
      "inputs": [
        {
          "internalType": "address",
          "name": "punter",
          "type": "address"
        },
        {
          "internalType": "bytes32",
          "name": "_queryId",
          "type": "bytes32"
        },
        {
          "internalType": "string",
          "name": "_result",
          "type": "string"
        }
      ],
      "name": "__callback",
      "outputs": [],
      "payable": false,
      "stateMutability": "nonpayable",
      "type": "function"
    },
    {
      "constant": false,
      "inputs": [
        {
          "internalType": "uint256",
          "name": "_betAmount",
          "type": "uint256"
        }
      ],
      "name": "random",
      "outputs": [],
      "payable": true,
      "stateMutability": "payable",
      "type": "function"
    }
  ],
  "bytecode": "0x608060405233600560006101000a81548173ffffffffffffffffffffffffffffffffffffffff021916908373ffffffffffffffffffffffffffffffffffffffff1602179055506132cd806100546000396000f3fe6080604052600436106100c25760003560e01c8063adcf72901161007f578063bfab3db911610059578063bfab3db914610552578063d79f5ec51461057d578063dc34b0aa146105c2578063fab4a46d146105ed576100c2565b8063adcf729014610407578063b69ef8a8146104f9578063b863bd3714610524576100c2565b806327dc297e146100c757806332a1b7641461019957806338bbfa50146101c45780634ff540d41461032d5780638da5cb5b146103585780638f86456b146103af575b600080fd5b3480156100d357600080fd5b50610197600480360360408110156100ea57600080fd5b81019080803590602001909291908035906020019064010000000081111561011157600080fd5b82018360208201111561012357600080fd5b8035906020019184600183028401116401000000008311171561014557600080fd5b91908080601f016020809104026020016040519081016040528093929190818152602001838380828437600081840152601f19601f8201169050808301925050505050505091929192905050506105f7565b005b3480156101a557600080fd5b506101ae61063a565b6040518082815260200191505060405180910390f35b3480156101d057600080fd5b5061032b600480360360608110156101e757600080fd5b81019080803590602001909291908035906020019064010000000081111561020e57600080fd5b82018360208201111561022057600080fd5b8035906020019184600183028401116401000000008311171561024257600080fd5b91908080601f016020809104026020016040519081016040528093929190818152602001838380828437600081840152601f19601f820116905080830192505050505050509192919290803590602001906401000000008111156102a557600080fd5b8201836020820111156102b757600080fd5b803590602001918460018302840111640100000000831117156102d957600080fd5b91908080601f016020809104026020016040519081016040528093929190818152602001838380828437600081840152601f19601f8201169050808301925050505050505091929192905050506107c7565b005b34801561033957600080fd5b506103426107ea565b6040518082815260200191505060405180910390f35b34801561036457600080fd5b5061036d6108f7565b604051808273ffffffffffffffffffffffffffffffffffffffff1673ffffffffffffffffffffffffffffffffffffffff16815260200191505060405180910390f35b610405600480360360608110156103c557600080fd5b81019080803573ffffffffffffffffffffffffffffffffffffffff169060200190929190803590602001909291908035906020019092919050505061091d565b005b34801561041357600080fd5b506104f76004803603606081101561042a57600080fd5b81019080803573ffffffffffffffffffffffffffffffffffffffff169060200190929190803590602001909291908035906020019064010000000081111561047157600080fd5b82018360208201111561048357600080fd5b803590602001918460018302840111640100000000831117156104a557600080fd5b91908080601f016020809104026020016040519081016040528093929190818152602001838380828437600081840152601f19601f820116905080830192505050505050509192919290505050610a26565b005b34801561050557600080fd5b5061050e610b9d565b6040518082815260200191505060405180910390f35b6105506004803603602081101561053a57600080fd5b8101908080359060200190929190505050610ba3565b005b34801561055e57600080fd5b50610567610c8f565b6040518082815260200191505060405180910390f35b34801561058957600080fd5b506105c0600480360360408110156105a057600080fd5b810190808035906020019092919080359060200190929190505050610d48565b005b3480156105ce57600080fd5b506105d7610de5565b6040518082815260200191505060405180910390f35b6105f5610deb565b005b610636828260006040519080825280601f01601f1916602001820160405280156106305781602001600182028038833980820191505090505b506107c7565b5050565b600080600960003373ffffffffffffffffffffffffffffffffffffffff1673ffffffffffffffffffffffffffffffffffffffff1681526020019081526020016000206001015490507fb471f40a10881404b70a4f7819c075d0ae5fec92ae9454b1ccdad5c0fe9a6ab28182604051808381526020018281526020019250505060405180910390a16000600960003373ffffffffffffffffffffffffffffffffffffffff1673ffffffffffffffffffffffffffffffffffffffff168152602001908152602001600020600101819055503373ffffffffffffffffffffffffffffffffffffffff166108fc829081150290604051600060405180830381858888f1935050505015801561074f573d6000803e3d6000fd5b507f888f4fb33f1429a5c0e82c8ca8b08617833224470b7efbaf5cb4d0b00e695e658160405180806020018381526020018281038252600d8152602001807f596f7520776974686472657720000000000000000000000000000000000000008152506020019250505060405180910390a18091505090565b6000801b600360008060001b815260200190815260200160002081905550505050565b60007fb471f40a10881404b70a4f7819c075d0ae5fec92ae9454b1ccdad5c0fe9a6ab2600960003373ffffffffffffffffffffffffffffffffffffffff1673ffffffffffffffffffffffffffffffffffffffff16815260200190815260200160002060010154600960003373ffffffffffffffffffffffffffffffffffffffff1673ffffffffffffffffffffffffffffffffffffffff16815260200190815260200160002060010154604051808381526020018281526020019250505060405180910390a1600960003373ffffffffffffffffffffffffffffffffffffffff1673ffffffffffffffffffffffffffffffffffffffff16815260200190815260200160002060010154905090565b600560009054906101000a900473ffffffffffffffffffffffffffffffffffffffff1681565b6109256130e4565b83816000019073ffffffffffffffffffffffffffffffffffffffff16908173ffffffffffffffffffffffffffffffffffffffff168152505082816020018181525050806007600084815260200190815260200160002060008201518160000160006101000a81548173ffffffffffffffffffffffffffffffffffffffff021916908373ffffffffffffffffffffffffffffffffffffffff160217905550602082015181600101556040820151816002015590505081600960003373ffffffffffffffffffffffffffffffffffffffff1673ffffffffffffffffffffffffffffffffffffffff1681526020019081526020016000206002018190555050505050565b610a2e611024565b73ffffffffffffffffffffffffffffffffffffffff163373ffffffffffffffffffffffffffffffffffffffff1614610a6557600080fd5b60006002826040516020018082805190602001908083835b60208310610aa05780518252602082019150602081019050602083039250610a7d565b6001836020036101000a0380198251168184511680821785525050505050509050019150506040516020818303038152906040528051906020012060001c81610ae557fe5b06905080600a819055507fc13d60fe9dffdb6908d2d446cd18134373a51db0738ee04f296eeb9128121cbc816040518082815260200191505060405180910390a1610b32600a5484610d48565b600960008573ffffffffffffffffffffffffffffffffffffffff1673ffffffffffffffffffffffffffffffffffffffff16815260200190815260200160002050610b7c8484611341565b50600760008481526020019081526020016000206002016000905550505050565b60065481565b6000809050600062030d4090506000610bbe8360018461154c565b9050349350610bce33858361091d565b7f5e35a070670d9d1b09ecfeeae77ca75380c3bf10808c2cc6ae99b217977e09bd816040518080602001838152602001828103825260178152602001807f546865204944206f6620746869732063616c6c206973200000000000000000008152506020019250505060405180910390a17fc4dc360d0a9c0677a3379ae0a3d81e887f761e65fdf3d7e00859d1bcd3c473896040518080602001828103825260348152602001806132656034913960400191505060405180910390a150505050565b6000600560009054906101000a900473ffffffffffffffffffffffffffffffffffffffff1673ffffffffffffffffffffffffffffffffffffffff163373ffffffffffffffffffffffffffffffffffffffff1614610ceb57600080fd5b6000600654905060006006819055503373ffffffffffffffffffffffffffffffffffffffff166108fc829081150290604051600060405180830381858888f19350505050158015610d40573d6000803e3d6000fd5b508091505090565b610d5061311e565b82816000018181525050818160400181815250506001831415610d83576001816020019015159081151581525050610d95565b60008160200190151590811515815250505b80600860008481526020019081526020016000206000820151816000015560208201518160010160006101000a81548160ff02191690831515021790555060408201518160020155905050505050565b600a5481565b610df3613144565b33816000019073ffffffffffffffffffffffffffffffffffffffff16908173ffffffffffffffffffffffffffffffffffffffff1681525050600960003373ffffffffffffffffffffffffffffffffffffffff1673ffffffffffffffffffffffffffffffffffffffff16815260200190815260200160002060010154816020018181525050600960003373ffffffffffffffffffffffffffffffffffffffff1673ffffffffffffffffffffffffffffffffffffffff1681526020019081526020016000206002015481604001818152505080600960003373ffffffffffffffffffffffffffffffffffffffff1673ffffffffffffffffffffffffffffffffffffffff16815260200190815260200160002060008201518160000160006101000a81548173ffffffffffffffffffffffffffffffffffffffff021916908373ffffffffffffffffffffffffffffffffffffffff160217905550602082015181600101556040820151816002015590505034600960003373ffffffffffffffffffffffffffffffffffffffff1673ffffffffffffffffffffffffffffffffffffffff168152602001908152602001600020600101600082825401925050819055507fa3c1c9e897beaade9e73a3a0976777a38c29c8ccf556641ceeb8f43e5181be123460405180806020018381526020018281038252600e8152602001807f596f75206465706f7369746564200000000000000000000000000000000000008152506020019250505060405180910390a150565b60008073ffffffffffffffffffffffffffffffffffffffff16600160009054906101000a900473ffffffffffffffffffffffffffffffffffffffff1673ffffffffffffffffffffffffffffffffffffffff1614806110ac575060006110aa600160009054906101000a900473ffffffffffffffffffffffffffffffffffffffff16611ae7565b145b156110bd576110bb6000611af2565b505b600160009054906101000a900473ffffffffffffffffffffffffffffffffffffffff1673ffffffffffffffffffffffffffffffffffffffff166338cc48316040518163ffffffff1660e01b8152600401602060405180830381600087803b15801561112757600080fd5b505af115801561113b573d6000803e3d6000fd5b505050506040513d602081101561115157600080fd5b810190808051906020019092919050505073ffffffffffffffffffffffffffffffffffffffff166000809054906101000a900473ffffffffffffffffffffffffffffffffffffffff1673ffffffffffffffffffffffffffffffffffffffff161461129a57600160009054906101000a900473ffffffffffffffffffffffffffffffffffffffff1673ffffffffffffffffffffffffffffffffffffffff166338cc48316040518163ffffffff1660e01b8152600401602060405180830381600087803b15801561121f57600080fd5b505af1158015611233573d6000803e3d6000fd5b505050506040513d602081101561124957600080fd5b81019080805190602001909291905050506000806101000a81548173ffffffffffffffffffffffffffffffffffffffff021916908373ffffffffffffffffffffffffffffffffffffffff1602179055505b6000809054906101000a900473ffffffffffffffffffffffffffffffffffffffff1673ffffffffffffffffffffffffffffffffffffffff1663c281d19e6040518163ffffffff1660e01b815260040160206040518083038186803b15801561130157600080fd5b505afa158015611315573d6000803e3d6000fd5b505050506040513d602081101561132b57600080fd5b8101908080519060200190929190505050905090565b6000806008600084815260200190815260200160002060010160009054906101000a900460ff16905060006007600085815260200190815260200160002060010154905060011515821515148061139c575060001515821515145b156114bf5760006002820290506000600960008873ffffffffffffffffffffffffffffffffffffffff1673ffffffffffffffffffffffffffffffffffffffff16815260200190815260200160002060010154905081810190507fb471f40a10881404b70a4f7819c075d0ae5fec92ae9454b1ccdad5c0fe9a6ab28382604051808381526020018281526020019250505060405180910390a1826006600082825403925050819055507f7e7d5e50adfbb4e81427323125a4d6250cf27f8b49ff7305f48c9fcb4d2525ea826040518080602001838152602001828103825260088152602001807f596f7520776f6e200000000000000000000000000000000000000000000000008152506020019250505060405180910390a1600091505050611540565b806006600082825401925050819055507fdbc743cebacba388691ee70a334a0faaee0490d78d1e3be2ba9081622471cdad816040518080602001838152602001828103825260098152602001807f596f75206c6f73742000000000000000000000000000000000000000000000008152506020019250505060405180910390a15b60009050505092915050565b6000808311801561155e575060208311155b61156757600080fd5b600a84029350606060016040519080825280601f01601f1916602001820160405280156115a35781602001600182028038833980820191505090505b5090508360f81b816000815181106115b757fe5b60200101907effffffffffffffffffffffffffffffffffffffffffffffffffffffffffffff1916908160001a905350606060206040519080825280601f01601f19166020018201604052801561161c5781602001600182028038833980820191505090505b509050606060206040519080825280601f01601f1916602001820160405280156116555781602001600182028038833980820191505090505b5090506000611662611b03565b905060208352424118600143034018602084015260208252806020830152606060206040519080825280601f01601f1916602001820160405280156116b65781602001600182028038833980820191505090505b509050886020820152606060086040519080825280601f01601f1916602001820160405280156116f55781602001600182028038833980820191505090505b5090506117088260186008846000611e20565b5061171161317e565b604051806080016040528087815260200188815260200186815260200184815250905060006117766040518060400160405280600681526020017f72616e646f6d0000000000000000000000000000000000000000000000000000815250838c611e7f565b9050606060086040519080825280601f01601f1916602001820160405280156117ae5781602001600182028038833980820191505090505b50905060208401517f0100000000000000000000000000000000000000000000000000000000000000810460278301537e01000000000000000000000000000000000000000000000000000000000000810460268301537d010000000000000000000000000000000000000000000000000000000000810460258301537c0100000000000000000000000000000000000000000000000000000000810460248301537b01000000000000000000000000000000000000000000000000000000810460238301537a010000000000000000000000000000000000000000000000000000810460228301537901000000000000000000000000000000000000000000000000008104602183015378010000000000000000000000000000000000000000000000008104602083015350611ad48282856001600481106118ed57fe5b602002015160028760006004811061190157fe5b60200201516040518082805190602001908083835b602083106119395780518252602082019150602081019050602083039250611916565b6001836020036101000a038019825116818451168082178552505050505050905001915050602060405180830381855afa15801561197b573d6000803e3d6000fd5b5050506040513d602081101561199057600080fd5b8101908080519060200190929190505050876002600481106119ae57fe5b60200201516040516020018085805190602001908083835b602083106119e957805182526020820191506020810190506020830392506119c6565b6001836020036101000a03801982511681845116808217855250505050505090500184805190602001908083835b60208310611a3a5780518252602082019150602081019050602083039250611a17565b6001836020036101000a03801982511681845116808217855250505050505090500183815260200182805190602001908083835b60208310611a915780518252602082019150602081019050602083039250611a6e565b6001836020036101000a038019825116818451168082178552505050505050905001945050505050604051602081830303815290604052805190602001206121ec565b8199505050505050505050509392505050565b6000813b9050919050565b6000611afc612208565b9050919050565b60008073ffffffffffffffffffffffffffffffffffffffff16600160009054906101000a900473ffffffffffffffffffffffffffffffffffffffff1673ffffffffffffffffffffffffffffffffffffffff161480611b8b57506000611b89600160009054906101000a900473ffffffffffffffffffffffffffffffffffffffff16611ae7565b145b15611b9c57611b9a6000611af2565b505b600160009054906101000a900473ffffffffffffffffffffffffffffffffffffffff1673ffffffffffffffffffffffffffffffffffffffff166338cc48316040518163ffffffff1660e01b8152600401602060405180830381600087803b158015611c0657600080fd5b505af1158015611c1a573d6000803e3d6000fd5b505050506040513d6020811015611c3057600080fd5b810190808051906020019092919050505073ffffffffffffffffffffffffffffffffffffffff166000809054906101000a900473ffffffffffffffffffffffffffffffffffffffff1673ffffffffffffffffffffffffffffffffffffffff1614611d7957600160009054906101000a900473ffffffffffffffffffffffffffffffffffffffff1673ffffffffffffffffffffffffffffffffffffffff166338cc48316040518163ffffffff1660e01b8152600401602060405180830381600087803b158015611cfe57600080fd5b505af1158015611d12573d6000803e3d6000fd5b505050506040513d6020811015611d2857600080fd5b81019080805190602001909291905050506000806101000a81548173ffffffffffffffffffffffffffffffffffffffff021916908373ffffffffffffffffffffffffffffffffffffffff1602179055505b6000809054906101000a900473ffffffffffffffffffffffffffffffffffffffff1673ffffffffffffffffffffffffffffffffffffffff1663abaa5f3e6040518163ffffffff1660e01b815260040160206040518083038186803b158015611de057600080fd5b505afa158015611df4573d6000803e3d6000fd5b505050506040513d6020811015611e0a57600080fd5b8101908080519060200190929190505050905090565b6060600082850190508084511015611e3757600080fd5b600086602001905060008460200190505b868860200101821015611e705781890151808288015250602082019150602081019050611e48565b85935050505095945050505050565b60008073ffffffffffffffffffffffffffffffffffffffff16600160009054906101000a900473ffffffffffffffffffffffffffffffffffffffff1673ffffffffffffffffffffffffffffffffffffffff161480611f0757506000611f05600160009054906101000a900473ffffffffffffffffffffffffffffffffffffffff16611ae7565b145b15611f1857611f166000611af2565b505b600160009054906101000a900473ffffffffffffffffffffffffffffffffffffffff1673ffffffffffffffffffffffffffffffffffffffff166338cc48316040518163ffffffff1660e01b8152600401602060405180830381600087803b158015611f8257600080fd5b505af1158015611f96573d6000803e3d6000fd5b505050506040513d6020811015611fac57600080fd5b810190808051906020019092919050505073ffffffffffffffffffffffffffffffffffffffff166000809054906101000a900473ffffffffffffffffffffffffffffffffffffffff1673ffffffffffffffffffffffffffffffffffffffff16146120f557600160009054906101000a900473ffffffffffffffffffffffffffffffffffffffff1673ffffffffffffffffffffffffffffffffffffffff166338cc48316040518163ffffffff1660e01b8152600401602060405180830381600087803b15801561207a57600080fd5b505af115801561208e573d6000803e3d6000fd5b505050506040513d60208110156120a457600080fd5b81019080805190602001909291905050506000806101000a81548173ffffffffffffffffffffffffffffffffffffffff021916908373ffffffffffffffffffffffffffffffffffffffff1602179055505b6060600460405190808252806020026020018201604052801561212c57816020015b60608152602001906001900390816121175790505b5090508360006004811061213c57fe5b60200201518160008151811061214e57fe5b60200260200101819052508360016004811061216657fe5b60200201518160018151811061217857fe5b60200260200101819052508360026004811061219057fe5b6020020151816002815181106121a257fe5b6020026020010181905250836003600481106121ba57fe5b6020020151816003815181106121cc57fe5b60200260200101819052506121e285828561275f565b9150509392505050565b8060036000848152602001908152602001600020819055505050565b600080612228731d3b2638a7cc9f2cb3d298a3da7a90b67e5506ed611ae7565b11156122ca57731d3b2638a7cc9f2cb3d298a3da7a90b67e5506ed600160006101000a81548173ffffffffffffffffffffffffffffffffffffffff021916908373ffffffffffffffffffffffffffffffffffffffff1602179055506122c16040518060400160405280600b81526020017f6574685f6d61696e6e6574000000000000000000000000000000000000000000815250612cc1565b6001905061275c565b60006122e973c03a2615d5efaf5f49f60b7bb6583eaec212fdf1611ae7565b111561238b5773c03a2615d5efaf5f49f60b7bb6583eaec212fdf1600160006101000a81548173ffffffffffffffffffffffffffffffffffffffff021916908373ffffffffffffffffffffffffffffffffffffffff1602179055506123826040518060400160405280600c81526020017f6574685f726f707374656e330000000000000000000000000000000000000000815250612cc1565b6001905061275c565b60006123aa73b7a07bcf2ba2f2703b24c0691b5278999c59ac7e611ae7565b111561244c5773b7a07bcf2ba2f2703b24c0691b5278999c59ac7e600160006101000a81548173ffffffffffffffffffffffffffffffffffffffff021916908373ffffffffffffffffffffffffffffffffffffffff1602179055506124436040518060400160405280600981526020017f6574685f6b6f76616e0000000000000000000000000000000000000000000000815250612cc1565b6001905061275c565b600061246b73146500cfd35b22e4a392fe0adc06de1a1368ed48611ae7565b111561250d5773146500cfd35b22e4a392fe0adc06de1a1368ed48600160006101000a81548173ffffffffffffffffffffffffffffffffffffffff021916908373ffffffffffffffffffffffffffffffffffffffff1602179055506125046040518060400160405280600b81526020017f6574685f72696e6b656279000000000000000000000000000000000000000000815250612cc1565b6001905061275c565b600061252c73a2998efd205fb9d4b4963afb70778d6354ad3a41611ae7565b11156125ce5773a2998efd205fb9d4b4963afb70778d6354ad3a41600160006101000a81548173ffffffffffffffffffffffffffffffffffffffff021916908373ffffffffffffffffffffffffffffffffffffffff1602179055506125c56040518060400160405280600a81526020017f6574685f676f65726c6900000000000000000000000000000000000000000000815250612cc1565b6001905061275c565b60006125ed736f485c8bf6fc43ea212e93bbf8ce046c7f1cb475611ae7565b111561265157736f485c8bf6fc43ea212e93bbf8ce046c7f1cb475600160006101000a81548173ffffffffffffffffffffffffffffffffffffffff021916908373ffffffffffffffffffffffffffffffffffffffff1602179055506001905061275c565b60006126707320e12a1f859b3feae5fb2a0a32c18f5a65555bbf611ae7565b11156126d4577320e12a1f859b3feae5fb2a0a32c18f5a65555bbf600160006101000a81548173ffffffffffffffffffffffffffffffffffffffff021916908373ffffffffffffffffffffffffffffffffffffffff1602179055506001905061275c565b60006126f37351efaf4c8b3c9afbd5ab9f4bbc82784ab6ef8faa611ae7565b1115612757577351efaf4c8b3c9afbd5ab9f4bbc82784ab6ef8faa600160006101000a81548173ffffffffffffffffffffffffffffffffffffffff021916908373ffffffffffffffffffffffffffffffffffffffff1602179055506001905061275c565b600090505b90565b60008073ffffffffffffffffffffffffffffffffffffffff16600160009054906101000a900473ffffffffffffffffffffffffffffffffffffffff1673ffffffffffffffffffffffffffffffffffffffff1614806127e7575060006127e5600160009054906101000a900473ffffffffffffffffffffffffffffffffffffffff16611ae7565b145b156127f8576127f66000611af2565b505b600160009054906101000a900473ffffffffffffffffffffffffffffffffffffffff1673ffffffffffffffffffffffffffffffffffffffff166338cc48316040518163ffffffff1660e01b8152600401602060405180830381600087803b15801561286257600080fd5b505af1158015612876573d6000803e3d6000fd5b505050506040513d602081101561288c57600080fd5b810190808051906020019092919050505073ffffffffffffffffffffffffffffffffffffffff166000809054906101000a900473ffffffffffffffffffffffffffffffffffffffff1673ffffffffffffffffffffffffffffffffffffffff16146129d557600160009054906101000a900473ffffffffffffffffffffffffffffffffffffffff1673ffffffffffffffffffffffffffffffffffffffff166338cc48316040518163ffffffff1660e01b8152600401602060405180830381600087803b15801561295a57600080fd5b505af115801561296e573d6000803e3d6000fd5b505050506040513d602081101561298457600080fd5b81019080805190602001909291905050506000806101000a81548173ffffffffffffffffffffffffffffffffffffffff021916908373ffffffffffffffffffffffffffffffffffffffff1602179055505b60008060009054906101000a900473ffffffffffffffffffffffffffffffffffffffff1673ffffffffffffffffffffffffffffffffffffffff16632ef3accc86856040518363ffffffff1660e01b81526004018080602001838152602001828103825284818151815260200191508051906020019080838360005b83811015612a6b578082015181840152602081019050612a50565b50505050905090810190601f168015612a985780820380516001836020036101000a031916815260200191505b509350505050602060405180830381600087803b158015612ab857600080fd5b505af1158015612acc573d6000803e3d6000fd5b505050506040513d6020811015612ae257600080fd5b81019080805190602001909291905050509050823a02670de0b6b3a764000001811115612b15576000801b915050612cba565b6060612b2085612cdb565b90506000809054906101000a900473ffffffffffffffffffffffffffffffffffffffff1673ffffffffffffffffffffffffffffffffffffffff1663c55c1cb68360008985896040518663ffffffff1660e01b8152600401808581526020018060200180602001848152602001838103835286818151815260200191508051906020019080838360005b83811015612bc4578082015181840152602081019050612ba9565b50505050905090810190601f168015612bf15780820380516001836020036101000a031916815260200191505b50838103825285818151815260200191508051906020019080838360005b83811015612c2a578082015181840152602081019050612c0f565b50505050905090810190601f168015612c575780820380516001836020036101000a031916815260200191505b5096505050505050506020604051808303818588803b158015612c7957600080fd5b505af1158015612c8d573d6000803e3d6000fd5b50505050506040513d6020811015612ca457600080fd5b8101908080519060200190929190505050925050505b9392505050565b8060029080519060200190612cd79291906131a5565b5050565b6060612ce5612d5b565b612ced613225565b612cf981610400612d67565b612d0281612db1565b60008090505b8351811015612d4457612d37848281518110612d2057fe5b602002602001015183612dbf90919063ffffffff16565b8080600101915050612d08565b50612d4e81612de4565b8060000151915050919050565b60405180590338823950565b6000819050600060208281612d7857fe5b0614612d915760208181612d8857fe5b06602003810190505b808360200181815250506040518084526000815281810160405250505050565b612dbc816004612df2565b50565b612dcc8260028351612e13565b612ddf8183612f5390919063ffffffff16565b505050565b612def816007612df2565b50565b612e0f601f60058360ff16901b1783612ffe90919063ffffffff16565b5050565b60178111612e3f57612e3a8160058460ff16901b60ff161784612ffe90919063ffffffff16565b612f4e565b60ff8111612e8057612e64601860058460ff16901b1784612ffe90919063ffffffff16565b612e7a8160018561303e9092919063ffffffff16565b50612f4d565b61ffff8111612ec257612ea6601960058460ff16901b1784612ffe90919063ffffffff16565b612ebc8160028561303e9092919063ffffffff16565b50612f4c565b63ffffffff8111612f0657612eea601a60058460ff16901b1784612ffe90919063ffffffff16565b612f008160048561303e9092919063ffffffff16565b50612f4b565b67ffffffffffffffff8111612f4a57612f32601b60058460ff16901b1784612ffe90919063ffffffff16565b612f488160088561303e9092919063ffffffff16565b505b5b5b5b5b505050565b612f5b613225565b82602001518360000151518351011115612f8b57612f8a836002612f84866020015186516130a5565b026130c1565b5b60008060008451905085518051602081830101945086518101825260208701935050505b60208110612fd25781518352602083019250602082019150602081039050612faf565b60006001826020036101000a039050801983511681855116818117865250508694505050505092915050565b81602001516001836000015151011115613024576130238260028460200151026130c1565b5b815180516020818301018381536001820183525050505050565b613046613225565b8360200151846000015151830111156130745761307384600261306d8760200151866130a5565b026130c1565b5b60006001836101000a0390508451805184818301018684198251161781528582018352505050849150509392505050565b6000818311156130b7578290506130bb565b8190505b92915050565b6060826000015190506130d48383612d67565b6130de8382612f53565b50505050565b6040518060600160405280600073ffffffffffffffffffffffffffffffffffffffff16815260200160008152602001600080191681525090565b604051806060016040528060008152602001600015158152602001600080191681525090565b6040518060600160405280600073ffffffffffffffffffffffffffffffffffffffff16815260200160008152602001600080191681525090565b60405180608001604052806004905b606081526020019060019003908161318d5790505090565b828054600181600116156101000203166002900490600052602060002090601f016020900481019282601f106131e657805160ff1916838001178555613214565b82800160010185558215613214579182015b828111156132135782518255916020019190600101906131f8565b5b509050613221919061323f565b5090565b604051806040016040528060608152602001600081525090565b61326191905b8082111561325d576000816000905550600101613245565b5090565b9056fe50726f7661626c65207175657279207761732073656e742c207374616e64696e6720627920666f722074686520616e737765722ea265627a7a72315820f4d58d9bf5e540ffca00df25de377b88923c9f786426f6fa37ba53413c65d82a64736f6c634300050c0032",
  "source": "pragma solidity >=0.5.12 < 0.6.0;\r\nimport \"./provableAPI.sol\";\r\nimport \"./Storagable.sol\";\r\nimport \"./Winnable.sol\";\r\n\r\n\r\ncontract oracle is usingProvable, Storagable, Winnable{\r\n\r\n\r\n  uint256 constant NUM_RANDOM_BYTES_REQUESTED = 1;\r\n  uint256 public latestNumber;\r\n\r\n\r\n\r\n  event LogNewProvableQuery(string description);\r\n  event generatedRandomNumber(uint256 randomNumber);\r\n  event idCheck(string a, bytes32 q_id);\r\n\r\n\r\n\r\n\r\n\r\n\r\n\r\n\r\n\r\n    function __callback(address punter, bytes32 _queryId, string memory _result/* bytes memory _proof*/) public {\r\n    require(msg.sender == provable_cbAddress());\r\n\r\n    uint256 randomNumber = uint256(keccak256(abi.encodePacked(_result))) % 2;\r\n\r\n    latestNumber = randomNumber;\r\n    emit generatedRandomNumber(randomNumber);\r\n    saveResults(latestNumber,_queryId);\r\n    punters[punter].id;\r\n    winOrLose(punter, _queryId);\r\n    delete waiting[_queryId].id;\r\n\r\n  }\r\n\r\n  function random(/*address punter*/uint _betAmount) payable public  {\r\n    uint256 QUERY_EXECUTION_DELAY =0;\r\n    uint GAS_FOR_CALLBACK = 200000;\r\n\r\n\r\n   bytes32 q_id =  provable_newRandomDSQuery(\r\n        QUERY_EXECUTION_DELAY,\r\n        NUM_RANDOM_BYTES_REQUESTED,\r\n        GAS_FOR_CALLBACK\r\n      );\r\n       _betAmount = msg.value;\r\n      createPlayer(msg.sender, _betAmount, q_id);\r\n\r\n\r\n     emit idCheck(\"The ID of this call is \", q_id);\r\n    emit LogNewProvableQuery(\"Provable query was sent, standing by for the answer.\");\r\n\r\n  }\r\n\r\n\r\n\r\n}\r\n",
  "sourcePath": "D:\\Users\\victo\\Desktop\\Crypto Programming\\Ethereum\\Coinflip\\contracts\\oracle.sol",
  "compiler": {
    "name": "solc",
    "version": "0.5.12+commit.7709ece9.Emscripten.clang"
  },
  "schemaVersion": "3.0.16",
  "updatedAt": "2020-10-29T10:36:57.136Z",
  "devdoc": {
    "methods": {
      "__callback(bytes32,string)": {
        "details": "The following `__callback` functions are just placeholders ideally     meant to be defined in child contract when proofs are used.     The function bodies simply silence compiler warnings."
      }
    }
  },
  "userdoc": {
    "methods": {}
  }
}