{
  "contractName": "Storagable",
  "abi": [
    {
      "anonymous": false,
      "inputs": [
        {
          "indexed": false,
          "internalType": "uint256",
          "name": "",
          "type": "uint256"
        },
        {
          "indexed": false,
          "internalType": "uint256",
          "name": "",
          "type": "uint256"
        }
      ],
      "name": "checkBalance",
      "type": "event"
    },
    {
      "anonymous": false,
      "inputs": [
        {
          "indexed": false,
          "internalType": "string",
          "name": "whatHappened",
          "type": "string"
        },
        {
          "indexed": false,
          "internalType": "uint256",
          "name": "funds",
          "type": "uint256"
        }
      ],
      "name": "depositedFunds",
      "type": "event"
    },
    {
      "anonymous": false,
      "inputs": [
        {
          "indexed": false,
          "internalType": "string",
          "name": "whatHappened",
          "type": "string"
        },
        {
          "indexed": false,
          "internalType": "uint256",
          "name": "funds",
          "type": "uint256"
        }
      ],
      "name": "withDrewFunds",
      "type": "event"
    },
    {
      "constant": true,
      "inputs": [],
      "name": "balance",
      "outputs": [
        {
          "internalType": "uint256",
          "name": "",
          "type": "uint256"
        }
      ],
      "payable": false,
      "stateMutability": "view",
      "type": "function"
    },
    {
      "constant": true,
      "inputs": [],
      "name": "owner",
      "outputs": [
        {
          "internalType": "address",
          "name": "",
          "type": "address"
        }
      ],
      "payable": false,
      "stateMutability": "view",
      "type": "function"
    },
    {
      "constant": false,
      "inputs": [
        {
          "internalType": "address payable",
          "name": "n_player",
          "type": "address"
        },
        {
          "internalType": "uint256",
          "name": "_betAmount",
          "type": "uint256"
        },
        {
          "internalType": "bytes32",
          "name": "q_id",
          "type": "bytes32"
        }
      ],
      "name": "createPlayer",
      "outputs": [],
      "payable": true,
      "stateMutability": "payable",
      "type": "function"
    },
    {
      "constant": false,
      "inputs": [
        {
          "internalType": "uint256",
          "name": "numberCalled",
          "type": "uint256"
        },
        {
          "internalType": "bytes32",
          "name": "q_id",
          "type": "bytes32"
        }
      ],
      "name": "saveResults",
      "outputs": [],
      "payable": false,
      "stateMutability": "nonpayable",
      "type": "function"
    },
    {
      "constant": false,
      "inputs": [],
      "name": "depositPunterFunds",
      "outputs": [],
      "payable": true,
      "stateMutability": "payable",
      "type": "function"
    },
    {
      "constant": false,
      "inputs": [],
      "name": "getPunterBalance",
      "outputs": [
        {
          "internalType": "uint256",
          "name": "",
          "type": "uint256"
        }
      ],
      "payable": false,
      "stateMutability": "nonpayable",
      "type": "function"
    },
    {
      "constant": false,
      "inputs": [],
      "name": "withdrawPunterBalance",
      "outputs": [
        {
          "internalType": "uint256",
          "name": "",
          "type": "uint256"
        }
      ],
      "payable": false,
      "stateMutability": "nonpayable",
      "type": "function"
    },
    {
      "constant": false,
      "inputs": [],
      "name": "withdrawContractBalance",
      "outputs": [
        {
          "internalType": "uint256",
          "name": "",
          "type": "uint256"
        }
      ],
      "payable": false,
      "stateMutability": "nonpayable",
      "type": "function"
    }
  ],
  "bytecode": "0x6080604052336000806101000a81548173ffffffffffffffffffffffffffffffffffffffff021916908373ffffffffffffffffffffffffffffffffffffffff160217905550610a55806100536000396000f3fe60806040526004361061007b5760003560e01c8063b69ef8a81161004e578063b69ef8a814610185578063bfab3db9146101b0578063d79f5ec5146101db578063fab4a46d146102205761007b565b806332a1b764146100805780634ff540d4146100ab5780638da5cb5b146100d65780638f86456b1461012d575b600080fd5b34801561008c57600080fd5b5061009561022a565b6040518082815260200191505060405180910390f35b3480156100b757600080fd5b506100c06103b7565b6040518082815260200191505060405180910390f35b3480156100e257600080fd5b506100eb6104c4565b604051808273ffffffffffffffffffffffffffffffffffffffff1673ffffffffffffffffffffffffffffffffffffffff16815260200191505060405180910390f35b6101836004803603606081101561014357600080fd5b81019080803573ffffffffffffffffffffffffffffffffffffffff16906020019092919080359060200190929190803590602001909291905050506104e9565b005b34801561019157600080fd5b5061019a6105f2565b6040518082815260200191505060405180910390f35b3480156101bc57600080fd5b506101c56105f8565b6040518082815260200191505060405180910390f35b3480156101e757600080fd5b5061021e600480360360408110156101fe57600080fd5b8101908080359060200190929190803590602001909291905050506106b0565b005b61022861074d565b005b600080600460003373ffffffffffffffffffffffffffffffffffffffff1673ffffffffffffffffffffffffffffffffffffffff1681526020019081526020016000206001015490507fb471f40a10881404b70a4f7819c075d0ae5fec92ae9454b1ccdad5c0fe9a6ab28182604051808381526020018281526020019250505060405180910390a16000600460003373ffffffffffffffffffffffffffffffffffffffff1673ffffffffffffffffffffffffffffffffffffffff168152602001908152602001600020600101819055503373ffffffffffffffffffffffffffffffffffffffff166108fc829081150290604051600060405180830381858888f1935050505015801561033f573d6000803e3d6000fd5b507f888f4fb33f1429a5c0e82c8ca8b08617833224470b7efbaf5cb4d0b00e695e658160405180806020018381526020018281038252600d8152602001807f596f7520776974686472657720000000000000000000000000000000000000008152506020019250505060405180910390a18091505090565b60007fb471f40a10881404b70a4f7819c075d0ae5fec92ae9454b1ccdad5c0fe9a6ab2600460003373ffffffffffffffffffffffffffffffffffffffff1673ffffffffffffffffffffffffffffffffffffffff16815260200190815260200160002060010154600460003373ffffffffffffffffffffffffffffffffffffffff1673ffffffffffffffffffffffffffffffffffffffff16815260200190815260200160002060010154604051808381526020018281526020019250505060405180910390a1600460003373ffffffffffffffffffffffffffffffffffffffff1673ffffffffffffffffffffffffffffffffffffffff16815260200190815260200160002060010154905090565b6000809054906101000a900473ffffffffffffffffffffffffffffffffffffffff1681565b6104f1610986565b83816000019073ffffffffffffffffffffffffffffffffffffffff16908173ffffffffffffffffffffffffffffffffffffffff168152505082816020018181525050806002600084815260200190815260200160002060008201518160000160006101000a81548173ffffffffffffffffffffffffffffffffffffffff021916908373ffffffffffffffffffffffffffffffffffffffff160217905550602082015181600101556040820151816002015590505081600460003373ffffffffffffffffffffffffffffffffffffffff1673ffffffffffffffffffffffffffffffffffffffff1681526020019081526020016000206002018190555050505050565b60015481565b60008060009054906101000a900473ffffffffffffffffffffffffffffffffffffffff1673ffffffffffffffffffffffffffffffffffffffff163373ffffffffffffffffffffffffffffffffffffffff161461065357600080fd5b6000600154905060006001819055503373ffffffffffffffffffffffffffffffffffffffff166108fc829081150290604051600060405180830381858888f193505050501580156106a8573d6000803e3d6000fd5b508091505090565b6106b86109c0565b828160000181815250508181604001818152505060018314156106eb5760018160200190151590811515815250506106fd565b60008160200190151590811515815250505b80600360008481526020019081526020016000206000820151816000015560208201518160010160006101000a81548160ff02191690831515021790555060408201518160020155905050505050565b6107556109e6565b33816000019073ffffffffffffffffffffffffffffffffffffffff16908173ffffffffffffffffffffffffffffffffffffffff1681525050600460003373ffffffffffffffffffffffffffffffffffffffff1673ffffffffffffffffffffffffffffffffffffffff16815260200190815260200160002060010154816020018181525050600460003373ffffffffffffffffffffffffffffffffffffffff1673ffffffffffffffffffffffffffffffffffffffff1681526020019081526020016000206002015481604001818152505080600460003373ffffffffffffffffffffffffffffffffffffffff1673ffffffffffffffffffffffffffffffffffffffff16815260200190815260200160002060008201518160000160006101000a81548173ffffffffffffffffffffffffffffffffffffffff021916908373ffffffffffffffffffffffffffffffffffffffff160217905550602082015181600101556040820151816002015590505034600460003373ffffffffffffffffffffffffffffffffffffffff1673ffffffffffffffffffffffffffffffffffffffff168152602001908152602001600020600101600082825401925050819055507fa3c1c9e897beaade9e73a3a0976777a38c29c8ccf556641ceeb8f43e5181be123460405180806020018381526020018281038252600e8152602001807f596f75206465706f7369746564200000000000000000000000000000000000008152506020019250505060405180910390a150565b6040518060600160405280600073ffffffffffffffffffffffffffffffffffffffff16815260200160008152602001600080191681525090565b604051806060016040528060008152602001600015158152602001600080191681525090565b6040518060600160405280600073ffffffffffffffffffffffffffffffffffffffff1681526020016000815260200160008019168152509056fea265627a7a72315820c5029344e908755a0e6539bace66146a06c9b897a6f28176bbe40af4e1cb3d7b64736f6c634300050c0032",
  "source": "pragma solidity >=0.5.12 < 0.6.0;\r\nimport \"./Ownable.sol\";\r\n\r\ncontract Storagable is Ownable{\r\n\r\n\r\n     struct result{\r\n        uint number;\r\n        bool isWin;\r\n        bytes32 id;\r\n    }\r\n\r\n\r\n    struct bet{\r\n        address payable player;\r\n        uint betAmount;\r\n        bytes32 id;\r\n    }\r\n\r\n    struct punter{\r\n        address payable punter;\r\n        uint punterBalance;\r\n        bytes32 id;\r\n    }\r\n\r\n    uint public balance;\r\n\r\n\r\n    mapping (bytes32 => bet) internal waiting;\r\n      mapping (bytes32 => result) internal results;\r\n      mapping (address => punter)internal punters;\r\n\r\n       event depositedFunds(string whatHappened, uint funds);\r\n      event withDrewFunds (string whatHappened, uint funds);\r\n      event checkBalance(uint, uint);\r\n\r\n\r\n    function createPlayer(address payable n_player, uint _betAmount, bytes32 q_id )public payable  {\r\n\r\n        bet memory newPlayer;\r\n        newPlayer.player = n_player;\r\n        newPlayer.betAmount = _betAmount;\r\n        waiting[q_id] = newPlayer;\r\n        punters[msg.sender].id = q_id;\r\n\r\n    }\r\n\r\n     function saveResults(uint numberCalled, bytes32 q_id) public{\r\n        result memory newResult;\r\n        newResult.number = numberCalled;\r\n        newResult.id = q_id;\r\n\r\n\r\n        if (numberCalled  ==1){\r\n            newResult.isWin = true;\r\n        }\r\n\r\n        else {\r\n            newResult.isWin = false;\r\n        }\r\n\r\n        results[q_id] = newResult;\r\n\r\n    }\r\n\r\n    function depositPunterFunds()public payable{\r\n        punter memory newPunter;\r\n        newPunter.punter = msg.sender;\r\n        newPunter.punterBalance = punters[msg.sender].punterBalance;\r\n        newPunter.id = punters[msg.sender].id;\r\n        punters[msg.sender] = newPunter;\r\n        punters[msg.sender].punterBalance += msg.value;\r\n        emit depositedFunds(\"You deposited \", msg.value);\r\n    }\r\n\r\n    function getPunterBalance() public  returns(uint){\r\n        emit checkBalance(punters[msg.sender].punterBalance, punters[msg.sender].punterBalance);\r\n        return punters[msg.sender].punterBalance;\r\n    }\r\n\r\n    function withdrawPunterBalance () public returns(uint){\r\n        uint toTransfer = punters[msg.sender].punterBalance;\r\n        emit checkBalance(toTransfer, toTransfer);\r\n        punters[msg.sender].punterBalance = 0;\r\n        msg.sender.transfer(toTransfer);\r\n          emit withDrewFunds(\"You withdrew \", toTransfer);\r\n        return toTransfer;\r\n\r\n\r\n    }\r\n\r\n    function withdrawContractBalance () public onlyOwner returns (uint){\r\n        uint toSend = balance;\r\n        balance = 0;\r\n        msg.sender.transfer(toSend);\r\n        return toSend;\r\n\r\n    }\r\n\r\n\r\n\r\n\r\n\r\n}\r\n",
  "sourcePath": "D:\\Users\\victo\\Desktop\\Crypto Programming\\Ethereum\\Coinflip\\contracts\\Storagable.sol",
  "compiler": {
    "name": "solc",
    "version": "0.5.12+commit.7709ece9.Emscripten.clang"
  },
  "schemaVersion": "3.0.16",
  "updatedAt": "2020-10-29T10:36:57.117Z",
  "devdoc": {
    "methods": {}
  },
  "userdoc": {
    "methods": {}
  }
}