{
  "contractName": "Winnable",
  "abi": [
    {
      "anonymous": false,
      "inputs": [
        {
          "indexed": false,
          "internalType": "uint256",
          "name": "",
          "type": "uint256"
        }
      ],
      "name": "checkBalance",
      "type": "event"
    },
    {
      "anonymous": false,
      "inputs": [
        {
          "indexed": false,
          "internalType": "uint256",
          "name": "",
          "type": "uint256"
        },
        {
          "indexed": false,
          "internalType": "uint256",
          "name": "",
          "type": "uint256"
        }
      ],
      "name": "checkBalance",
      "type": "event"
    },
    {
      "anonymous": false,
      "inputs": [
        {
          "indexed": false,
          "internalType": "string",
          "name": "whatHappened",
          "type": "string"
        },
        {
          "indexed": false,
          "internalType": "uint256",
          "name": "funds",
          "type": "uint256"
        }
      ],
      "name": "depositedFunds",
      "type": "event"
    },
    {
      "anonymous": false,
      "inputs": [
        {
          "indexed": false,
          "internalType": "string",
          "name": "whatHappened",
          "type": "string"
        },
        {
          "indexed": false,
          "internalType": "uint256",
          "name": "funds",
          "type": "uint256"
        }
      ],
      "name": "withDrewFunds",
      "type": "event"
    },
    {
      "anonymous": false,
      "inputs": [
        {
          "indexed": false,
          "internalType": "string",
          "name": "",
          "type": "string"
        },
        {
          "indexed": false,
          "internalType": "uint256",
          "name": "",
          "type": "uint256"
        }
      ],
      "name": "youLose",
      "type": "event"
    },
    {
      "anonymous": false,
      "inputs": [
        {
          "indexed": false,
          "internalType": "string",
          "name": "",
          "type": "string"
        },
        {
          "indexed": false,
          "internalType": "uint256",
          "name": "",
          "type": "uint256"
        }
      ],
      "name": "youWin",
      "type": "event"
    },
    {
      "constant": true,
      "inputs": [],
      "name": "balance",
      "outputs": [
        {
          "internalType": "uint256",
          "name": "",
          "type": "uint256"
        }
      ],
      "payable": false,
      "stateMutability": "view",
      "type": "function"
    },
    {
      "constant": false,
      "inputs": [],
      "name": "createPlayer",
      "outputs": [],
      "payable": true,
      "stateMutability": "payable",
      "type": "function"
    },
    {
      "constant": false,
      "inputs": [
        {
          "internalType": "address payable",
          "name": "n_punter",
          "type": "address"
        },
        {
          "internalType": "uint256",
          "name": "_betAmount",
          "type": "uint256"
        },
        {
          "internalType": "bytes32",
          "name": "q_id",
          "type": "bytes32"
        }
      ],
      "name": "fillPlayerInfo",
      "outputs": [],
      "payable": true,
      "stateMutability": "payable",
      "type": "function"
    },
    {
      "constant": false,
      "inputs": [],
      "name": "getPunterBalance",
      "outputs": [
        {
          "internalType": "uint256",
          "name": "",
          "type": "uint256"
        }
      ],
      "payable": false,
      "stateMutability": "nonpayable",
      "type": "function"
    },
    {
      "constant": true,
      "inputs": [],
      "name": "owner",
      "outputs": [
        {
          "internalType": "address",
          "name": "",
          "type": "address"
        }
      ],
      "payable": false,
      "stateMutability": "view",
      "type": "function"
    },
    {
      "constant": false,
      "inputs": [
        {
          "internalType": "address payable",
          "name": "n_punter",
          "type": "address"
        },
        {
          "internalType": "uint256",
          "name": "_betAmount",
          "type": "uint256"
        }
      ],
      "name": "payPunter",
      "outputs": [],
      "payable": true,
      "stateMutability": "payable",
      "type": "function"
    },
    {
      "constant": false,
      "inputs": [
        {
          "internalType": "uint256",
          "name": "numberCalled",
          "type": "uint256"
        },
        {
          "internalType": "bytes32",
          "name": "q_id",
          "type": "bytes32"
        }
      ],
      "name": "saveResults",
      "outputs": [],
      "payable": false,
      "stateMutability": "nonpayable",
      "type": "function"
    },
    {
      "constant": false,
      "inputs": [],
      "name": "withdrawContractBalance",
      "outputs": [
        {
          "internalType": "uint256",
          "name": "",
          "type": "uint256"
        }
      ],
      "payable": false,
      "stateMutability": "nonpayable",
      "type": "function"
    },
    {
      "constant": false,
      "inputs": [],
      "name": "withdrawPunterBalance",
      "outputs": [
        {
          "internalType": "uint256",
          "name": "",
          "type": "uint256"
        }
      ],
      "payable": false,
      "stateMutability": "nonpayable",
      "type": "function"
    }
  ],
  "bytecode": "0x6080604052336000806101000a81548173ffffffffffffffffffffffffffffffffffffffff021916908373ffffffffffffffffffffffffffffffffffffffff160217905550610a74806100536000396000f3fe6080604052600436106100865760003560e01c80637be8af90116100595780637be8af90146101435780638da5cb5b14610191578063b69ef8a8146101e8578063bfab3db914610213578063d79f5ec51461023e57610086565b806332a1b7641461008b5780633fa9fcf8146100b65780634ff540d4146100c05780635aa81139146100eb575b600080fd5b34801561009757600080fd5b506100a0610283565b6040518082815260200191505060405180910390f35b6100be610410565b005b3480156100cc57600080fd5b506100d561051c565b6040518082815260200191505060405180910390f35b6101416004803603606081101561010157600080fd5b81019080803573ffffffffffffffffffffffffffffffffffffffff1690602001909291908035906020019092919080359060200190929190505050610629565b005b61018f6004803603604081101561015957600080fd5b81019080803573ffffffffffffffffffffffffffffffffffffffff169060200190929190803590602001909291905050506107c8565b005b34801561019d57600080fd5b506101a661081c565b604051808273ffffffffffffffffffffffffffffffffffffffff1673ffffffffffffffffffffffffffffffffffffffff16815260200191505060405180910390f35b3480156101f457600080fd5b506101fd610841565b6040518082815260200191505060405180910390f35b34801561021f57600080fd5b50610228610847565b6040518082815260200191505060405180910390f35b34801561024a57600080fd5b506102816004803603604081101561026157600080fd5b8101908080359060200190929190803590602001909291905050506108ff565b005b600080600460003373ffffffffffffffffffffffffffffffffffffffff1673ffffffffffffffffffffffffffffffffffffffff1681526020019081526020016000206001015490507fb471f40a10881404b70a4f7819c075d0ae5fec92ae9454b1ccdad5c0fe9a6ab28182604051808381526020018281526020019250505060405180910390a16000600460003373ffffffffffffffffffffffffffffffffffffffff1673ffffffffffffffffffffffffffffffffffffffff168152602001908152602001600020600101819055503373ffffffffffffffffffffffffffffffffffffffff166108fc829081150290604051600060405180830381858888f19350505050158015610398573d6000803e3d6000fd5b507f888f4fb33f1429a5c0e82c8ca8b08617833224470b7efbaf5cb4d0b00e695e658160405180806020018381526020018281038252600d8152602001807f596f7520776974686472657720000000000000000000000000000000000000008152506020019250505060405180910390a18091505090565b61041861099c565b33816000019073ffffffffffffffffffffffffffffffffffffffff16908173ffffffffffffffffffffffffffffffffffffffff1681525050600081602001818152505080600460003373ffffffffffffffffffffffffffffffffffffffff1673ffffffffffffffffffffffffffffffffffffffff16815260200190815260200160002060008201518160000160006101000a81548173ffffffffffffffffffffffffffffffffffffffff021916908373ffffffffffffffffffffffffffffffffffffffff160217905550602082015181600101556040820151816002015560608201518160030160006101000a81548160ff02191690831515021790555090505050565b60007fb471f40a10881404b70a4f7819c075d0ae5fec92ae9454b1ccdad5c0fe9a6ab2600460003373ffffffffffffffffffffffffffffffffffffffff1673ffffffffffffffffffffffffffffffffffffffff16815260200190815260200160002060010154600460003373ffffffffffffffffffffffffffffffffffffffff1673ffffffffffffffffffffffffffffffffffffffff16815260200190815260200160002060010154604051808381526020018281526020019250505060405180910390a1600460003373ffffffffffffffffffffffffffffffffffffffff1673ffffffffffffffffffffffffffffffffffffffff16815260200190815260200160002060010154905090565b336005600083815260200190815260200160002060006101000a81548173ffffffffffffffffffffffffffffffffffffffff021916908373ffffffffffffffffffffffffffffffffffffffff16021790555082600460008573ffffffffffffffffffffffffffffffffffffffff1673ffffffffffffffffffffffffffffffffffffffff16815260200190815260200160002060000160006101000a81548173ffffffffffffffffffffffffffffffffffffffff021916908373ffffffffffffffffffffffffffffffffffffffff1602179055506107046109df565b83816000019073ffffffffffffffffffffffffffffffffffffffff16908173ffffffffffffffffffffffffffffffffffffffff16815250508281602001818152505081816040018181525050806002600084815260200190815260200160002060008201518160000160006101000a81548173ffffffffffffffffffffffffffffffffffffffff021916908373ffffffffffffffffffffffffffffffffffffffff160217905550602082015181600101556040820151816002015590505050505050565b80600460008473ffffffffffffffffffffffffffffffffffffffff1673ffffffffffffffffffffffffffffffffffffffff168152602001908152602001600020600101600082825401925050819055505050565b6000809054906101000a900473ffffffffffffffffffffffffffffffffffffffff1681565b60015481565b60008060009054906101000a900473ffffffffffffffffffffffffffffffffffffffff1673ffffffffffffffffffffffffffffffffffffffff163373ffffffffffffffffffffffffffffffffffffffff16146108a257600080fd5b6000600154905060006001819055503373ffffffffffffffffffffffffffffffffffffffff166108fc829081150290604051600060405180830381858888f193505050501580156108f7573d6000803e3d6000fd5b508091505090565b610907610a19565b8281600001818152505081816040018181525050600183141561093a57600181602001901515908115158152505061094c565b60008160200190151590811515815250505b80600360008481526020019081526020016000206000820151816000015560208201518160010160006101000a81548160ff02191690831515021790555060408201518160020155905050505050565b6040518060800160405280600073ffffffffffffffffffffffffffffffffffffffff16815260200160008152602001600080191681526020016000151581525090565b6040518060600160405280600073ffffffffffffffffffffffffffffffffffffffff16815260200160008152602001600080191681525090565b60405180606001604052806000815260200160001515815260200160008019168152509056fea265627a7a72315820ef4969b87aa6d02942155700dc7e436a2838ae3259917472c89aec74030bb5a164736f6c634300050c0032",
  "source": "pragma solidity >=0.5.12 < 0.6.0;\r\nimport \"./Ownable.sol\";\r\nimport \"./Storagable.sol\";\r\n\r\n\r\n\r\ncontract Winnable is Ownable, Storagable  {\r\n\r\n\r\n\r\n    event youWin (string, uint);\r\n    event youLose(string, uint);\r\n    event checkBalance(uint);\r\n\r\n\r\n\r\n\r\n\r\n      function winOrLose(bytes32 q_id) internal returns (uint){\r\n          bool checkFlag = results[q_id].isWin;\r\n\r\n        uint betAmount = waiting[q_id].betAmount;\r\n\r\n        address  playerLinker = linking[q_id];\r\n        punter memory newPunter = punters[playerLinker];\r\n\r\n\r\n        if (checkFlag == true || checkFlag == false){\r\n            //pay player\r\n\r\n            uint toReward = betAmount * 2;\r\n          punters[playerLinker].punterBalance = toReward;\r\n\r\n         // newPunter.punterBalance += toReward;\r\n         // payPunter(punters[playerLinker].punterBalance,betAmount *2);\r\n\r\n            emit checkBalance(toReward);\r\n            Storagable.balance -= betAmount;\r\n\r\n            emit youWin(\"You won \", betAmount *2);\r\n            toReward  =0;\r\n        }\r\n\r\n        else {\r\n            //keep money\r\n            balance += betAmount;\r\n            emit youLose(\"You lost \", betAmount);\r\n        }\r\n\r\n\r\n        betAmount = 0;\r\n\r\n    }\r\n\r\n\r\n\r\n\r\n\r\n\r\n\r\n\r\n\r\n\r\n\r\n\r\n}\r\n",
  "sourcePath": "D:\\Users\\victo\\Desktop\\Crypto Programming\\Ethereum\\Coinflip\\contracts\\Winnable.sol",
  "compiler": {
    "name": "solc",
    "version": "0.5.12+commit.7709ece9.Emscripten.clang"
  },
  "schemaVersion": "3.0.16",
  "updatedAt": "2020-10-31T05:12:52.164Z",
  "devdoc": {
    "methods": {}
  },
  "userdoc": {
    "methods": {}
  }
}